{
	"Encoding_Decoding/EncodeWithSelector.sol": {
		"EncodeWithSelector": {
			"abi": [
				{
					"inputs": [
						{
							"internalType": "uint256",
							"name": "num1",
							"type": "uint256"
						},
						{
							"internalType": "uint256",
							"name": "num2",
							"type": "uint256"
						},
						{
							"internalType": "address",
							"name": "con",
							"type": "address"
						}
					],
					"name": "add",
					"outputs": [
						{
							"internalType": "bool",
							"name": "",
							"type": "bool"
						}
					],
					"stateMutability": "nonpayable",
					"type": "function"
				}
			],
			"devdoc": {
				"kind": "dev",
				"methods": {},
				"version": 1
			},
			"evm": {
				"assembly": "    /* \"Encoding_Decoding/EncodeWithSelector.sol\":62:448  contract EncodeWithSelector {... */\n  mstore(0x40, 0x80)\n    /* \"Encoding_Decoding/EncodeWithSelector.sol\":122:155  keccak256(\"add(uint256,uint256)\") */\n  0x771602f7f25ce61b0d4f2430f7e4789bfd9e6e4029613fda01b7f2c89fbf44ad\n    /* \"Encoding_Decoding/EncodeWithSelector.sol\":97:156  bytes4 selector = bytes4(keccak256(\"add(uint256,uint256)\")) */\n  0x00\n  dup1\n  0x0100\n  exp\n  dup2\n  sload\n  dup2\n  0xffffffff\n  mul\n  not\n  and\n  swap1\n  dup4\n  0xe0\n  shr\n  mul\n  or\n  swap1\n  sstore\n  pop\n    /* \"Encoding_Decoding/EncodeWithSelector.sol\":62:448  contract EncodeWithSelector {... */\n  callvalue\n  dup1\n  iszero\n  tag_1\n  jumpi\n  0x00\n  dup1\n  revert\ntag_1:\n  pop\n  dataSize(sub_0)\n  dup1\n  dataOffset(sub_0)\n  0x00\n  codecopy\n  0x00\n  return\nstop\n\nsub_0: assembly {\n        /* \"Encoding_Decoding/EncodeWithSelector.sol\":62:448  contract EncodeWithSelector {... */\n      mstore(0x40, 0x80)\n      callvalue\n      dup1\n      iszero\n      tag_1\n      jumpi\n      0x00\n      dup1\n      revert\n    tag_1:\n      pop\n      jumpi(tag_2, lt(calldatasize, 0x04))\n      shr(0xe0, calldataload(0x00))\n      dup1\n      0xa9ccdd3f\n      eq\n      tag_3\n      jumpi\n    tag_2:\n      0x00\n      dup1\n      revert\n        /* \"Encoding_Decoding/EncodeWithSelector.sol\":165:445  function add(uint256 num1 , uint256 num2 ,address con) public  returns(bool){... */\n    tag_3:\n      tag_4\n      0x04\n      dup1\n      calldatasize\n      sub\n      dup2\n      add\n      swap1\n      tag_5\n      swap2\n      swap1\n      tag_6\n      jump\t// in\n    tag_5:\n      tag_7\n      jump\t// in\n    tag_4:\n      mload(0x40)\n      tag_8\n      swap2\n      swap1\n      tag_9\n      jump\t// in\n    tag_8:\n      mload(0x40)\n      dup1\n      swap2\n      sub\n      swap1\n      return\n    tag_7:\n        /* \"Encoding_Decoding/EncodeWithSelector.sol\":236:240  bool */\n      0x00\n        /* \"Encoding_Decoding/EncodeWithSelector.sol\":252:272  bytes memory calldta */\n      dup1\n        /* \"Encoding_Decoding/EncodeWithSelector.sol\":296:304  selector */\n      0x00\n      dup1\n      sload\n      swap1\n      0x0100\n      exp\n      swap1\n      div\n      0xe0\n      shl\n        /* \"Encoding_Decoding/EncodeWithSelector.sol\":306:310  num1 */\n      dup6\n        /* \"Encoding_Decoding/EncodeWithSelector.sol\":312:316  num2 */\n      dup6\n        /* \"Encoding_Decoding/EncodeWithSelector.sol\":273:317  abi.encodeWithSelector(selector, num1, num2) */\n      add(0x24, mload(0x40))\n      tag_11\n      swap3\n      swap2\n      swap1\n      tag_12\n      jump\t// in\n    tag_11:\n      mload(0x40)\n      0x20\n      dup2\n      dup4\n      sub\n      sub\n      dup2\n      mstore\n      swap1\n      0x40\n      mstore\n      swap1\n      not(0xffffffffffffffffffffffffffffffffffffffffffffffffffffffff)\n      and\n      0x20\n      dup3\n      add\n      dup1\n      mload\n      0xffffffffffffffffffffffffffffffffffffffffffffffffffffffff\n      dup4\n      dup2\n      dup4\n      and\n      or\n      dup4\n      mstore\n      pop\n      pop\n      pop\n      pop\n        /* \"Encoding_Decoding/EncodeWithSelector.sol\":252:317  bytes memory calldta=abi.encodeWithSelector(selector, num1, num2) */\n      swap1\n      pop\n        /* \"Encoding_Decoding/EncodeWithSelector.sol\":329:341  bool success */\n      0x00\n        /* \"Encoding_Decoding/EncodeWithSelector.sol\":345:348  con */\n      dup4\n        /* \"Encoding_Decoding/EncodeWithSelector.sol\":345:353  con.call */\n      0xffffffffffffffffffffffffffffffffffffffff\n      and\n        /* \"Encoding_Decoding/EncodeWithSelector.sol\":354:361  calldta */\n      dup3\n        /* \"Encoding_Decoding/EncodeWithSelector.sol\":345:362  con.call(calldta) */\n      mload(0x40)\n      tag_13\n      swap2\n      swap1\n      tag_14\n      jump\t// in\n    tag_13:\n      0x00\n      mload(0x40)\n      dup1\n      dup4\n      sub\n      dup2\n      0x00\n      dup7\n      gas\n      call\n      swap2\n      pop\n      pop\n      returndatasize\n      dup1\n      0x00\n      dup2\n      eq\n      tag_17\n      jumpi\n      mload(0x40)\n      swap2\n      pop\n      and(add(returndatasize, 0x3f), not(0x1f))\n      dup3\n      add\n      0x40\n      mstore\n      returndatasize\n      dup3\n      mstore\n      returndatasize\n      0x00\n      0x20\n      dup5\n      add\n      returndatacopy\n      jump(tag_16)\n    tag_17:\n      0x60\n      swap2\n      pop\n    tag_16:\n      pop\n        /* \"Encoding_Decoding/EncodeWithSelector.sol\":328:362  (bool success, )=con.call(calldta) */\n      pop\n      swap1\n      pop\n        /* \"Encoding_Decoding/EncodeWithSelector.sol\":381:388  success */\n      dup1\n        /* \"Encoding_Decoding/EncodeWithSelector.sol\":373:412  require(success,\"Not call the address\") */\n      tag_18\n      jumpi\n      mload(0x40)\n      0x08c379a000000000000000000000000000000000000000000000000000000000\n      dup2\n      mstore\n      0x04\n      add\n      tag_19\n      swap1\n      tag_20\n      jump\t// in\n    tag_19:\n      mload(0x40)\n      dup1\n      swap2\n      sub\n      swap1\n      revert\n    tag_18:\n        /* \"Encoding_Decoding/EncodeWithSelector.sol\":430:437  success */\n      dup1\n        /* \"Encoding_Decoding/EncodeWithSelector.sol\":423:437  return success */\n      swap3\n      pop\n      pop\n      pop\n        /* \"Encoding_Decoding/EncodeWithSelector.sol\":165:445  function add(uint256 num1 , uint256 num2 ,address con) public  returns(bool){... */\n      swap4\n      swap3\n      pop\n      pop\n      pop\n      jump\t// out\n        /* \"#utility.yul\":88:205   */\n    tag_22:\n        /* \"#utility.yul\":197:198   */\n      0x00\n        /* \"#utility.yul\":194:195   */\n      dup1\n        /* \"#utility.yul\":187:199   */\n      revert\n        /* \"#utility.yul\":334:411   */\n    tag_24:\n        /* \"#utility.yul\":371:378   */\n      0x00\n        /* \"#utility.yul\":400:405   */\n      dup2\n        /* \"#utility.yul\":389:405   */\n      swap1\n      pop\n        /* \"#utility.yul\":334:411   */\n      swap2\n      swap1\n      pop\n      jump\t// out\n        /* \"#utility.yul\":417:539   */\n    tag_25:\n        /* \"#utility.yul\":490:514   */\n      tag_47\n        /* \"#utility.yul\":508:513   */\n      dup2\n        /* \"#utility.yul\":490:514   */\n      tag_24\n      jump\t// in\n    tag_47:\n        /* \"#utility.yul\":483:488   */\n      dup2\n        /* \"#utility.yul\":480:515   */\n      eq\n        /* \"#utility.yul\":470:533   */\n      tag_48\n      jumpi\n        /* \"#utility.yul\":529:530   */\n      0x00\n        /* \"#utility.yul\":526:527   */\n      dup1\n        /* \"#utility.yul\":519:531   */\n      revert\n        /* \"#utility.yul\":470:533   */\n    tag_48:\n        /* \"#utility.yul\":417:539   */\n      pop\n      jump\t// out\n        /* \"#utility.yul\":545:684   */\n    tag_26:\n        /* \"#utility.yul\":591:596   */\n      0x00\n        /* \"#utility.yul\":629:635   */\n      dup2\n        /* \"#utility.yul\":616:636   */\n      calldataload\n        /* \"#utility.yul\":607:636   */\n      swap1\n      pop\n        /* \"#utility.yul\":645:678   */\n      tag_50\n        /* \"#utility.yul\":672:677   */\n      dup2\n        /* \"#utility.yul\":645:678   */\n      tag_25\n      jump\t// in\n    tag_50:\n        /* \"#utility.yul\":545:684   */\n      swap3\n      swap2\n      pop\n      pop\n      jump\t// out\n        /* \"#utility.yul\":690:816   */\n    tag_27:\n        /* \"#utility.yul\":727:734   */\n      0x00\n        /* \"#utility.yul\":767:809   */\n      0xffffffffffffffffffffffffffffffffffffffff\n        /* \"#utility.yul\":760:765   */\n      dup3\n        /* \"#utility.yul\":756:810   */\n      and\n        /* \"#utility.yul\":745:810   */\n      swap1\n      pop\n        /* \"#utility.yul\":690:816   */\n      swap2\n      swap1\n      pop\n      jump\t// out\n        /* \"#utility.yul\":822:918   */\n    tag_28:\n        /* \"#utility.yul\":859:866   */\n      0x00\n        /* \"#utility.yul\":888:912   */\n      tag_53\n        /* \"#utility.yul\":906:911   */\n      dup3\n        /* \"#utility.yul\":888:912   */\n      tag_27\n      jump\t// in\n    tag_53:\n        /* \"#utility.yul\":877:912   */\n      swap1\n      pop\n        /* \"#utility.yul\":822:918   */\n      swap2\n      swap1\n      pop\n      jump\t// out\n        /* \"#utility.yul\":924:1046   */\n    tag_29:\n        /* \"#utility.yul\":997:1021   */\n      tag_55\n        /* \"#utility.yul\":1015:1020   */\n      dup2\n        /* \"#utility.yul\":997:1021   */\n      tag_28\n      jump\t// in\n    tag_55:\n        /* \"#utility.yul\":990:995   */\n      dup2\n        /* \"#utility.yul\":987:1022   */\n      eq\n        /* \"#utility.yul\":977:1040   */\n      tag_56\n      jumpi\n        /* \"#utility.yul\":1036:1037   */\n      0x00\n        /* \"#utility.yul\":1033:1034   */\n      dup1\n        /* \"#utility.yul\":1026:1038   */\n      revert\n        /* \"#utility.yul\":977:1040   */\n    tag_56:\n        /* \"#utility.yul\":924:1046   */\n      pop\n      jump\t// out\n        /* \"#utility.yul\":1052:1191   */\n    tag_30:\n        /* \"#utility.yul\":1098:1103   */\n      0x00\n        /* \"#utility.yul\":1136:1142   */\n      dup2\n        /* \"#utility.yul\":1123:1143   */\n      calldataload\n        /* \"#utility.yul\":1114:1143   */\n      swap1\n      pop\n        /* \"#utility.yul\":1152:1185   */\n      tag_58\n        /* \"#utility.yul\":1179:1184   */\n      dup2\n        /* \"#utility.yul\":1152:1185   */\n      tag_29\n      jump\t// in\n    tag_58:\n        /* \"#utility.yul\":1052:1191   */\n      swap3\n      swap2\n      pop\n      pop\n      jump\t// out\n        /* \"#utility.yul\":1197:1816   */\n    tag_6:\n        /* \"#utility.yul\":1274:1280   */\n      0x00\n        /* \"#utility.yul\":1282:1288   */\n      dup1\n        /* \"#utility.yul\":1290:1296   */\n      0x00\n        /* \"#utility.yul\":1339:1341   */\n      0x60\n        /* \"#utility.yul\":1327:1336   */\n      dup5\n        /* \"#utility.yul\":1318:1325   */\n      dup7\n        /* \"#utility.yul\":1314:1337   */\n      sub\n        /* \"#utility.yul\":1310:1342   */\n      slt\n        /* \"#utility.yul\":1307:1426   */\n      iszero\n      tag_60\n      jumpi\n        /* \"#utility.yul\":1345:1424   */\n      tag_61\n      tag_22\n      jump\t// in\n    tag_61:\n        /* \"#utility.yul\":1307:1426   */\n    tag_60:\n        /* \"#utility.yul\":1465:1466   */\n      0x00\n        /* \"#utility.yul\":1490:1543   */\n      tag_62\n        /* \"#utility.yul\":1535:1542   */\n      dup7\n        /* \"#utility.yul\":1526:1532   */\n      dup3\n        /* \"#utility.yul\":1515:1524   */\n      dup8\n        /* \"#utility.yul\":1511:1533   */\n      add\n        /* \"#utility.yul\":1490:1543   */\n      tag_26\n      jump\t// in\n    tag_62:\n        /* \"#utility.yul\":1480:1543   */\n      swap4\n      pop\n        /* \"#utility.yul\":1436:1553   */\n      pop\n        /* \"#utility.yul\":1592:1594   */\n      0x20\n        /* \"#utility.yul\":1618:1671   */\n      tag_63\n        /* \"#utility.yul\":1663:1670   */\n      dup7\n        /* \"#utility.yul\":1654:1660   */\n      dup3\n        /* \"#utility.yul\":1643:1652   */\n      dup8\n        /* \"#utility.yul\":1639:1661   */\n      add\n        /* \"#utility.yul\":1618:1671   */\n      tag_26\n      jump\t// in\n    tag_63:\n        /* \"#utility.yul\":1608:1671   */\n      swap3\n      pop\n        /* \"#utility.yul\":1563:1681   */\n      pop\n        /* \"#utility.yul\":1720:1722   */\n      0x40\n        /* \"#utility.yul\":1746:1799   */\n      tag_64\n        /* \"#utility.yul\":1791:1798   */\n      dup7\n        /* \"#utility.yul\":1782:1788   */\n      dup3\n        /* \"#utility.yul\":1771:1780   */\n      dup8\n        /* \"#utility.yul\":1767:1789   */\n      add\n        /* \"#utility.yul\":1746:1799   */\n      tag_30\n      jump\t// in\n    tag_64:\n        /* \"#utility.yul\":1736:1799   */\n      swap2\n      pop\n        /* \"#utility.yul\":1691:1809   */\n      pop\n        /* \"#utility.yul\":1197:1816   */\n      swap3\n      pop\n      swap3\n      pop\n      swap3\n      jump\t// out\n        /* \"#utility.yul\":1822:1912   */\n    tag_31:\n        /* \"#utility.yul\":1856:1863   */\n      0x00\n        /* \"#utility.yul\":1899:1904   */\n      dup2\n        /* \"#utility.yul\":1892:1905   */\n      iszero\n        /* \"#utility.yul\":1885:1906   */\n      iszero\n        /* \"#utility.yul\":1874:1906   */\n      swap1\n      pop\n        /* \"#utility.yul\":1822:1912   */\n      swap2\n      swap1\n      pop\n      jump\t// out\n        /* \"#utility.yul\":1918:2027   */\n    tag_32:\n        /* \"#utility.yul\":1999:2020   */\n      tag_67\n        /* \"#utility.yul\":2014:2019   */\n      dup2\n        /* \"#utility.yul\":1999:2020   */\n      tag_31\n      jump\t// in\n    tag_67:\n        /* \"#utility.yul\":1994:1997   */\n      dup3\n        /* \"#utility.yul\":1987:2021   */\n      mstore\n        /* \"#utility.yul\":1918:2027   */\n      pop\n      pop\n      jump\t// out\n        /* \"#utility.yul\":2033:2243   */\n    tag_9:\n        /* \"#utility.yul\":2120:2124   */\n      0x00\n        /* \"#utility.yul\":2158:2160   */\n      0x20\n        /* \"#utility.yul\":2147:2156   */\n      dup3\n        /* \"#utility.yul\":2143:2161   */\n      add\n        /* \"#utility.yul\":2135:2161   */\n      swap1\n      pop\n        /* \"#utility.yul\":2171:2236   */\n      tag_69\n        /* \"#utility.yul\":2233:2234   */\n      0x00\n        /* \"#utility.yul\":2222:2231   */\n      dup4\n        /* \"#utility.yul\":2218:2235   */\n      add\n        /* \"#utility.yul\":2209:2215   */\n      dup5\n        /* \"#utility.yul\":2171:2236   */\n      tag_32\n      jump\t// in\n    tag_69:\n        /* \"#utility.yul\":2033:2243   */\n      swap3\n      swap2\n      pop\n      pop\n      jump\t// out\n        /* \"#utility.yul\":2249:2367   */\n    tag_33:\n        /* \"#utility.yul\":2336:2360   */\n      tag_71\n        /* \"#utility.yul\":2354:2359   */\n      dup2\n        /* \"#utility.yul\":2336:2360   */\n      tag_24\n      jump\t// in\n    tag_71:\n        /* \"#utility.yul\":2331:2334   */\n      dup3\n        /* \"#utility.yul\":2324:2361   */\n      mstore\n        /* \"#utility.yul\":2249:2367   */\n      pop\n      pop\n      jump\t// out\n        /* \"#utility.yul\":2373:2705   */\n    tag_12:\n        /* \"#utility.yul\":2494:2498   */\n      0x00\n        /* \"#utility.yul\":2532:2534   */\n      0x40\n        /* \"#utility.yul\":2521:2530   */\n      dup3\n        /* \"#utility.yul\":2517:2535   */\n      add\n        /* \"#utility.yul\":2509:2535   */\n      swap1\n      pop\n        /* \"#utility.yul\":2545:2616   */\n      tag_73\n        /* \"#utility.yul\":2613:2614   */\n      0x00\n        /* \"#utility.yul\":2602:2611   */\n      dup4\n        /* \"#utility.yul\":2598:2615   */\n      add\n        /* \"#utility.yul\":2589:2595   */\n      dup6\n        /* \"#utility.yul\":2545:2616   */\n      tag_33\n      jump\t// in\n    tag_73:\n        /* \"#utility.yul\":2626:2698   */\n      tag_74\n        /* \"#utility.yul\":2694:2696   */\n      0x20\n        /* \"#utility.yul\":2683:2692   */\n      dup4\n        /* \"#utility.yul\":2679:2697   */\n      add\n        /* \"#utility.yul\":2670:2676   */\n      dup5\n        /* \"#utility.yul\":2626:2698   */\n      tag_33\n      jump\t// in\n    tag_74:\n        /* \"#utility.yul\":2373:2705   */\n      swap4\n      swap3\n      pop\n      pop\n      pop\n      jump\t// out\n        /* \"#utility.yul\":2711:2809   */\n    tag_34:\n        /* \"#utility.yul\":2762:2768   */\n      0x00\n        /* \"#utility.yul\":2796:2801   */\n      dup2\n        /* \"#utility.yul\":2790:2802   */\n      mload\n        /* \"#utility.yul\":2780:2802   */\n      swap1\n      pop\n        /* \"#utility.yul\":2711:2809   */\n      swap2\n      swap1\n      pop\n      jump\t// out\n        /* \"#utility.yul\":2815:2962   */\n    tag_35:\n        /* \"#utility.yul\":2916:2927   */\n      0x00\n        /* \"#utility.yul\":2953:2956   */\n      dup2\n        /* \"#utility.yul\":2938:2956   */\n      swap1\n      pop\n        /* \"#utility.yul\":2815:2962   */\n      swap3\n      swap2\n      pop\n      pop\n      jump\t// out\n        /* \"#utility.yul\":2968:3214   */\n    tag_36:\n        /* \"#utility.yul\":3049:3050   */\n      0x00\n        /* \"#utility.yul\":3059:3172   */\n    tag_78:\n        /* \"#utility.yul\":3073:3079   */\n      dup4\n        /* \"#utility.yul\":3070:3071   */\n      dup2\n        /* \"#utility.yul\":3067:3080   */\n      lt\n        /* \"#utility.yul\":3059:3172   */\n      iszero\n      tag_80\n      jumpi\n        /* \"#utility.yul\":3158:3159   */\n      dup1\n        /* \"#utility.yul\":3153:3156   */\n      dup3\n        /* \"#utility.yul\":3149:3160   */\n      add\n        /* \"#utility.yul\":3143:3161   */\n      mload\n        /* \"#utility.yul\":3139:3140   */\n      dup2\n        /* \"#utility.yul\":3134:3137   */\n      dup5\n        /* \"#utility.yul\":3130:3141   */\n      add\n        /* \"#utility.yul\":3123:3162   */\n      mstore\n        /* \"#utility.yul\":3095:3097   */\n      0x20\n        /* \"#utility.yul\":3092:3093   */\n      dup2\n        /* \"#utility.yul\":3088:3098   */\n      add\n        /* \"#utility.yul\":3083:3098   */\n      swap1\n      pop\n        /* \"#utility.yul\":3059:3172   */\n      jump(tag_78)\n    tag_80:\n        /* \"#utility.yul\":3206:3207   */\n      0x00\n        /* \"#utility.yul\":3197:3203   */\n      dup5\n        /* \"#utility.yul\":3192:3195   */\n      dup5\n        /* \"#utility.yul\":3188:3204   */\n      add\n        /* \"#utility.yul\":3181:3208   */\n      mstore\n        /* \"#utility.yul\":3030:3214   */\n      pop\n        /* \"#utility.yul\":2968:3214   */\n      pop\n      pop\n      pop\n      jump\t// out\n        /* \"#utility.yul\":3220:3606   */\n    tag_37:\n        /* \"#utility.yul\":3324:3327   */\n      0x00\n        /* \"#utility.yul\":3352:3390   */\n      tag_82\n        /* \"#utility.yul\":3384:3389   */\n      dup3\n        /* \"#utility.yul\":3352:3390   */\n      tag_34\n      jump\t// in\n    tag_82:\n        /* \"#utility.yul\":3406:3494   */\n      tag_83\n        /* \"#utility.yul\":3487:3493   */\n      dup2\n        /* \"#utility.yul\":3482:3485   */\n      dup6\n        /* \"#utility.yul\":3406:3494   */\n      tag_35\n      jump\t// in\n    tag_83:\n        /* \"#utility.yul\":3399:3494   */\n      swap4\n      pop\n        /* \"#utility.yul\":3503:3568   */\n      tag_84\n        /* \"#utility.yul\":3561:3567   */\n      dup2\n        /* \"#utility.yul\":3556:3559   */\n      dup6\n        /* \"#utility.yul\":3549:3553   */\n      0x20\n        /* \"#utility.yul\":3542:3547   */\n      dup7\n        /* \"#utility.yul\":3538:3554   */\n      add\n        /* \"#utility.yul\":3503:3568   */\n      tag_36\n      jump\t// in\n    tag_84:\n        /* \"#utility.yul\":3593:3599   */\n      dup1\n        /* \"#utility.yul\":3588:3591   */\n      dup5\n        /* \"#utility.yul\":3584:3600   */\n      add\n        /* \"#utility.yul\":3577:3600   */\n      swap2\n      pop\n        /* \"#utility.yul\":3328:3606   */\n      pop\n        /* \"#utility.yul\":3220:3606   */\n      swap3\n      swap2\n      pop\n      pop\n      jump\t// out\n        /* \"#utility.yul\":3612:3883   */\n    tag_14:\n        /* \"#utility.yul\":3742:3745   */\n      0x00\n        /* \"#utility.yul\":3764:3857   */\n      tag_86\n        /* \"#utility.yul\":3853:3856   */\n      dup3\n        /* \"#utility.yul\":3844:3850   */\n      dup5\n        /* \"#utility.yul\":3764:3857   */\n      tag_37\n      jump\t// in\n    tag_86:\n        /* \"#utility.yul\":3757:3857   */\n      swap2\n      pop\n        /* \"#utility.yul\":3874:3877   */\n      dup2\n        /* \"#utility.yul\":3867:3877   */\n      swap1\n      pop\n        /* \"#utility.yul\":3612:3883   */\n      swap3\n      swap2\n      pop\n      pop\n      jump\t// out\n        /* \"#utility.yul\":3889:4058   */\n    tag_38:\n        /* \"#utility.yul\":3973:3984   */\n      0x00\n        /* \"#utility.yul\":4007:4013   */\n      dup3\n        /* \"#utility.yul\":4002:4005   */\n      dup3\n        /* \"#utility.yul\":3995:4014   */\n      mstore\n        /* \"#utility.yul\":4047:4051   */\n      0x20\n        /* \"#utility.yul\":4042:4045   */\n      dup3\n        /* \"#utility.yul\":4038:4052   */\n      add\n        /* \"#utility.yul\":4023:4052   */\n      swap1\n      pop\n        /* \"#utility.yul\":3889:4058   */\n      swap3\n      swap2\n      pop\n      pop\n      jump\t// out\n        /* \"#utility.yul\":4064:4234   */\n    tag_39:\n        /* \"#utility.yul\":4204:4226   */\n      0x4e6f742063616c6c207468652061646472657373000000000000000000000000\n        /* \"#utility.yul\":4200:4201   */\n      0x00\n        /* \"#utility.yul\":4192:4198   */\n      dup3\n        /* \"#utility.yul\":4188:4202   */\n      add\n        /* \"#utility.yul\":4181:4227   */\n      mstore\n        /* \"#utility.yul\":4064:4234   */\n      pop\n      jump\t// out\n        /* \"#utility.yul\":4240:4606   */\n    tag_40:\n        /* \"#utility.yul\":4382:4385   */\n      0x00\n        /* \"#utility.yul\":4403:4470   */\n      tag_90\n        /* \"#utility.yul\":4467:4469   */\n      0x14\n        /* \"#utility.yul\":4462:4465   */\n      dup4\n        /* \"#utility.yul\":4403:4470   */\n      tag_38\n      jump\t// in\n    tag_90:\n        /* \"#utility.yul\":4396:4470   */\n      swap2\n      pop\n        /* \"#utility.yul\":4479:4572   */\n      tag_91\n        /* \"#utility.yul\":4568:4571   */\n      dup3\n        /* \"#utility.yul\":4479:4572   */\n      tag_39\n      jump\t// in\n    tag_91:\n        /* \"#utility.yul\":4597:4599   */\n      0x20\n        /* \"#utility.yul\":4592:4595   */\n      dup3\n        /* \"#utility.yul\":4588:4600   */\n      add\n        /* \"#utility.yul\":4581:4600   */\n      swap1\n      pop\n        /* \"#utility.yul\":4240:4606   */\n      swap2\n      swap1\n      pop\n      jump\t// out\n        /* \"#utility.yul\":4612:5031   */\n    tag_20:\n        /* \"#utility.yul\":4778:4782   */\n      0x00\n        /* \"#utility.yul\":4816:4818   */\n      0x20\n        /* \"#utility.yul\":4805:4814   */\n      dup3\n        /* \"#utility.yul\":4801:4819   */\n      add\n        /* \"#utility.yul\":4793:4819   */\n      swap1\n      pop\n        /* \"#utility.yul\":4865:4874   */\n      dup2\n        /* \"#utility.yul\":4859:4863   */\n      dup2\n        /* \"#utility.yul\":4855:4875   */\n      sub\n        /* \"#utility.yul\":4851:4852   */\n      0x00\n        /* \"#utility.yul\":4840:4849   */\n      dup4\n        /* \"#utility.yul\":4836:4853   */\n      add\n        /* \"#utility.yul\":4829:4876   */\n      mstore\n        /* \"#utility.yul\":4893:5024   */\n      tag_93\n        /* \"#utility.yul\":5019:5023   */\n      dup2\n        /* \"#utility.yul\":4893:5024   */\n      tag_40\n      jump\t// in\n    tag_93:\n        /* \"#utility.yul\":4885:5024   */\n      swap1\n      pop\n        /* \"#utility.yul\":4612:5031   */\n      swap2\n      swap1\n      pop\n      jump\t// out\n\n    auxdata: 0xa26469706673582212201e683420248073cf9ba9a34a0fe39d4328a449dc126b86aae35488e7cc87422064736f6c63430008180033\n}\n",
				"bytecode": {
					"linkReferences": {},
					"object": "60806040527f771602f7f25ce61b0d4f2430f7e4789bfd9e6e4029613fda01b7f2c89fbf44ad5f806101000a81548163ffffffff021916908360e01c021790555034801561004b575f80fd5b5061040c806100595f395ff3fe608060405234801561000f575f80fd5b5060043610610029575f3560e01c8063a9ccdd3f1461002d575b5f80fd5b61004760048036038101906100429190610223565b61005d565b604051610054919061028d565b60405180910390f35b5f805f8054906101000a900460e01b858560405160240161007f9291906102b5565b604051602081830303815290604052907bffffffffffffffffffffffffffffffffffffffffffffffffffffffff19166020820180517bffffffffffffffffffffffffffffffffffffffffffffffffffffffff838183161783525050505090505f8373ffffffffffffffffffffffffffffffffffffffff16826040516101049190610348565b5f604051808303815f865af19150503d805f811461013d576040519150601f19603f3d011682016040523d82523d5f602084013e610142565b606091505b5050905080610186576040517f08c379a000000000000000000000000000000000000000000000000000000000815260040161017d906103b8565b60405180910390fd5b80925050509392505050565b5f80fd5b5f819050919050565b6101a881610196565b81146101b2575f80fd5b50565b5f813590506101c38161019f565b92915050565b5f73ffffffffffffffffffffffffffffffffffffffff82169050919050565b5f6101f2826101c9565b9050919050565b610202816101e8565b811461020c575f80fd5b50565b5f8135905061021d816101f9565b92915050565b5f805f6060848603121561023a57610239610192565b5b5f610247868287016101b5565b9350506020610258868287016101b5565b92505060406102698682870161020f565b9150509250925092565b5f8115159050919050565b61028781610273565b82525050565b5f6020820190506102a05f83018461027e565b92915050565b6102af81610196565b82525050565b5f6040820190506102c85f8301856102a6565b6102d560208301846102a6565b9392505050565b5f81519050919050565b5f81905092915050565b5f5b8381101561030d5780820151818401526020810190506102f2565b5f8484015250505050565b5f610322826102dc565b61032c81856102e6565b935061033c8185602086016102f0565b80840191505092915050565b5f6103538284610318565b915081905092915050565b5f82825260208201905092915050565b7f4e6f742063616c6c2074686520616464726573730000000000000000000000005f82015250565b5f6103a260148361035e565b91506103ad8261036e565b602082019050919050565b5f6020820190508181035f8301526103cf81610396565b905091905056fea26469706673582212201e683420248073cf9ba9a34a0fe39d4328a449dc126b86aae35488e7cc87422064736f6c63430008180033",
					"opcodes": "PUSH1 0x80 PUSH1 0x40 MSTORE PUSH32 0x771602F7F25CE61B0D4F2430F7E4789BFD9E6E4029613FDA01B7F2C89FBF44AD PUSH0 DUP1 PUSH2 0x100 EXP DUP2 SLOAD DUP2 PUSH4 0xFFFFFFFF MUL NOT AND SWAP1 DUP4 PUSH1 0xE0 SHR MUL OR SWAP1 SSTORE POP CALLVALUE DUP1 ISZERO PUSH2 0x4B JUMPI PUSH0 DUP1 REVERT JUMPDEST POP PUSH2 0x40C DUP1 PUSH2 0x59 PUSH0 CODECOPY PUSH0 RETURN INVALID PUSH1 0x80 PUSH1 0x40 MSTORE CALLVALUE DUP1 ISZERO PUSH2 0xF JUMPI PUSH0 DUP1 REVERT JUMPDEST POP PUSH1 0x4 CALLDATASIZE LT PUSH2 0x29 JUMPI PUSH0 CALLDATALOAD PUSH1 0xE0 SHR DUP1 PUSH4 0xA9CCDD3F EQ PUSH2 0x2D JUMPI JUMPDEST PUSH0 DUP1 REVERT JUMPDEST PUSH2 0x47 PUSH1 0x4 DUP1 CALLDATASIZE SUB DUP2 ADD SWAP1 PUSH2 0x42 SWAP2 SWAP1 PUSH2 0x223 JUMP JUMPDEST PUSH2 0x5D JUMP JUMPDEST PUSH1 0x40 MLOAD PUSH2 0x54 SWAP2 SWAP1 PUSH2 0x28D JUMP JUMPDEST PUSH1 0x40 MLOAD DUP1 SWAP2 SUB SWAP1 RETURN JUMPDEST PUSH0 DUP1 PUSH0 DUP1 SLOAD SWAP1 PUSH2 0x100 EXP SWAP1 DIV PUSH1 0xE0 SHL DUP6 DUP6 PUSH1 0x40 MLOAD PUSH1 0x24 ADD PUSH2 0x7F SWAP3 SWAP2 SWAP1 PUSH2 0x2B5 JUMP JUMPDEST PUSH1 0x40 MLOAD PUSH1 0x20 DUP2 DUP4 SUB SUB DUP2 MSTORE SWAP1 PUSH1 0x40 MSTORE SWAP1 PUSH28 0xFFFFFFFFFFFFFFFFFFFFFFFFFFFFFFFFFFFFFFFFFFFFFFFFFFFFFFFF NOT AND PUSH1 0x20 DUP3 ADD DUP1 MLOAD PUSH28 0xFFFFFFFFFFFFFFFFFFFFFFFFFFFFFFFFFFFFFFFFFFFFFFFFFFFFFFFF DUP4 DUP2 DUP4 AND OR DUP4 MSTORE POP POP POP POP SWAP1 POP PUSH0 DUP4 PUSH20 0xFFFFFFFFFFFFFFFFFFFFFFFFFFFFFFFFFFFFFFFF AND DUP3 PUSH1 0x40 MLOAD PUSH2 0x104 SWAP2 SWAP1 PUSH2 0x348 JUMP JUMPDEST PUSH0 PUSH1 0x40 MLOAD DUP1 DUP4 SUB DUP2 PUSH0 DUP7 GAS CALL SWAP2 POP POP RETURNDATASIZE DUP1 PUSH0 DUP2 EQ PUSH2 0x13D JUMPI PUSH1 0x40 MLOAD SWAP2 POP PUSH1 0x1F NOT PUSH1 0x3F RETURNDATASIZE ADD AND DUP3 ADD PUSH1 0x40 MSTORE RETURNDATASIZE DUP3 MSTORE RETURNDATASIZE PUSH0 PUSH1 0x20 DUP5 ADD RETURNDATACOPY PUSH2 0x142 JUMP JUMPDEST PUSH1 0x60 SWAP2 POP JUMPDEST POP POP SWAP1 POP DUP1 PUSH2 0x186 JUMPI PUSH1 0x40 MLOAD PUSH32 0x8C379A000000000000000000000000000000000000000000000000000000000 DUP2 MSTORE PUSH1 0x4 ADD PUSH2 0x17D SWAP1 PUSH2 0x3B8 JUMP JUMPDEST PUSH1 0x40 MLOAD DUP1 SWAP2 SUB SWAP1 REVERT JUMPDEST DUP1 SWAP3 POP POP POP SWAP4 SWAP3 POP POP POP JUMP JUMPDEST PUSH0 DUP1 REVERT JUMPDEST PUSH0 DUP2 SWAP1 POP SWAP2 SWAP1 POP JUMP JUMPDEST PUSH2 0x1A8 DUP2 PUSH2 0x196 JUMP JUMPDEST DUP2 EQ PUSH2 0x1B2 JUMPI PUSH0 DUP1 REVERT JUMPDEST POP JUMP JUMPDEST PUSH0 DUP2 CALLDATALOAD SWAP1 POP PUSH2 0x1C3 DUP2 PUSH2 0x19F JUMP JUMPDEST SWAP3 SWAP2 POP POP JUMP JUMPDEST PUSH0 PUSH20 0xFFFFFFFFFFFFFFFFFFFFFFFFFFFFFFFFFFFFFFFF DUP3 AND SWAP1 POP SWAP2 SWAP1 POP JUMP JUMPDEST PUSH0 PUSH2 0x1F2 DUP3 PUSH2 0x1C9 JUMP JUMPDEST SWAP1 POP SWAP2 SWAP1 POP JUMP JUMPDEST PUSH2 0x202 DUP2 PUSH2 0x1E8 JUMP JUMPDEST DUP2 EQ PUSH2 0x20C JUMPI PUSH0 DUP1 REVERT JUMPDEST POP JUMP JUMPDEST PUSH0 DUP2 CALLDATALOAD SWAP1 POP PUSH2 0x21D DUP2 PUSH2 0x1F9 JUMP JUMPDEST SWAP3 SWAP2 POP POP JUMP JUMPDEST PUSH0 DUP1 PUSH0 PUSH1 0x60 DUP5 DUP7 SUB SLT ISZERO PUSH2 0x23A JUMPI PUSH2 0x239 PUSH2 0x192 JUMP JUMPDEST JUMPDEST PUSH0 PUSH2 0x247 DUP7 DUP3 DUP8 ADD PUSH2 0x1B5 JUMP JUMPDEST SWAP4 POP POP PUSH1 0x20 PUSH2 0x258 DUP7 DUP3 DUP8 ADD PUSH2 0x1B5 JUMP JUMPDEST SWAP3 POP POP PUSH1 0x40 PUSH2 0x269 DUP7 DUP3 DUP8 ADD PUSH2 0x20F JUMP JUMPDEST SWAP2 POP POP SWAP3 POP SWAP3 POP SWAP3 JUMP JUMPDEST PUSH0 DUP2 ISZERO ISZERO SWAP1 POP SWAP2 SWAP1 POP JUMP JUMPDEST PUSH2 0x287 DUP2 PUSH2 0x273 JUMP JUMPDEST DUP3 MSTORE POP POP JUMP JUMPDEST PUSH0 PUSH1 0x20 DUP3 ADD SWAP1 POP PUSH2 0x2A0 PUSH0 DUP4 ADD DUP5 PUSH2 0x27E JUMP JUMPDEST SWAP3 SWAP2 POP POP JUMP JUMPDEST PUSH2 0x2AF DUP2 PUSH2 0x196 JUMP JUMPDEST DUP3 MSTORE POP POP JUMP JUMPDEST PUSH0 PUSH1 0x40 DUP3 ADD SWAP1 POP PUSH2 0x2C8 PUSH0 DUP4 ADD DUP6 PUSH2 0x2A6 JUMP JUMPDEST PUSH2 0x2D5 PUSH1 0x20 DUP4 ADD DUP5 PUSH2 0x2A6 JUMP JUMPDEST SWAP4 SWAP3 POP POP POP JUMP JUMPDEST PUSH0 DUP2 MLOAD SWAP1 POP SWAP2 SWAP1 POP JUMP JUMPDEST PUSH0 DUP2 SWAP1 POP SWAP3 SWAP2 POP POP JUMP JUMPDEST PUSH0 JUMPDEST DUP4 DUP2 LT ISZERO PUSH2 0x30D JUMPI DUP1 DUP3 ADD MLOAD DUP2 DUP5 ADD MSTORE PUSH1 0x20 DUP2 ADD SWAP1 POP PUSH2 0x2F2 JUMP JUMPDEST PUSH0 DUP5 DUP5 ADD MSTORE POP POP POP POP JUMP JUMPDEST PUSH0 PUSH2 0x322 DUP3 PUSH2 0x2DC JUMP JUMPDEST PUSH2 0x32C DUP2 DUP6 PUSH2 0x2E6 JUMP JUMPDEST SWAP4 POP PUSH2 0x33C DUP2 DUP6 PUSH1 0x20 DUP7 ADD PUSH2 0x2F0 JUMP JUMPDEST DUP1 DUP5 ADD SWAP2 POP POP SWAP3 SWAP2 POP POP JUMP JUMPDEST PUSH0 PUSH2 0x353 DUP3 DUP5 PUSH2 0x318 JUMP JUMPDEST SWAP2 POP DUP2 SWAP1 POP SWAP3 SWAP2 POP POP JUMP JUMPDEST PUSH0 DUP3 DUP3 MSTORE PUSH1 0x20 DUP3 ADD SWAP1 POP SWAP3 SWAP2 POP POP JUMP JUMPDEST PUSH32 0x4E6F742063616C6C207468652061646472657373000000000000000000000000 PUSH0 DUP3 ADD MSTORE POP JUMP JUMPDEST PUSH0 PUSH2 0x3A2 PUSH1 0x14 DUP4 PUSH2 0x35E JUMP JUMPDEST SWAP2 POP PUSH2 0x3AD DUP3 PUSH2 0x36E JUMP JUMPDEST PUSH1 0x20 DUP3 ADD SWAP1 POP SWAP2 SWAP1 POP JUMP JUMPDEST PUSH0 PUSH1 0x20 DUP3 ADD SWAP1 POP DUP2 DUP2 SUB PUSH0 DUP4 ADD MSTORE PUSH2 0x3CF DUP2 PUSH2 0x396 JUMP JUMPDEST SWAP1 POP SWAP2 SWAP1 POP JUMP INVALID LOG2 PUSH5 0x6970667358 0x22 SLT KECCAK256 0x1E PUSH9 0x3420248073CF9BA9A3 BLOBBASEFEE 0xF 0xE3 SWAP14 NUMBER 0x28 LOG4 BLOBHASH 0xDC SLT PUSH12 0x86AAE35488E7CC8742206473 PUSH16 0x6C634300081800330000000000000000 "
				},
				"gasEstimates": {
					"creation": {
						"codeDepositCost": "207200",
						"executionCost": "24515",
						"totalCost": "231715"
					},
					"external": {
						"add(uint256,uint256,address)": "infinite"
					}
				},
				"methodIdentifiers": {
					"add(uint256,uint256,address)": "a9ccdd3f"
				}
			},
			"storageLayout": {
				"storage": [
					{
						"astId": 9,
						"contract": "Encoding_Decoding/EncodeWithSelector.sol:EncodeWithSelector",
						"label": "selector",
						"offset": 0,
						"slot": "0",
						"type": "t_bytes4"
					}
				],
				"types": {
					"t_bytes4": {
						"encoding": "inplace",
						"label": "bytes4",
						"numberOfBytes": "4"
					}
				}
			},
			"userdoc": {
				"kind": "user",
				"methods": {},
				"version": 1
			}
		}
	}
}