{
	"Encoding_Decoding/AbiPacked.sol": {
		"ABIPACKED": {
			"abi": [
				{
					"inputs": [],
					"name": "packed",
					"outputs": [
						{
							"internalType": "bytes",
							"name": "",
							"type": "bytes"
						}
					],
					"stateMutability": "pure",
					"type": "function"
				}
			],
			"devdoc": {
				"kind": "dev",
				"methods": {},
				"version": 1
			},
			"evm": {
				"assembly": "    /* \"Encoding_Decoding/AbiPacked.sol\":62:420  contract ABIPACKED{... */\n  mstore(0x40, 0x80)\n  callvalue\n  dup1\n  iszero\n  tag_1\n  jumpi\n  0x00\n  dup1\n  revert\ntag_1:\n  pop\n  dataSize(sub_0)\n  dup1\n  dataOffset(sub_0)\n  0x00\n  codecopy\n  0x00\n  return\nstop\n\nsub_0: assembly {\n        /* \"Encoding_Decoding/AbiPacked.sol\":62:420  contract ABIPACKED{... */\n      mstore(0x40, 0x80)\n      callvalue\n      dup1\n      iszero\n      tag_1\n      jumpi\n      0x00\n      dup1\n      revert\n    tag_1:\n      pop\n      jumpi(tag_2, lt(calldatasize, 0x04))\n      shr(0xe0, calldataload(0x00))\n      dup1\n      0x8f23d5f6\n      eq\n      tag_3\n      jumpi\n    tag_2:\n      0x00\n      dup1\n      revert\n        /* \"Encoding_Decoding/AbiPacked.sol\":87:249  function packed() public pure returns(bytes memory){... */\n    tag_3:\n      tag_4\n      tag_5\n      jump\t// in\n    tag_4:\n      mload(0x40)\n      tag_6\n      swap2\n      swap1\n      tag_7\n      jump\t// in\n    tag_6:\n      mload(0x40)\n      dup1\n      swap2\n      sub\n      swap1\n      return\n    tag_5:\n        /* \"Encoding_Decoding/AbiPacked.sol\":125:137  bytes memory */\n      0x60\n        /* \"Encoding_Decoding/AbiPacked.sol\":149:160  uint256 age */\n      0x00\n        /* \"Encoding_Decoding/AbiPacked.sol\":161:163  16 */\n      0x10\n        /* \"Encoding_Decoding/AbiPacked.sol\":149:163  uint256 age=16 */\n      swap1\n      pop\n        /* \"Encoding_Decoding/AbiPacked.sol\":174:190  bytes memory pac */\n      0x00\n        /* \"Encoding_Decoding/AbiPacked.sol\":208:211  age */\n      dup2\n        /* \"Encoding_Decoding/AbiPacked.sol\":191:220  abi.encodePacked(age,\"Hello\") */\n      add(0x20, mload(0x40))\n      tag_9\n      swap2\n      swap1\n      tag_10\n      jump\t// in\n    tag_9:\n      mload(0x40)\n      0x20\n      dup2\n      dup4\n      sub\n      sub\n      dup2\n      mstore\n      swap1\n      0x40\n      mstore\n        /* \"Encoding_Decoding/AbiPacked.sol\":174:220  bytes memory pac=abi.encodePacked(age,\"Hello\") */\n      swap1\n      pop\n        /* \"Encoding_Decoding/AbiPacked.sol\":238:241  pac */\n      dup1\n        /* \"Encoding_Decoding/AbiPacked.sol\":231:241  return pac */\n      swap3\n      pop\n      pop\n      pop\n        /* \"Encoding_Decoding/AbiPacked.sol\":87:249  function packed() public pure returns(bytes memory){... */\n      swap1\n      jump\t// out\n        /* \"#utility.yul\":7:105   */\n    tag_11:\n        /* \"#utility.yul\":58:64   */\n      0x00\n        /* \"#utility.yul\":92:97   */\n      dup2\n        /* \"#utility.yul\":86:98   */\n      mload\n        /* \"#utility.yul\":76:98   */\n      swap1\n      pop\n        /* \"#utility.yul\":7:105   */\n      swap2\n      swap1\n      pop\n      jump\t// out\n        /* \"#utility.yul\":111:279   */\n    tag_12:\n        /* \"#utility.yul\":194:205   */\n      0x00\n        /* \"#utility.yul\":228:234   */\n      dup3\n        /* \"#utility.yul\":223:226   */\n      dup3\n        /* \"#utility.yul\":216:235   */\n      mstore\n        /* \"#utility.yul\":268:272   */\n      0x20\n        /* \"#utility.yul\":263:266   */\n      dup3\n        /* \"#utility.yul\":259:273   */\n      add\n        /* \"#utility.yul\":244:273   */\n      swap1\n      pop\n        /* \"#utility.yul\":111:279   */\n      swap3\n      swap2\n      pop\n      pop\n      jump\t// out\n        /* \"#utility.yul\":285:531   */\n    tag_13:\n        /* \"#utility.yul\":366:367   */\n      0x00\n        /* \"#utility.yul\":376:489   */\n    tag_26:\n        /* \"#utility.yul\":390:396   */\n      dup4\n        /* \"#utility.yul\":387:388   */\n      dup2\n        /* \"#utility.yul\":384:397   */\n      lt\n        /* \"#utility.yul\":376:489   */\n      iszero\n      tag_28\n      jumpi\n        /* \"#utility.yul\":475:476   */\n      dup1\n        /* \"#utility.yul\":470:473   */\n      dup3\n        /* \"#utility.yul\":466:477   */\n      add\n        /* \"#utility.yul\":460:478   */\n      mload\n        /* \"#utility.yul\":456:457   */\n      dup2\n        /* \"#utility.yul\":451:454   */\n      dup5\n        /* \"#utility.yul\":447:458   */\n      add\n        /* \"#utility.yul\":440:479   */\n      mstore\n        /* \"#utility.yul\":412:414   */\n      0x20\n        /* \"#utility.yul\":409:410   */\n      dup2\n        /* \"#utility.yul\":405:415   */\n      add\n        /* \"#utility.yul\":400:415   */\n      swap1\n      pop\n        /* \"#utility.yul\":376:489   */\n      jump(tag_26)\n    tag_28:\n        /* \"#utility.yul\":523:524   */\n      0x00\n        /* \"#utility.yul\":514:520   */\n      dup5\n        /* \"#utility.yul\":509:512   */\n      dup5\n        /* \"#utility.yul\":505:521   */\n      add\n        /* \"#utility.yul\":498:525   */\n      mstore\n        /* \"#utility.yul\":347:531   */\n      pop\n        /* \"#utility.yul\":285:531   */\n      pop\n      pop\n      pop\n      jump\t// out\n        /* \"#utility.yul\":537:639   */\n    tag_14:\n        /* \"#utility.yul\":578:584   */\n      0x00\n        /* \"#utility.yul\":629:631   */\n      0x1f\n        /* \"#utility.yul\":625:632   */\n      not\n        /* \"#utility.yul\":620:622   */\n      0x1f\n        /* \"#utility.yul\":613:618   */\n      dup4\n        /* \"#utility.yul\":609:623   */\n      add\n        /* \"#utility.yul\":605:633   */\n      and\n        /* \"#utility.yul\":595:633   */\n      swap1\n      pop\n        /* \"#utility.yul\":537:639   */\n      swap2\n      swap1\n      pop\n      jump\t// out\n        /* \"#utility.yul\":645:1018   */\n    tag_15:\n        /* \"#utility.yul\":731:734   */\n      0x00\n        /* \"#utility.yul\":759:797   */\n      tag_31\n        /* \"#utility.yul\":791:796   */\n      dup3\n        /* \"#utility.yul\":759:797   */\n      tag_11\n      jump\t// in\n    tag_31:\n        /* \"#utility.yul\":813:883   */\n      tag_32\n        /* \"#utility.yul\":876:882   */\n      dup2\n        /* \"#utility.yul\":871:874   */\n      dup6\n        /* \"#utility.yul\":813:883   */\n      tag_12\n      jump\t// in\n    tag_32:\n        /* \"#utility.yul\":806:883   */\n      swap4\n      pop\n        /* \"#utility.yul\":892:957   */\n      tag_33\n        /* \"#utility.yul\":950:956   */\n      dup2\n        /* \"#utility.yul\":945:948   */\n      dup6\n        /* \"#utility.yul\":938:942   */\n      0x20\n        /* \"#utility.yul\":931:936   */\n      dup7\n        /* \"#utility.yul\":927:943   */\n      add\n        /* \"#utility.yul\":892:957   */\n      tag_13\n      jump\t// in\n    tag_33:\n        /* \"#utility.yul\":982:1011   */\n      tag_34\n        /* \"#utility.yul\":1004:1010   */\n      dup2\n        /* \"#utility.yul\":982:1011   */\n      tag_14\n      jump\t// in\n    tag_34:\n        /* \"#utility.yul\":977:980   */\n      dup5\n        /* \"#utility.yul\":973:1012   */\n      add\n        /* \"#utility.yul\":966:1012   */\n      swap2\n      pop\n        /* \"#utility.yul\":735:1018   */\n      pop\n        /* \"#utility.yul\":645:1018   */\n      swap3\n      swap2\n      pop\n      pop\n      jump\t// out\n        /* \"#utility.yul\":1024:1333   */\n    tag_7:\n        /* \"#utility.yul\":1135:1139   */\n      0x00\n        /* \"#utility.yul\":1173:1175   */\n      0x20\n        /* \"#utility.yul\":1162:1171   */\n      dup3\n        /* \"#utility.yul\":1158:1176   */\n      add\n        /* \"#utility.yul\":1150:1176   */\n      swap1\n      pop\n        /* \"#utility.yul\":1222:1231   */\n      dup2\n        /* \"#utility.yul\":1216:1220   */\n      dup2\n        /* \"#utility.yul\":1212:1232   */\n      sub\n        /* \"#utility.yul\":1208:1209   */\n      0x00\n        /* \"#utility.yul\":1197:1206   */\n      dup4\n        /* \"#utility.yul\":1193:1210   */\n      add\n        /* \"#utility.yul\":1186:1233   */\n      mstore\n        /* \"#utility.yul\":1250:1326   */\n      tag_36\n        /* \"#utility.yul\":1321:1325   */\n      dup2\n        /* \"#utility.yul\":1312:1318   */\n      dup5\n        /* \"#utility.yul\":1250:1326   */\n      tag_15\n      jump\t// in\n    tag_36:\n        /* \"#utility.yul\":1242:1326   */\n      swap1\n      pop\n        /* \"#utility.yul\":1024:1333   */\n      swap3\n      swap2\n      pop\n      pop\n      jump\t// out\n        /* \"#utility.yul\":1339:1416   */\n    tag_16:\n        /* \"#utility.yul\":1376:1383   */\n      0x00\n        /* \"#utility.yul\":1405:1410   */\n      dup2\n        /* \"#utility.yul\":1394:1410   */\n      swap1\n      pop\n        /* \"#utility.yul\":1339:1416   */\n      swap2\n      swap1\n      pop\n      jump\t// out\n        /* \"#utility.yul\":1422:1501   */\n    tag_17:\n        /* \"#utility.yul\":1461:1468   */\n      0x00\n        /* \"#utility.yul\":1490:1495   */\n      dup2\n        /* \"#utility.yul\":1479:1495   */\n      swap1\n      pop\n        /* \"#utility.yul\":1422:1501   */\n      swap2\n      swap1\n      pop\n      jump\t// out\n        /* \"#utility.yul\":1507:1664   */\n    tag_18:\n        /* \"#utility.yul\":1612:1657   */\n      tag_40\n        /* \"#utility.yul\":1632:1656   */\n      tag_41\n        /* \"#utility.yul\":1650:1655   */\n      dup3\n        /* \"#utility.yul\":1632:1656   */\n      tag_16\n      jump\t// in\n    tag_41:\n        /* \"#utility.yul\":1612:1657   */\n      tag_17\n      jump\t// in\n    tag_40:\n        /* \"#utility.yul\":1607:1610   */\n      dup3\n        /* \"#utility.yul\":1600:1658   */\n      mstore\n        /* \"#utility.yul\":1507:1664   */\n      pop\n      pop\n      jump\t// out\n        /* \"#utility.yul\":1670:1818   */\n    tag_19:\n        /* \"#utility.yul\":1772:1783   */\n      0x00\n        /* \"#utility.yul\":1809:1812   */\n      dup2\n        /* \"#utility.yul\":1794:1812   */\n      swap1\n      pop\n        /* \"#utility.yul\":1670:1818   */\n      swap3\n      swap2\n      pop\n      pop\n      jump\t// out\n        /* \"#utility.yul\":1824:1979   */\n    tag_20:\n        /* \"#utility.yul\":1964:1971   */\n      0x48656c6c6f000000000000000000000000000000000000000000000000000000\n        /* \"#utility.yul\":1960:1961   */\n      0x00\n        /* \"#utility.yul\":1952:1958   */\n      dup3\n        /* \"#utility.yul\":1948:1962   */\n      add\n        /* \"#utility.yul\":1941:1972   */\n      mstore\n        /* \"#utility.yul\":1824:1979   */\n      pop\n      jump\t// out\n        /* \"#utility.yul\":1985:2385   */\n    tag_21:\n        /* \"#utility.yul\":2145:2148   */\n      0x00\n        /* \"#utility.yul\":2166:2250   */\n      tag_45\n        /* \"#utility.yul\":2248:2249   */\n      0x05\n        /* \"#utility.yul\":2243:2246   */\n      dup4\n        /* \"#utility.yul\":2166:2250   */\n      tag_19\n      jump\t// in\n    tag_45:\n        /* \"#utility.yul\":2159:2250   */\n      swap2\n      pop\n        /* \"#utility.yul\":2259:2352   */\n      tag_46\n        /* \"#utility.yul\":2348:2351   */\n      dup3\n        /* \"#utility.yul\":2259:2352   */\n      tag_20\n      jump\t// in\n    tag_46:\n        /* \"#utility.yul\":2377:2378   */\n      0x05\n        /* \"#utility.yul\":2372:2375   */\n      dup3\n        /* \"#utility.yul\":2368:2379   */\n      add\n        /* \"#utility.yul\":2361:2379   */\n      swap1\n      pop\n        /* \"#utility.yul\":1985:2385   */\n      swap2\n      swap1\n      pop\n      jump\t// out\n        /* \"#utility.yul\":2391:2913   */\n    tag_10:\n        /* \"#utility.yul\":2604:2607   */\n      0x00\n        /* \"#utility.yul\":2619:2694   */\n      tag_48\n        /* \"#utility.yul\":2690:2693   */\n      dup3\n        /* \"#utility.yul\":2681:2687   */\n      dup5\n        /* \"#utility.yul\":2619:2694   */\n      tag_18\n      jump\t// in\n    tag_48:\n        /* \"#utility.yul\":2719:2721   */\n      0x20\n        /* \"#utility.yul\":2714:2717   */\n      dup3\n        /* \"#utility.yul\":2710:2722   */\n      add\n        /* \"#utility.yul\":2703:2722   */\n      swap2\n      pop\n        /* \"#utility.yul\":2739:2887   */\n      tag_49\n        /* \"#utility.yul\":2883:2886   */\n      dup3\n        /* \"#utility.yul\":2739:2887   */\n      tag_21\n      jump\t// in\n    tag_49:\n        /* \"#utility.yul\":2732:2887   */\n      swap2\n      pop\n        /* \"#utility.yul\":2904:2907   */\n      dup2\n        /* \"#utility.yul\":2897:2907   */\n      swap1\n      pop\n        /* \"#utility.yul\":2391:2913   */\n      swap3\n      swap2\n      pop\n      pop\n      jump\t// out\n\n    auxdata: 0xa2646970667358221220d4e080447f4fde54f8f6bdd14c91e175e9d44744f3359c1704a9856037b7a50264736f6c63430008180033\n}\n",
				"bytecode": {
					"linkReferences": {},
					"object": "608060405234801561000f575f80fd5b506101ff8061001d5f395ff3fe608060405234801561000f575f80fd5b5060043610610029575f3560e01c80638f23d5f61461002d575b5f80fd5b61003561004b565b6040516100429190610107565b60405180910390f35b60605f601090505f8160405160200161006491906101a4565b6040516020818303038152906040529050809250505090565b5f81519050919050565b5f82825260208201905092915050565b5f5b838110156100b4578082015181840152602081019050610099565b5f8484015250505050565b5f601f19601f8301169050919050565b5f6100d98261007d565b6100e38185610087565b93506100f3818560208601610097565b6100fc816100bf565b840191505092915050565b5f6020820190508181035f83015261011f81846100cf565b905092915050565b5f819050919050565b5f819050919050565b61014a61014582610127565b610130565b82525050565b5f81905092915050565b7f48656c6c6f0000000000000000000000000000000000000000000000000000005f82015250565b5f61018e600583610150565b91506101998261015a565b600582019050919050565b5f6101af8284610139565b6020820191506101be82610182565b91508190509291505056fea2646970667358221220d4e080447f4fde54f8f6bdd14c91e175e9d44744f3359c1704a9856037b7a50264736f6c63430008180033",
					"opcodes": "PUSH1 0x80 PUSH1 0x40 MSTORE CALLVALUE DUP1 ISZERO PUSH2 0xF JUMPI PUSH0 DUP1 REVERT JUMPDEST POP PUSH2 0x1FF DUP1 PUSH2 0x1D PUSH0 CODECOPY PUSH0 RETURN INVALID PUSH1 0x80 PUSH1 0x40 MSTORE CALLVALUE DUP1 ISZERO PUSH2 0xF JUMPI PUSH0 DUP1 REVERT JUMPDEST POP PUSH1 0x4 CALLDATASIZE LT PUSH2 0x29 JUMPI PUSH0 CALLDATALOAD PUSH1 0xE0 SHR DUP1 PUSH4 0x8F23D5F6 EQ PUSH2 0x2D JUMPI JUMPDEST PUSH0 DUP1 REVERT JUMPDEST PUSH2 0x35 PUSH2 0x4B JUMP JUMPDEST PUSH1 0x40 MLOAD PUSH2 0x42 SWAP2 SWAP1 PUSH2 0x107 JUMP JUMPDEST PUSH1 0x40 MLOAD DUP1 SWAP2 SUB SWAP1 RETURN JUMPDEST PUSH1 0x60 PUSH0 PUSH1 0x10 SWAP1 POP PUSH0 DUP2 PUSH1 0x40 MLOAD PUSH1 0x20 ADD PUSH2 0x64 SWAP2 SWAP1 PUSH2 0x1A4 JUMP JUMPDEST PUSH1 0x40 MLOAD PUSH1 0x20 DUP2 DUP4 SUB SUB DUP2 MSTORE SWAP1 PUSH1 0x40 MSTORE SWAP1 POP DUP1 SWAP3 POP POP POP SWAP1 JUMP JUMPDEST PUSH0 DUP2 MLOAD SWAP1 POP SWAP2 SWAP1 POP JUMP JUMPDEST PUSH0 DUP3 DUP3 MSTORE PUSH1 0x20 DUP3 ADD SWAP1 POP SWAP3 SWAP2 POP POP JUMP JUMPDEST PUSH0 JUMPDEST DUP4 DUP2 LT ISZERO PUSH2 0xB4 JUMPI DUP1 DUP3 ADD MLOAD DUP2 DUP5 ADD MSTORE PUSH1 0x20 DUP2 ADD SWAP1 POP PUSH2 0x99 JUMP JUMPDEST PUSH0 DUP5 DUP5 ADD MSTORE POP POP POP POP JUMP JUMPDEST PUSH0 PUSH1 0x1F NOT PUSH1 0x1F DUP4 ADD AND SWAP1 POP SWAP2 SWAP1 POP JUMP JUMPDEST PUSH0 PUSH2 0xD9 DUP3 PUSH2 0x7D JUMP JUMPDEST PUSH2 0xE3 DUP2 DUP6 PUSH2 0x87 JUMP JUMPDEST SWAP4 POP PUSH2 0xF3 DUP2 DUP6 PUSH1 0x20 DUP7 ADD PUSH2 0x97 JUMP JUMPDEST PUSH2 0xFC DUP2 PUSH2 0xBF JUMP JUMPDEST DUP5 ADD SWAP2 POP POP SWAP3 SWAP2 POP POP JUMP JUMPDEST PUSH0 PUSH1 0x20 DUP3 ADD SWAP1 POP DUP2 DUP2 SUB PUSH0 DUP4 ADD MSTORE PUSH2 0x11F DUP2 DUP5 PUSH2 0xCF JUMP JUMPDEST SWAP1 POP SWAP3 SWAP2 POP POP JUMP JUMPDEST PUSH0 DUP2 SWAP1 POP SWAP2 SWAP1 POP JUMP JUMPDEST PUSH0 DUP2 SWAP1 POP SWAP2 SWAP1 POP JUMP JUMPDEST PUSH2 0x14A PUSH2 0x145 DUP3 PUSH2 0x127 JUMP JUMPDEST PUSH2 0x130 JUMP JUMPDEST DUP3 MSTORE POP POP JUMP JUMPDEST PUSH0 DUP2 SWAP1 POP SWAP3 SWAP2 POP POP JUMP JUMPDEST PUSH32 0x48656C6C6F000000000000000000000000000000000000000000000000000000 PUSH0 DUP3 ADD MSTORE POP JUMP JUMPDEST PUSH0 PUSH2 0x18E PUSH1 0x5 DUP4 PUSH2 0x150 JUMP JUMPDEST SWAP2 POP PUSH2 0x199 DUP3 PUSH2 0x15A JUMP JUMPDEST PUSH1 0x5 DUP3 ADD SWAP1 POP SWAP2 SWAP1 POP JUMP JUMPDEST PUSH0 PUSH2 0x1AF DUP3 DUP5 PUSH2 0x139 JUMP JUMPDEST PUSH1 0x20 DUP3 ADD SWAP2 POP PUSH2 0x1BE DUP3 PUSH2 0x182 JUMP JUMPDEST SWAP2 POP DUP2 SWAP1 POP SWAP3 SWAP2 POP POP JUMP INVALID LOG2 PUSH5 0x6970667358 0x22 SLT KECCAK256 0xD4 0xE0 DUP1 PREVRANDAO PUSH32 0x4FDE54F8F6BDD14C91E175E9D44744F3359C1704A9856037B7A50264736F6C63 NUMBER STOP ADDMOD XOR STOP CALLER "
				},
				"gasEstimates": {
					"creation": {
						"codeDepositCost": "102200",
						"executionCost": "145",
						"totalCost": "102345"
					},
					"external": {
						"packed()": "infinite"
					}
				},
				"methodIdentifiers": {
					"packed()": "8f23d5f6"
				}
			},
			"storageLayout": {
				"storage": [],
				"types": null
			},
			"userdoc": {
				"kind": "user",
				"methods": {},
				"version": 1
			}
		}
	}
}