{
	"Encoding_Decoding/EncodeDecode.sol": {
		"EncodeDecode": {
			"abi": [
				{
					"inputs": [
						{
							"internalType": "bytes",
							"name": "abiEnocde",
							"type": "bytes"
						}
					],
					"name": "decode",
					"outputs": [
						{
							"internalType": "uint256",
							"name": "",
							"type": "uint256"
						},
						{
							"internalType": "string",
							"name": "",
							"type": "string"
						}
					],
					"stateMutability": "pure",
					"type": "function"
				},
				{
					"inputs": [
						{
							"internalType": "uint256",
							"name": "age",
							"type": "uint256"
						},
						{
							"internalType": "string",
							"name": "name",
							"type": "string"
						}
					],
					"name": "encode",
					"outputs": [
						{
							"internalType": "bytes",
							"name": "",
							"type": "bytes"
						}
					],
					"stateMutability": "pure",
					"type": "function"
				}
			],
			"devdoc": {
				"kind": "dev",
				"methods": {},
				"version": 1
			},
			"evm": {
				"assembly": "    /* \"Encoding_Decoding/EncodeDecode.sol\":60:420  contract EncodeDecode{... */\n  mstore(0x40, 0x80)\n  callvalue\n  dup1\n  iszero\n  tag_1\n  jumpi\n  0x00\n  dup1\n  revert\ntag_1:\n  pop\n  dataSize(sub_0)\n  dup1\n  dataOffset(sub_0)\n  0x00\n  codecopy\n  0x00\n  return\nstop\n\nsub_0: assembly {\n        /* \"Encoding_Decoding/EncodeDecode.sol\":60:420  contract EncodeDecode{... */\n      mstore(0x40, 0x80)\n      callvalue\n      dup1\n      iszero\n      tag_1\n      jumpi\n      0x00\n      dup1\n      revert\n    tag_1:\n      pop\n      jumpi(tag_2, lt(calldatasize, 0x04))\n      shr(0xe0, calldataload(0x00))\n      dup1\n      0x73fdd86f\n      eq\n      tag_3\n      jumpi\n      dup1\n      0xe5c5e9a3\n      eq\n      tag_4\n      jumpi\n    tag_2:\n      0x00\n      dup1\n      revert\n        /* \"Encoding_Decoding/EncodeDecode.sol\":88:250  function encode(uint256 age, string memory name) public pure returns(bytes memory) {... */\n    tag_3:\n      tag_5\n      0x04\n      dup1\n      calldatasize\n      sub\n      dup2\n      add\n      swap1\n      tag_6\n      swap2\n      swap1\n      tag_7\n      jump\t// in\n    tag_6:\n      tag_8\n      jump\t// in\n    tag_5:\n      mload(0x40)\n      tag_9\n      swap2\n      swap1\n      tag_10\n      jump\t// in\n    tag_9:\n      mload(0x40)\n      dup1\n      swap2\n      sub\n      swap1\n      return\n        /* \"Encoding_Decoding/EncodeDecode.sol\":258:417  function decode(bytes memory abiEnocde )... */\n    tag_4:\n      tag_11\n      0x04\n      dup1\n      calldatasize\n      sub\n      dup2\n      add\n      swap1\n      tag_12\n      swap2\n      swap1\n      tag_13\n      jump\t// in\n    tag_12:\n      tag_14\n      jump\t// in\n    tag_11:\n      mload(0x40)\n      tag_15\n      swap3\n      swap2\n      swap1\n      tag_16\n      jump\t// in\n    tag_15:\n      mload(0x40)\n      dup1\n      swap2\n      sub\n      swap1\n      return\n        /* \"Encoding_Decoding/EncodeDecode.sol\":88:250  function encode(uint256 age, string memory name) public pure returns(bytes memory) {... */\n    tag_8:\n        /* \"Encoding_Decoding/EncodeDecode.sol\":157:169  bytes memory */\n      0x60\n        /* \"Encoding_Decoding/EncodeDecode.sol\":182:198  bytes memory ABI */\n      0x00\n        /* \"Encoding_Decoding/EncodeDecode.sol\":210:213  age */\n      dup4\n        /* \"Encoding_Decoding/EncodeDecode.sol\":214:218  name */\n      dup4\n        /* \"Encoding_Decoding/EncodeDecode.sol\":199:219  abi.encode(age,name) */\n      add(0x20, mload(0x40))\n      tag_18\n      swap3\n      swap2\n      swap1\n      tag_16\n      jump\t// in\n    tag_18:\n      mload(0x40)\n      0x20\n      dup2\n      dup4\n      sub\n      sub\n      dup2\n      mstore\n      swap1\n      0x40\n      mstore\n        /* \"Encoding_Decoding/EncodeDecode.sol\":182:219  bytes memory ABI=abi.encode(age,name) */\n      swap1\n      pop\n        /* \"Encoding_Decoding/EncodeDecode.sol\":237:240  ABI */\n      dup1\n        /* \"Encoding_Decoding/EncodeDecode.sol\":230:240  return ABI */\n      swap2\n      pop\n      pop\n        /* \"Encoding_Decoding/EncodeDecode.sol\":88:250  function encode(uint256 age, string memory name) public pure returns(bytes memory) {... */\n      swap3\n      swap2\n      pop\n      pop\n      jump\t// out\n        /* \"Encoding_Decoding/EncodeDecode.sol\":258:417  function decode(bytes memory abiEnocde )... */\n    tag_14:\n        /* \"Encoding_Decoding/EncodeDecode.sol\":327:334  uint256 */\n      0x00\n        /* \"Encoding_Decoding/EncodeDecode.sol\":337:350  string memory */\n      0x60\n        /* \"Encoding_Decoding/EncodeDecode.sol\":380:389  abiEnocde */\n      dup3\n        /* \"Encoding_Decoding/EncodeDecode.sol\":369:407  abi.decode(abiEnocde,(uint256,string)) */\n      dup1\n      0x20\n      add\n      swap1\n      mload\n      dup2\n      add\n      swap1\n      tag_20\n      swap2\n      swap1\n      tag_21\n      jump\t// in\n    tag_20:\n        /* \"Encoding_Decoding/EncodeDecode.sol\":362:407  return abi.decode(abiEnocde,(uint256,string)) */\n      swap2\n      pop\n      swap2\n      pop\n        /* \"Encoding_Decoding/EncodeDecode.sol\":258:417  function decode(bytes memory abiEnocde )... */\n      swap2\n      pop\n      swap2\n      jump\t// out\n        /* \"#utility.yul\":7:82   */\n    tag_22:\n        /* \"#utility.yul\":40:46   */\n      0x00\n        /* \"#utility.yul\":73:75   */\n      0x40\n        /* \"#utility.yul\":67:76   */\n      mload\n        /* \"#utility.yul\":57:76   */\n      swap1\n      pop\n        /* \"#utility.yul\":7:82   */\n      swap1\n      jump\t// out\n        /* \"#utility.yul\":88:205   */\n    tag_23:\n        /* \"#utility.yul\":197:198   */\n      0x00\n        /* \"#utility.yul\":194:195   */\n      dup1\n        /* \"#utility.yul\":187:199   */\n      revert\n        /* \"#utility.yul\":211:328   */\n    tag_24:\n        /* \"#utility.yul\":320:321   */\n      0x00\n        /* \"#utility.yul\":317:318   */\n      dup1\n        /* \"#utility.yul\":310:322   */\n      revert\n        /* \"#utility.yul\":334:411   */\n    tag_25:\n        /* \"#utility.yul\":371:378   */\n      0x00\n        /* \"#utility.yul\":400:405   */\n      dup2\n        /* \"#utility.yul\":389:405   */\n      swap1\n      pop\n        /* \"#utility.yul\":334:411   */\n      swap2\n      swap1\n      pop\n      jump\t// out\n        /* \"#utility.yul\":417:539   */\n    tag_26:\n        /* \"#utility.yul\":490:514   */\n      tag_58\n        /* \"#utility.yul\":508:513   */\n      dup2\n        /* \"#utility.yul\":490:514   */\n      tag_25\n      jump\t// in\n    tag_58:\n        /* \"#utility.yul\":483:488   */\n      dup2\n        /* \"#utility.yul\":480:515   */\n      eq\n        /* \"#utility.yul\":470:533   */\n      tag_59\n      jumpi\n        /* \"#utility.yul\":529:530   */\n      0x00\n        /* \"#utility.yul\":526:527   */\n      dup1\n        /* \"#utility.yul\":519:531   */\n      revert\n        /* \"#utility.yul\":470:533   */\n    tag_59:\n        /* \"#utility.yul\":417:539   */\n      pop\n      jump\t// out\n        /* \"#utility.yul\":545:684   */\n    tag_27:\n        /* \"#utility.yul\":591:596   */\n      0x00\n        /* \"#utility.yul\":629:635   */\n      dup2\n        /* \"#utility.yul\":616:636   */\n      calldataload\n        /* \"#utility.yul\":607:636   */\n      swap1\n      pop\n        /* \"#utility.yul\":645:678   */\n      tag_61\n        /* \"#utility.yul\":672:677   */\n      dup2\n        /* \"#utility.yul\":645:678   */\n      tag_26\n      jump\t// in\n    tag_61:\n        /* \"#utility.yul\":545:684   */\n      swap3\n      swap2\n      pop\n      pop\n      jump\t// out\n        /* \"#utility.yul\":690:807   */\n    tag_28:\n        /* \"#utility.yul\":799:800   */\n      0x00\n        /* \"#utility.yul\":796:797   */\n      dup1\n        /* \"#utility.yul\":789:801   */\n      revert\n        /* \"#utility.yul\":813:930   */\n    tag_29:\n        /* \"#utility.yul\":922:923   */\n      0x00\n        /* \"#utility.yul\":919:920   */\n      dup1\n        /* \"#utility.yul\":912:924   */\n      revert\n        /* \"#utility.yul\":936:1038   */\n    tag_30:\n        /* \"#utility.yul\":977:983   */\n      0x00\n        /* \"#utility.yul\":1028:1030   */\n      0x1f\n        /* \"#utility.yul\":1024:1031   */\n      not\n        /* \"#utility.yul\":1019:1021   */\n      0x1f\n        /* \"#utility.yul\":1012:1017   */\n      dup4\n        /* \"#utility.yul\":1008:1022   */\n      add\n        /* \"#utility.yul\":1004:1032   */\n      and\n        /* \"#utility.yul\":994:1032   */\n      swap1\n      pop\n        /* \"#utility.yul\":936:1038   */\n      swap2\n      swap1\n      pop\n      jump\t// out\n        /* \"#utility.yul\":1044:1224   */\n    tag_31:\n        /* \"#utility.yul\":1092:1169   */\n      0x4e487b7100000000000000000000000000000000000000000000000000000000\n        /* \"#utility.yul\":1089:1090   */\n      0x00\n        /* \"#utility.yul\":1082:1170   */\n      mstore\n        /* \"#utility.yul\":1189:1193   */\n      0x41\n        /* \"#utility.yul\":1186:1187   */\n      0x04\n        /* \"#utility.yul\":1179:1194   */\n      mstore\n        /* \"#utility.yul\":1213:1217   */\n      0x24\n        /* \"#utility.yul\":1210:1211   */\n      0x00\n        /* \"#utility.yul\":1203:1218   */\n      revert\n        /* \"#utility.yul\":1230:1511   */\n    tag_32:\n        /* \"#utility.yul\":1313:1340   */\n      tag_67\n        /* \"#utility.yul\":1335:1339   */\n      dup3\n        /* \"#utility.yul\":1313:1340   */\n      tag_30\n      jump\t// in\n    tag_67:\n        /* \"#utility.yul\":1305:1311   */\n      dup2\n        /* \"#utility.yul\":1301:1341   */\n      add\n        /* \"#utility.yul\":1443:1449   */\n      dup2\n        /* \"#utility.yul\":1431:1441   */\n      dup2\n        /* \"#utility.yul\":1428:1450   */\n      lt\n        /* \"#utility.yul\":1407:1425   */\n      0xffffffffffffffff\n        /* \"#utility.yul\":1395:1405   */\n      dup3\n        /* \"#utility.yul\":1392:1426   */\n      gt\n        /* \"#utility.yul\":1389:1451   */\n      or\n        /* \"#utility.yul\":1386:1474   */\n      iszero\n      tag_68\n      jumpi\n        /* \"#utility.yul\":1454:1472   */\n      tag_69\n      tag_31\n      jump\t// in\n    tag_69:\n        /* \"#utility.yul\":1386:1474   */\n    tag_68:\n        /* \"#utility.yul\":1494:1504   */\n      dup1\n        /* \"#utility.yul\":1490:1492   */\n      0x40\n        /* \"#utility.yul\":1483:1505   */\n      mstore\n        /* \"#utility.yul\":1273:1511   */\n      pop\n        /* \"#utility.yul\":1230:1511   */\n      pop\n      pop\n      jump\t// out\n        /* \"#utility.yul\":1517:1646   */\n    tag_33:\n        /* \"#utility.yul\":1551:1557   */\n      0x00\n        /* \"#utility.yul\":1578:1598   */\n      tag_71\n      tag_22\n      jump\t// in\n    tag_71:\n        /* \"#utility.yul\":1568:1598   */\n      swap1\n      pop\n        /* \"#utility.yul\":1607:1640   */\n      tag_72\n        /* \"#utility.yul\":1635:1639   */\n      dup3\n        /* \"#utility.yul\":1627:1633   */\n      dup3\n        /* \"#utility.yul\":1607:1640   */\n      tag_32\n      jump\t// in\n    tag_72:\n        /* \"#utility.yul\":1517:1646   */\n      swap2\n      swap1\n      pop\n      jump\t// out\n        /* \"#utility.yul\":1652:1960   */\n    tag_34:\n        /* \"#utility.yul\":1714:1718   */\n      0x00\n        /* \"#utility.yul\":1804:1822   */\n      0xffffffffffffffff\n        /* \"#utility.yul\":1796:1802   */\n      dup3\n        /* \"#utility.yul\":1793:1823   */\n      gt\n        /* \"#utility.yul\":1790:1846   */\n      iszero\n      tag_74\n      jumpi\n        /* \"#utility.yul\":1826:1844   */\n      tag_75\n      tag_31\n      jump\t// in\n    tag_75:\n        /* \"#utility.yul\":1790:1846   */\n    tag_74:\n        /* \"#utility.yul\":1864:1893   */\n      tag_76\n        /* \"#utility.yul\":1886:1892   */\n      dup3\n        /* \"#utility.yul\":1864:1893   */\n      tag_30\n      jump\t// in\n    tag_76:\n        /* \"#utility.yul\":1856:1893   */\n      swap1\n      pop\n        /* \"#utility.yul\":1948:1952   */\n      0x20\n        /* \"#utility.yul\":1942:1946   */\n      dup2\n        /* \"#utility.yul\":1938:1953   */\n      add\n        /* \"#utility.yul\":1930:1953   */\n      swap1\n      pop\n        /* \"#utility.yul\":1652:1960   */\n      swap2\n      swap1\n      pop\n      jump\t// out\n        /* \"#utility.yul\":1966:2112   */\n    tag_35:\n        /* \"#utility.yul\":2063:2069   */\n      dup3\n        /* \"#utility.yul\":2058:2061   */\n      dup2\n        /* \"#utility.yul\":2053:2056   */\n      dup4\n        /* \"#utility.yul\":2040:2070   */\n      calldatacopy\n        /* \"#utility.yul\":2104:2105   */\n      0x00\n        /* \"#utility.yul\":2095:2101   */\n      dup4\n        /* \"#utility.yul\":2090:2093   */\n      dup4\n        /* \"#utility.yul\":2086:2102   */\n      add\n        /* \"#utility.yul\":2079:2106   */\n      mstore\n        /* \"#utility.yul\":1966:2112   */\n      pop\n      pop\n      pop\n      jump\t// out\n        /* \"#utility.yul\":2118:2543   */\n    tag_36:\n        /* \"#utility.yul\":2196:2201   */\n      0x00\n        /* \"#utility.yul\":2221:2287   */\n      tag_79\n        /* \"#utility.yul\":2237:2286   */\n      tag_80\n        /* \"#utility.yul\":2279:2285   */\n      dup5\n        /* \"#utility.yul\":2237:2286   */\n      tag_34\n      jump\t// in\n    tag_80:\n        /* \"#utility.yul\":2221:2287   */\n      tag_33\n      jump\t// in\n    tag_79:\n        /* \"#utility.yul\":2212:2287   */\n      swap1\n      pop\n        /* \"#utility.yul\":2310:2316   */\n      dup3\n        /* \"#utility.yul\":2303:2308   */\n      dup2\n        /* \"#utility.yul\":2296:2317   */\n      mstore\n        /* \"#utility.yul\":2348:2352   */\n      0x20\n        /* \"#utility.yul\":2341:2346   */\n      dup2\n        /* \"#utility.yul\":2337:2353   */\n      add\n        /* \"#utility.yul\":2386:2389   */\n      dup5\n        /* \"#utility.yul\":2377:2383   */\n      dup5\n        /* \"#utility.yul\":2372:2375   */\n      dup5\n        /* \"#utility.yul\":2368:2384   */\n      add\n        /* \"#utility.yul\":2365:2390   */\n      gt\n        /* \"#utility.yul\":2362:2474   */\n      iszero\n      tag_81\n      jumpi\n        /* \"#utility.yul\":2393:2472   */\n      tag_82\n      tag_29\n      jump\t// in\n    tag_82:\n        /* \"#utility.yul\":2362:2474   */\n    tag_81:\n        /* \"#utility.yul\":2483:2537   */\n      tag_83\n        /* \"#utility.yul\":2530:2536   */\n      dup5\n        /* \"#utility.yul\":2525:2528   */\n      dup3\n        /* \"#utility.yul\":2520:2523   */\n      dup6\n        /* \"#utility.yul\":2483:2537   */\n      tag_35\n      jump\t// in\n    tag_83:\n        /* \"#utility.yul\":2202:2543   */\n      pop\n        /* \"#utility.yul\":2118:2543   */\n      swap4\n      swap3\n      pop\n      pop\n      pop\n      jump\t// out\n        /* \"#utility.yul\":2563:2903   */\n    tag_37:\n        /* \"#utility.yul\":2619:2624   */\n      0x00\n        /* \"#utility.yul\":2668:2671   */\n      dup3\n        /* \"#utility.yul\":2661:2665   */\n      0x1f\n        /* \"#utility.yul\":2653:2659   */\n      dup4\n        /* \"#utility.yul\":2649:2666   */\n      add\n        /* \"#utility.yul\":2645:2672   */\n      slt\n        /* \"#utility.yul\":2635:2757   */\n      tag_85\n      jumpi\n        /* \"#utility.yul\":2676:2755   */\n      tag_86\n      tag_28\n      jump\t// in\n    tag_86:\n        /* \"#utility.yul\":2635:2757   */\n    tag_85:\n        /* \"#utility.yul\":2793:2799   */\n      dup2\n        /* \"#utility.yul\":2780:2800   */\n      calldataload\n        /* \"#utility.yul\":2818:2897   */\n      tag_87\n        /* \"#utility.yul\":2893:2896   */\n      dup5\n        /* \"#utility.yul\":2885:2891   */\n      dup3\n        /* \"#utility.yul\":2878:2882   */\n      0x20\n        /* \"#utility.yul\":2870:2876   */\n      dup7\n        /* \"#utility.yul\":2866:2883   */\n      add\n        /* \"#utility.yul\":2818:2897   */\n      tag_36\n      jump\t// in\n    tag_87:\n        /* \"#utility.yul\":2809:2897   */\n      swap2\n      pop\n        /* \"#utility.yul\":2625:2903   */\n      pop\n        /* \"#utility.yul\":2563:2903   */\n      swap3\n      swap2\n      pop\n      pop\n      jump\t// out\n        /* \"#utility.yul\":2909:3563   */\n    tag_7:\n        /* \"#utility.yul\":2987:2993   */\n      0x00\n        /* \"#utility.yul\":2995:3001   */\n      dup1\n        /* \"#utility.yul\":3044:3046   */\n      0x40\n        /* \"#utility.yul\":3032:3041   */\n      dup4\n        /* \"#utility.yul\":3023:3030   */\n      dup6\n        /* \"#utility.yul\":3019:3042   */\n      sub\n        /* \"#utility.yul\":3015:3047   */\n      slt\n        /* \"#utility.yul\":3012:3131   */\n      iszero\n      tag_89\n      jumpi\n        /* \"#utility.yul\":3050:3129   */\n      tag_90\n      tag_23\n      jump\t// in\n    tag_90:\n        /* \"#utility.yul\":3012:3131   */\n    tag_89:\n        /* \"#utility.yul\":3170:3171   */\n      0x00\n        /* \"#utility.yul\":3195:3248   */\n      tag_91\n        /* \"#utility.yul\":3240:3247   */\n      dup6\n        /* \"#utility.yul\":3231:3237   */\n      dup3\n        /* \"#utility.yul\":3220:3229   */\n      dup7\n        /* \"#utility.yul\":3216:3238   */\n      add\n        /* \"#utility.yul\":3195:3248   */\n      tag_27\n      jump\t// in\n    tag_91:\n        /* \"#utility.yul\":3185:3248   */\n      swap3\n      pop\n        /* \"#utility.yul\":3141:3258   */\n      pop\n        /* \"#utility.yul\":3325:3327   */\n      0x20\n        /* \"#utility.yul\":3314:3323   */\n      dup4\n        /* \"#utility.yul\":3310:3328   */\n      add\n        /* \"#utility.yul\":3297:3329   */\n      calldataload\n        /* \"#utility.yul\":3356:3374   */\n      0xffffffffffffffff\n        /* \"#utility.yul\":3348:3354   */\n      dup2\n        /* \"#utility.yul\":3345:3375   */\n      gt\n        /* \"#utility.yul\":3342:3459   */\n      iszero\n      tag_92\n      jumpi\n        /* \"#utility.yul\":3378:3457   */\n      tag_93\n      tag_24\n      jump\t// in\n    tag_93:\n        /* \"#utility.yul\":3342:3459   */\n    tag_92:\n        /* \"#utility.yul\":3483:3546   */\n      tag_94\n        /* \"#utility.yul\":3538:3545   */\n      dup6\n        /* \"#utility.yul\":3529:3535   */\n      dup3\n        /* \"#utility.yul\":3518:3527   */\n      dup7\n        /* \"#utility.yul\":3514:3536   */\n      add\n        /* \"#utility.yul\":3483:3546   */\n      tag_37\n      jump\t// in\n    tag_94:\n        /* \"#utility.yul\":3473:3546   */\n      swap2\n      pop\n        /* \"#utility.yul\":3268:3556   */\n      pop\n        /* \"#utility.yul\":2909:3563   */\n      swap3\n      pop\n      swap3\n      swap1\n      pop\n      jump\t// out\n        /* \"#utility.yul\":3569:3667   */\n    tag_38:\n        /* \"#utility.yul\":3620:3626   */\n      0x00\n        /* \"#utility.yul\":3654:3659   */\n      dup2\n        /* \"#utility.yul\":3648:3660   */\n      mload\n        /* \"#utility.yul\":3638:3660   */\n      swap1\n      pop\n        /* \"#utility.yul\":3569:3667   */\n      swap2\n      swap1\n      pop\n      jump\t// out\n        /* \"#utility.yul\":3673:3841   */\n    tag_39:\n        /* \"#utility.yul\":3756:3767   */\n      0x00\n        /* \"#utility.yul\":3790:3796   */\n      dup3\n        /* \"#utility.yul\":3785:3788   */\n      dup3\n        /* \"#utility.yul\":3778:3797   */\n      mstore\n        /* \"#utility.yul\":3830:3834   */\n      0x20\n        /* \"#utility.yul\":3825:3828   */\n      dup3\n        /* \"#utility.yul\":3821:3835   */\n      add\n        /* \"#utility.yul\":3806:3835   */\n      swap1\n      pop\n        /* \"#utility.yul\":3673:3841   */\n      swap3\n      swap2\n      pop\n      pop\n      jump\t// out\n        /* \"#utility.yul\":3847:4093   */\n    tag_40:\n        /* \"#utility.yul\":3928:3929   */\n      0x00\n        /* \"#utility.yul\":3938:4051   */\n    tag_98:\n        /* \"#utility.yul\":3952:3958   */\n      dup4\n        /* \"#utility.yul\":3949:3950   */\n      dup2\n        /* \"#utility.yul\":3946:3959   */\n      lt\n        /* \"#utility.yul\":3938:4051   */\n      iszero\n      tag_100\n      jumpi\n        /* \"#utility.yul\":4037:4038   */\n      dup1\n        /* \"#utility.yul\":4032:4035   */\n      dup3\n        /* \"#utility.yul\":4028:4039   */\n      add\n        /* \"#utility.yul\":4022:4040   */\n      mload\n        /* \"#utility.yul\":4018:4019   */\n      dup2\n        /* \"#utility.yul\":4013:4016   */\n      dup5\n        /* \"#utility.yul\":4009:4020   */\n      add\n        /* \"#utility.yul\":4002:4041   */\n      mstore\n        /* \"#utility.yul\":3974:3976   */\n      0x20\n        /* \"#utility.yul\":3971:3972   */\n      dup2\n        /* \"#utility.yul\":3967:3977   */\n      add\n        /* \"#utility.yul\":3962:3977   */\n      swap1\n      pop\n        /* \"#utility.yul\":3938:4051   */\n      jump(tag_98)\n    tag_100:\n        /* \"#utility.yul\":4085:4086   */\n      0x00\n        /* \"#utility.yul\":4076:4082   */\n      dup5\n        /* \"#utility.yul\":4071:4074   */\n      dup5\n        /* \"#utility.yul\":4067:4083   */\n      add\n        /* \"#utility.yul\":4060:4087   */\n      mstore\n        /* \"#utility.yul\":3909:4093   */\n      pop\n        /* \"#utility.yul\":3847:4093   */\n      pop\n      pop\n      pop\n      jump\t// out\n        /* \"#utility.yul\":4099:4472   */\n    tag_41:\n        /* \"#utility.yul\":4185:4188   */\n      0x00\n        /* \"#utility.yul\":4213:4251   */\n      tag_102\n        /* \"#utility.yul\":4245:4250   */\n      dup3\n        /* \"#utility.yul\":4213:4251   */\n      tag_38\n      jump\t// in\n    tag_102:\n        /* \"#utility.yul\":4267:4337   */\n      tag_103\n        /* \"#utility.yul\":4330:4336   */\n      dup2\n        /* \"#utility.yul\":4325:4328   */\n      dup6\n        /* \"#utility.yul\":4267:4337   */\n      tag_39\n      jump\t// in\n    tag_103:\n        /* \"#utility.yul\":4260:4337   */\n      swap4\n      pop\n        /* \"#utility.yul\":4346:4411   */\n      tag_104\n        /* \"#utility.yul\":4404:4410   */\n      dup2\n        /* \"#utility.yul\":4399:4402   */\n      dup6\n        /* \"#utility.yul\":4392:4396   */\n      0x20\n        /* \"#utility.yul\":4385:4390   */\n      dup7\n        /* \"#utility.yul\":4381:4397   */\n      add\n        /* \"#utility.yul\":4346:4411   */\n      tag_40\n      jump\t// in\n    tag_104:\n        /* \"#utility.yul\":4436:4465   */\n      tag_105\n        /* \"#utility.yul\":4458:4464   */\n      dup2\n        /* \"#utility.yul\":4436:4465   */\n      tag_30\n      jump\t// in\n    tag_105:\n        /* \"#utility.yul\":4431:4434   */\n      dup5\n        /* \"#utility.yul\":4427:4466   */\n      add\n        /* \"#utility.yul\":4420:4466   */\n      swap2\n      pop\n        /* \"#utility.yul\":4189:4472   */\n      pop\n        /* \"#utility.yul\":4099:4472   */\n      swap3\n      swap2\n      pop\n      pop\n      jump\t// out\n        /* \"#utility.yul\":4478:4787   */\n    tag_10:\n        /* \"#utility.yul\":4589:4593   */\n      0x00\n        /* \"#utility.yul\":4627:4629   */\n      0x20\n        /* \"#utility.yul\":4616:4625   */\n      dup3\n        /* \"#utility.yul\":4612:4630   */\n      add\n        /* \"#utility.yul\":4604:4630   */\n      swap1\n      pop\n        /* \"#utility.yul\":4676:4685   */\n      dup2\n        /* \"#utility.yul\":4670:4674   */\n      dup2\n        /* \"#utility.yul\":4666:4686   */\n      sub\n        /* \"#utility.yul\":4662:4663   */\n      0x00\n        /* \"#utility.yul\":4651:4660   */\n      dup4\n        /* \"#utility.yul\":4647:4664   */\n      add\n        /* \"#utility.yul\":4640:4687   */\n      mstore\n        /* \"#utility.yul\":4704:4780   */\n      tag_107\n        /* \"#utility.yul\":4775:4779   */\n      dup2\n        /* \"#utility.yul\":4766:4772   */\n      dup5\n        /* \"#utility.yul\":4704:4780   */\n      tag_41\n      jump\t// in\n    tag_107:\n        /* \"#utility.yul\":4696:4780   */\n      swap1\n      pop\n        /* \"#utility.yul\":4478:4787   */\n      swap3\n      swap2\n      pop\n      pop\n      jump\t// out\n        /* \"#utility.yul\":4793:5100   */\n    tag_42:\n        /* \"#utility.yul\":4854:4858   */\n      0x00\n        /* \"#utility.yul\":4944:4962   */\n      0xffffffffffffffff\n        /* \"#utility.yul\":4936:4942   */\n      dup3\n        /* \"#utility.yul\":4933:4963   */\n      gt\n        /* \"#utility.yul\":4930:4986   */\n      iszero\n      tag_109\n      jumpi\n        /* \"#utility.yul\":4966:4984   */\n      tag_110\n      tag_31\n      jump\t// in\n    tag_110:\n        /* \"#utility.yul\":4930:4986   */\n    tag_109:\n        /* \"#utility.yul\":5004:5033   */\n      tag_111\n        /* \"#utility.yul\":5026:5032   */\n      dup3\n        /* \"#utility.yul\":5004:5033   */\n      tag_30\n      jump\t// in\n    tag_111:\n        /* \"#utility.yul\":4996:5033   */\n      swap1\n      pop\n        /* \"#utility.yul\":5088:5092   */\n      0x20\n        /* \"#utility.yul\":5082:5086   */\n      dup2\n        /* \"#utility.yul\":5078:5093   */\n      add\n        /* \"#utility.yul\":5070:5093   */\n      swap1\n      pop\n        /* \"#utility.yul\":4793:5100   */\n      swap2\n      swap1\n      pop\n      jump\t// out\n        /* \"#utility.yul\":5106:5529   */\n    tag_43:\n        /* \"#utility.yul\":5183:5188   */\n      0x00\n        /* \"#utility.yul\":5208:5273   */\n      tag_113\n        /* \"#utility.yul\":5224:5272   */\n      tag_114\n        /* \"#utility.yul\":5265:5271   */\n      dup5\n        /* \"#utility.yul\":5224:5272   */\n      tag_42\n      jump\t// in\n    tag_114:\n        /* \"#utility.yul\":5208:5273   */\n      tag_33\n      jump\t// in\n    tag_113:\n        /* \"#utility.yul\":5199:5273   */\n      swap1\n      pop\n        /* \"#utility.yul\":5296:5302   */\n      dup3\n        /* \"#utility.yul\":5289:5294   */\n      dup2\n        /* \"#utility.yul\":5282:5303   */\n      mstore\n        /* \"#utility.yul\":5334:5338   */\n      0x20\n        /* \"#utility.yul\":5327:5332   */\n      dup2\n        /* \"#utility.yul\":5323:5339   */\n      add\n        /* \"#utility.yul\":5372:5375   */\n      dup5\n        /* \"#utility.yul\":5363:5369   */\n      dup5\n        /* \"#utility.yul\":5358:5361   */\n      dup5\n        /* \"#utility.yul\":5354:5370   */\n      add\n        /* \"#utility.yul\":5351:5376   */\n      gt\n        /* \"#utility.yul\":5348:5460   */\n      iszero\n      tag_115\n      jumpi\n        /* \"#utility.yul\":5379:5458   */\n      tag_116\n      tag_29\n      jump\t// in\n    tag_116:\n        /* \"#utility.yul\":5348:5460   */\n    tag_115:\n        /* \"#utility.yul\":5469:5523   */\n      tag_117\n        /* \"#utility.yul\":5516:5522   */\n      dup5\n        /* \"#utility.yul\":5511:5514   */\n      dup3\n        /* \"#utility.yul\":5506:5509   */\n      dup6\n        /* \"#utility.yul\":5469:5523   */\n      tag_35\n      jump\t// in\n    tag_117:\n        /* \"#utility.yul\":5189:5529   */\n      pop\n        /* \"#utility.yul\":5106:5529   */\n      swap4\n      swap3\n      pop\n      pop\n      pop\n      jump\t// out\n        /* \"#utility.yul\":5548:5886   */\n    tag_44:\n        /* \"#utility.yul\":5603:5608   */\n      0x00\n        /* \"#utility.yul\":5652:5655   */\n      dup3\n        /* \"#utility.yul\":5645:5649   */\n      0x1f\n        /* \"#utility.yul\":5637:5643   */\n      dup4\n        /* \"#utility.yul\":5633:5650   */\n      add\n        /* \"#utility.yul\":5629:5656   */\n      slt\n        /* \"#utility.yul\":5619:5741   */\n      tag_119\n      jumpi\n        /* \"#utility.yul\":5660:5739   */\n      tag_120\n      tag_28\n      jump\t// in\n    tag_120:\n        /* \"#utility.yul\":5619:5741   */\n    tag_119:\n        /* \"#utility.yul\":5777:5783   */\n      dup2\n        /* \"#utility.yul\":5764:5784   */\n      calldataload\n        /* \"#utility.yul\":5802:5880   */\n      tag_121\n        /* \"#utility.yul\":5876:5879   */\n      dup5\n        /* \"#utility.yul\":5868:5874   */\n      dup3\n        /* \"#utility.yul\":5861:5865   */\n      0x20\n        /* \"#utility.yul\":5853:5859   */\n      dup7\n        /* \"#utility.yul\":5849:5866   */\n      add\n        /* \"#utility.yul\":5802:5880   */\n      tag_43\n      jump\t// in\n    tag_121:\n        /* \"#utility.yul\":5793:5880   */\n      swap2\n      pop\n        /* \"#utility.yul\":5609:5886   */\n      pop\n        /* \"#utility.yul\":5548:5886   */\n      swap3\n      swap2\n      pop\n      pop\n      jump\t// out\n        /* \"#utility.yul\":5892:6399   */\n    tag_13:\n        /* \"#utility.yul\":5960:5966   */\n      0x00\n        /* \"#utility.yul\":6009:6011   */\n      0x20\n        /* \"#utility.yul\":5997:6006   */\n      dup3\n        /* \"#utility.yul\":5988:5995   */\n      dup5\n        /* \"#utility.yul\":5984:6007   */\n      sub\n        /* \"#utility.yul\":5980:6012   */\n      slt\n        /* \"#utility.yul\":5977:6096   */\n      iszero\n      tag_123\n      jumpi\n        /* \"#utility.yul\":6015:6094   */\n      tag_124\n      tag_23\n      jump\t// in\n    tag_124:\n        /* \"#utility.yul\":5977:6096   */\n    tag_123:\n        /* \"#utility.yul\":6163:6164   */\n      0x00\n        /* \"#utility.yul\":6152:6161   */\n      dup3\n        /* \"#utility.yul\":6148:6165   */\n      add\n        /* \"#utility.yul\":6135:6166   */\n      calldataload\n        /* \"#utility.yul\":6193:6211   */\n      0xffffffffffffffff\n        /* \"#utility.yul\":6185:6191   */\n      dup2\n        /* \"#utility.yul\":6182:6212   */\n      gt\n        /* \"#utility.yul\":6179:6296   */\n      iszero\n      tag_125\n      jumpi\n        /* \"#utility.yul\":6215:6294   */\n      tag_126\n      tag_24\n      jump\t// in\n    tag_126:\n        /* \"#utility.yul\":6179:6296   */\n    tag_125:\n        /* \"#utility.yul\":6320:6382   */\n      tag_127\n        /* \"#utility.yul\":6374:6381   */\n      dup5\n        /* \"#utility.yul\":6365:6371   */\n      dup3\n        /* \"#utility.yul\":6354:6363   */\n      dup6\n        /* \"#utility.yul\":6350:6372   */\n      add\n        /* \"#utility.yul\":6320:6382   */\n      tag_44\n      jump\t// in\n    tag_127:\n        /* \"#utility.yul\":6310:6382   */\n      swap2\n      pop\n        /* \"#utility.yul\":6106:6392   */\n      pop\n        /* \"#utility.yul\":5892:6399   */\n      swap3\n      swap2\n      pop\n      pop\n      jump\t// out\n        /* \"#utility.yul\":6405:6523   */\n    tag_45:\n        /* \"#utility.yul\":6492:6516   */\n      tag_129\n        /* \"#utility.yul\":6510:6515   */\n      dup2\n        /* \"#utility.yul\":6492:6516   */\n      tag_25\n      jump\t// in\n    tag_129:\n        /* \"#utility.yul\":6487:6490   */\n      dup3\n        /* \"#utility.yul\":6480:6517   */\n      mstore\n        /* \"#utility.yul\":6405:6523   */\n      pop\n      pop\n      jump\t// out\n        /* \"#utility.yul\":6529:6628   */\n    tag_46:\n        /* \"#utility.yul\":6581:6587   */\n      0x00\n        /* \"#utility.yul\":6615:6620   */\n      dup2\n        /* \"#utility.yul\":6609:6621   */\n      mload\n        /* \"#utility.yul\":6599:6621   */\n      swap1\n      pop\n        /* \"#utility.yul\":6529:6628   */\n      swap2\n      swap1\n      pop\n      jump\t// out\n        /* \"#utility.yul\":6634:6803   */\n    tag_47:\n        /* \"#utility.yul\":6718:6729   */\n      0x00\n        /* \"#utility.yul\":6752:6758   */\n      dup3\n        /* \"#utility.yul\":6747:6750   */\n      dup3\n        /* \"#utility.yul\":6740:6759   */\n      mstore\n        /* \"#utility.yul\":6792:6796   */\n      0x20\n        /* \"#utility.yul\":6787:6790   */\n      dup3\n        /* \"#utility.yul\":6783:6797   */\n      add\n        /* \"#utility.yul\":6768:6797   */\n      swap1\n      pop\n        /* \"#utility.yul\":6634:6803   */\n      swap3\n      swap2\n      pop\n      pop\n      jump\t// out\n        /* \"#utility.yul\":6809:7186   */\n    tag_48:\n        /* \"#utility.yul\":6897:6900   */\n      0x00\n        /* \"#utility.yul\":6925:6964   */\n      tag_133\n        /* \"#utility.yul\":6958:6963   */\n      dup3\n        /* \"#utility.yul\":6925:6964   */\n      tag_46\n      jump\t// in\n    tag_133:\n        /* \"#utility.yul\":6980:7051   */\n      tag_134\n        /* \"#utility.yul\":7044:7050   */\n      dup2\n        /* \"#utility.yul\":7039:7042   */\n      dup6\n        /* \"#utility.yul\":6980:7051   */\n      tag_47\n      jump\t// in\n    tag_134:\n        /* \"#utility.yul\":6973:7051   */\n      swap4\n      pop\n        /* \"#utility.yul\":7060:7125   */\n      tag_135\n        /* \"#utility.yul\":7118:7124   */\n      dup2\n        /* \"#utility.yul\":7113:7116   */\n      dup6\n        /* \"#utility.yul\":7106:7110   */\n      0x20\n        /* \"#utility.yul\":7099:7104   */\n      dup7\n        /* \"#utility.yul\":7095:7111   */\n      add\n        /* \"#utility.yul\":7060:7125   */\n      tag_40\n      jump\t// in\n    tag_135:\n        /* \"#utility.yul\":7150:7179   */\n      tag_136\n        /* \"#utility.yul\":7172:7178   */\n      dup2\n        /* \"#utility.yul\":7150:7179   */\n      tag_30\n      jump\t// in\n    tag_136:\n        /* \"#utility.yul\":7145:7148   */\n      dup5\n        /* \"#utility.yul\":7141:7180   */\n      add\n        /* \"#utility.yul\":7134:7180   */\n      swap2\n      pop\n        /* \"#utility.yul\":6901:7186   */\n      pop\n        /* \"#utility.yul\":6809:7186   */\n      swap3\n      swap2\n      pop\n      pop\n      jump\t// out\n        /* \"#utility.yul\":7192:7615   */\n    tag_16:\n        /* \"#utility.yul\":7333:7337   */\n      0x00\n        /* \"#utility.yul\":7371:7373   */\n      0x40\n        /* \"#utility.yul\":7360:7369   */\n      dup3\n        /* \"#utility.yul\":7356:7374   */\n      add\n        /* \"#utility.yul\":7348:7374   */\n      swap1\n      pop\n        /* \"#utility.yul\":7384:7455   */\n      tag_138\n        /* \"#utility.yul\":7452:7453   */\n      0x00\n        /* \"#utility.yul\":7441:7450   */\n      dup4\n        /* \"#utility.yul\":7437:7454   */\n      add\n        /* \"#utility.yul\":7428:7434   */\n      dup6\n        /* \"#utility.yul\":7384:7455   */\n      tag_45\n      jump\t// in\n    tag_138:\n        /* \"#utility.yul\":7502:7511   */\n      dup2\n        /* \"#utility.yul\":7496:7500   */\n      dup2\n        /* \"#utility.yul\":7492:7512   */\n      sub\n        /* \"#utility.yul\":7487:7489   */\n      0x20\n        /* \"#utility.yul\":7476:7485   */\n      dup4\n        /* \"#utility.yul\":7472:7490   */\n      add\n        /* \"#utility.yul\":7465:7513   */\n      mstore\n        /* \"#utility.yul\":7530:7608   */\n      tag_139\n        /* \"#utility.yul\":7603:7607   */\n      dup2\n        /* \"#utility.yul\":7594:7600   */\n      dup5\n        /* \"#utility.yul\":7530:7608   */\n      tag_48\n      jump\t// in\n    tag_139:\n        /* \"#utility.yul\":7522:7608   */\n      swap1\n      pop\n        /* \"#utility.yul\":7192:7615   */\n      swap4\n      swap3\n      pop\n      pop\n      pop\n      jump\t// out\n        /* \"#utility.yul\":7621:7764   */\n    tag_49:\n        /* \"#utility.yul\":7678:7683   */\n      0x00\n        /* \"#utility.yul\":7709:7715   */\n      dup2\n        /* \"#utility.yul\":7703:7716   */\n      mload\n        /* \"#utility.yul\":7694:7716   */\n      swap1\n      pop\n        /* \"#utility.yul\":7725:7758   */\n      tag_141\n        /* \"#utility.yul\":7752:7757   */\n      dup2\n        /* \"#utility.yul\":7725:7758   */\n      tag_26\n      jump\t// in\n    tag_141:\n        /* \"#utility.yul\":7621:7764   */\n      swap3\n      swap2\n      pop\n      pop\n      jump\t// out\n        /* \"#utility.yul\":7770:8204   */\n    tag_50:\n        /* \"#utility.yul\":7859:7864   */\n      0x00\n        /* \"#utility.yul\":7884:7950   */\n      tag_143\n        /* \"#utility.yul\":7900:7949   */\n      tag_144\n        /* \"#utility.yul\":7942:7948   */\n      dup5\n        /* \"#utility.yul\":7900:7949   */\n      tag_34\n      jump\t// in\n    tag_144:\n        /* \"#utility.yul\":7884:7950   */\n      tag_33\n      jump\t// in\n    tag_143:\n        /* \"#utility.yul\":7875:7950   */\n      swap1\n      pop\n        /* \"#utility.yul\":7973:7979   */\n      dup3\n        /* \"#utility.yul\":7966:7971   */\n      dup2\n        /* \"#utility.yul\":7959:7980   */\n      mstore\n        /* \"#utility.yul\":8011:8015   */\n      0x20\n        /* \"#utility.yul\":8004:8009   */\n      dup2\n        /* \"#utility.yul\":8000:8016   */\n      add\n        /* \"#utility.yul\":8049:8052   */\n      dup5\n        /* \"#utility.yul\":8040:8046   */\n      dup5\n        /* \"#utility.yul\":8035:8038   */\n      dup5\n        /* \"#utility.yul\":8031:8047   */\n      add\n        /* \"#utility.yul\":8028:8053   */\n      gt\n        /* \"#utility.yul\":8025:8137   */\n      iszero\n      tag_145\n      jumpi\n        /* \"#utility.yul\":8056:8135   */\n      tag_146\n      tag_29\n      jump\t// in\n    tag_146:\n        /* \"#utility.yul\":8025:8137   */\n    tag_145:\n        /* \"#utility.yul\":8146:8198   */\n      tag_147\n        /* \"#utility.yul\":8191:8197   */\n      dup5\n        /* \"#utility.yul\":8186:8189   */\n      dup3\n        /* \"#utility.yul\":8181:8184   */\n      dup6\n        /* \"#utility.yul\":8146:8198   */\n      tag_40\n      jump\t// in\n    tag_147:\n        /* \"#utility.yul\":7865:8204   */\n      pop\n        /* \"#utility.yul\":7770:8204   */\n      swap4\n      swap3\n      pop\n      pop\n      pop\n      jump\t// out\n        /* \"#utility.yul\":8224:8579   */\n    tag_51:\n        /* \"#utility.yul\":8291:8296   */\n      0x00\n        /* \"#utility.yul\":8340:8343   */\n      dup3\n        /* \"#utility.yul\":8333:8337   */\n      0x1f\n        /* \"#utility.yul\":8325:8331   */\n      dup4\n        /* \"#utility.yul\":8321:8338   */\n      add\n        /* \"#utility.yul\":8317:8344   */\n      slt\n        /* \"#utility.yul\":8307:8429   */\n      tag_149\n      jumpi\n        /* \"#utility.yul\":8348:8427   */\n      tag_150\n      tag_28\n      jump\t// in\n    tag_150:\n        /* \"#utility.yul\":8307:8429   */\n    tag_149:\n        /* \"#utility.yul\":8458:8464   */\n      dup2\n        /* \"#utility.yul\":8452:8465   */\n      mload\n        /* \"#utility.yul\":8483:8573   */\n      tag_151\n        /* \"#utility.yul\":8569:8572   */\n      dup5\n        /* \"#utility.yul\":8561:8567   */\n      dup3\n        /* \"#utility.yul\":8554:8558   */\n      0x20\n        /* \"#utility.yul\":8546:8552   */\n      dup7\n        /* \"#utility.yul\":8542:8559   */\n      add\n        /* \"#utility.yul\":8483:8573   */\n      tag_50\n      jump\t// in\n    tag_151:\n        /* \"#utility.yul\":8474:8573   */\n      swap2\n      pop\n        /* \"#utility.yul\":8297:8579   */\n      pop\n        /* \"#utility.yul\":8224:8579   */\n      swap3\n      swap2\n      pop\n      pop\n      jump\t// out\n        /* \"#utility.yul\":8585:9265   */\n    tag_21:\n        /* \"#utility.yul\":8674:8680   */\n      0x00\n        /* \"#utility.yul\":8682:8688   */\n      dup1\n        /* \"#utility.yul\":8731:8733   */\n      0x40\n        /* \"#utility.yul\":8719:8728   */\n      dup4\n        /* \"#utility.yul\":8710:8717   */\n      dup6\n        /* \"#utility.yul\":8706:8729   */\n      sub\n        /* \"#utility.yul\":8702:8734   */\n      slt\n        /* \"#utility.yul\":8699:8818   */\n      iszero\n      tag_153\n      jumpi\n        /* \"#utility.yul\":8737:8816   */\n      tag_154\n      tag_23\n      jump\t// in\n    tag_154:\n        /* \"#utility.yul\":8699:8818   */\n    tag_153:\n        /* \"#utility.yul\":8857:8858   */\n      0x00\n        /* \"#utility.yul\":8882:8946   */\n      tag_155\n        /* \"#utility.yul\":8938:8945   */\n      dup6\n        /* \"#utility.yul\":8929:8935   */\n      dup3\n        /* \"#utility.yul\":8918:8927   */\n      dup7\n        /* \"#utility.yul\":8914:8936   */\n      add\n        /* \"#utility.yul\":8882:8946   */\n      tag_49\n      jump\t// in\n    tag_155:\n        /* \"#utility.yul\":8872:8946   */\n      swap3\n      pop\n        /* \"#utility.yul\":8828:8956   */\n      pop\n        /* \"#utility.yul\":9016:9018   */\n      0x20\n        /* \"#utility.yul\":9005:9014   */\n      dup4\n        /* \"#utility.yul\":9001:9019   */\n      add\n        /* \"#utility.yul\":8995:9020   */\n      mload\n        /* \"#utility.yul\":9047:9065   */\n      0xffffffffffffffff\n        /* \"#utility.yul\":9039:9045   */\n      dup2\n        /* \"#utility.yul\":9036:9066   */\n      gt\n        /* \"#utility.yul\":9033:9150   */\n      iszero\n      tag_156\n      jumpi\n        /* \"#utility.yul\":9069:9148   */\n      tag_157\n      tag_24\n      jump\t// in\n    tag_157:\n        /* \"#utility.yul\":9033:9150   */\n    tag_156:\n        /* \"#utility.yul\":9174:9248   */\n      tag_158\n        /* \"#utility.yul\":9240:9247   */\n      dup6\n        /* \"#utility.yul\":9231:9237   */\n      dup3\n        /* \"#utility.yul\":9220:9229   */\n      dup7\n        /* \"#utility.yul\":9216:9238   */\n      add\n        /* \"#utility.yul\":9174:9248   */\n      tag_51\n      jump\t// in\n    tag_158:\n        /* \"#utility.yul\":9164:9248   */\n      swap2\n      pop\n        /* \"#utility.yul\":8966:9258   */\n      pop\n        /* \"#utility.yul\":8585:9265   */\n      swap3\n      pop\n      swap3\n      swap1\n      pop\n      jump\t// out\n\n    auxdata: 0xa26469706673582212202c917f9ffb9bab7fe00bdadf9d4610e579ec49596f831e491062980e6bf3e57c64736f6c63430008180033\n}\n",
				"bytecode": {
					"linkReferences": {},
					"object": "608060405234801561000f575f80fd5b506105e48061001d5f395ff3fe608060405234801561000f575f80fd5b5060043610610034575f3560e01c806373fdd86f14610038578063e5c5e9a314610068575b5f80fd5b610052600480360381019061004d919061026a565b610099565b60405161005f919061033e565b60405180910390f35b610082600480360381019061007d91906103fc565b6100ca565b6040516100909291906104a4565b60405180910390f35b60605f83836040516020016100af9291906104a4565b60405160208183030381529060405290508091505092915050565b5f6060828060200190518101906100e19190610554565b91509150915091565b5f604051905090565b5f80fd5b5f80fd5b5f819050919050565b61010d816100fb565b8114610117575f80fd5b50565b5f8135905061012881610104565b92915050565b5f80fd5b5f80fd5b5f601f19601f8301169050919050565b7f4e487b71000000000000000000000000000000000000000000000000000000005f52604160045260245ffd5b61017c82610136565b810181811067ffffffffffffffff8211171561019b5761019a610146565b5b80604052505050565b5f6101ad6100ea565b90506101b98282610173565b919050565b5f67ffffffffffffffff8211156101d8576101d7610146565b5b6101e182610136565b9050602081019050919050565b828183375f83830152505050565b5f61020e610209846101be565b6101a4565b90508281526020810184848401111561022a57610229610132565b5b6102358482856101ee565b509392505050565b5f82601f8301126102515761025061012e565b5b81356102618482602086016101fc565b91505092915050565b5f80604083850312156102805761027f6100f3565b5b5f61028d8582860161011a565b925050602083013567ffffffffffffffff8111156102ae576102ad6100f7565b5b6102ba8582860161023d565b9150509250929050565b5f81519050919050565b5f82825260208201905092915050565b5f5b838110156102fb5780820151818401526020810190506102e0565b5f8484015250505050565b5f610310826102c4565b61031a81856102ce565b935061032a8185602086016102de565b61033381610136565b840191505092915050565b5f6020820190508181035f8301526103568184610306565b905092915050565b5f67ffffffffffffffff82111561037857610377610146565b5b61038182610136565b9050602081019050919050565b5f6103a061039b8461035e565b6101a4565b9050828152602081018484840111156103bc576103bb610132565b5b6103c78482856101ee565b509392505050565b5f82601f8301126103e3576103e261012e565b5b81356103f384826020860161038e565b91505092915050565b5f60208284031215610411576104106100f3565b5b5f82013567ffffffffffffffff81111561042e5761042d6100f7565b5b61043a848285016103cf565b91505092915050565b61044c816100fb565b82525050565b5f81519050919050565b5f82825260208201905092915050565b5f61047682610452565b610480818561045c565b93506104908185602086016102de565b61049981610136565b840191505092915050565b5f6040820190506104b75f830185610443565b81810360208301526104c9818461046c565b90509392505050565b5f815190506104e081610104565b92915050565b5f6104f86104f3846101be565b6101a4565b90508281526020810184848401111561051457610513610132565b5b61051f8482856102de565b509392505050565b5f82601f83011261053b5761053a61012e565b5b815161054b8482602086016104e6565b91505092915050565b5f806040838503121561056a576105696100f3565b5b5f610577858286016104d2565b925050602083015167ffffffffffffffff811115610598576105976100f7565b5b6105a485828601610527565b915050925092905056fea26469706673582212202c917f9ffb9bab7fe00bdadf9d4610e579ec49596f831e491062980e6bf3e57c64736f6c63430008180033",
					"opcodes": "PUSH1 0x80 PUSH1 0x40 MSTORE CALLVALUE DUP1 ISZERO PUSH2 0xF JUMPI PUSH0 DUP1 REVERT JUMPDEST POP PUSH2 0x5E4 DUP1 PUSH2 0x1D PUSH0 CODECOPY PUSH0 RETURN INVALID PUSH1 0x80 PUSH1 0x40 MSTORE CALLVALUE DUP1 ISZERO PUSH2 0xF JUMPI PUSH0 DUP1 REVERT JUMPDEST POP PUSH1 0x4 CALLDATASIZE LT PUSH2 0x34 JUMPI PUSH0 CALLDATALOAD PUSH1 0xE0 SHR DUP1 PUSH4 0x73FDD86F EQ PUSH2 0x38 JUMPI DUP1 PUSH4 0xE5C5E9A3 EQ PUSH2 0x68 JUMPI JUMPDEST PUSH0 DUP1 REVERT JUMPDEST PUSH2 0x52 PUSH1 0x4 DUP1 CALLDATASIZE SUB DUP2 ADD SWAP1 PUSH2 0x4D SWAP2 SWAP1 PUSH2 0x26A JUMP JUMPDEST PUSH2 0x99 JUMP JUMPDEST PUSH1 0x40 MLOAD PUSH2 0x5F SWAP2 SWAP1 PUSH2 0x33E JUMP JUMPDEST PUSH1 0x40 MLOAD DUP1 SWAP2 SUB SWAP1 RETURN JUMPDEST PUSH2 0x82 PUSH1 0x4 DUP1 CALLDATASIZE SUB DUP2 ADD SWAP1 PUSH2 0x7D SWAP2 SWAP1 PUSH2 0x3FC JUMP JUMPDEST PUSH2 0xCA JUMP JUMPDEST PUSH1 0x40 MLOAD PUSH2 0x90 SWAP3 SWAP2 SWAP1 PUSH2 0x4A4 JUMP JUMPDEST PUSH1 0x40 MLOAD DUP1 SWAP2 SUB SWAP1 RETURN JUMPDEST PUSH1 0x60 PUSH0 DUP4 DUP4 PUSH1 0x40 MLOAD PUSH1 0x20 ADD PUSH2 0xAF SWAP3 SWAP2 SWAP1 PUSH2 0x4A4 JUMP JUMPDEST PUSH1 0x40 MLOAD PUSH1 0x20 DUP2 DUP4 SUB SUB DUP2 MSTORE SWAP1 PUSH1 0x40 MSTORE SWAP1 POP DUP1 SWAP2 POP POP SWAP3 SWAP2 POP POP JUMP JUMPDEST PUSH0 PUSH1 0x60 DUP3 DUP1 PUSH1 0x20 ADD SWAP1 MLOAD DUP2 ADD SWAP1 PUSH2 0xE1 SWAP2 SWAP1 PUSH2 0x554 JUMP JUMPDEST SWAP2 POP SWAP2 POP SWAP2 POP SWAP2 JUMP JUMPDEST PUSH0 PUSH1 0x40 MLOAD SWAP1 POP SWAP1 JUMP JUMPDEST PUSH0 DUP1 REVERT JUMPDEST PUSH0 DUP1 REVERT JUMPDEST PUSH0 DUP2 SWAP1 POP SWAP2 SWAP1 POP JUMP JUMPDEST PUSH2 0x10D DUP2 PUSH2 0xFB JUMP JUMPDEST DUP2 EQ PUSH2 0x117 JUMPI PUSH0 DUP1 REVERT JUMPDEST POP JUMP JUMPDEST PUSH0 DUP2 CALLDATALOAD SWAP1 POP PUSH2 0x128 DUP2 PUSH2 0x104 JUMP JUMPDEST SWAP3 SWAP2 POP POP JUMP JUMPDEST PUSH0 DUP1 REVERT JUMPDEST PUSH0 DUP1 REVERT JUMPDEST PUSH0 PUSH1 0x1F NOT PUSH1 0x1F DUP4 ADD AND SWAP1 POP SWAP2 SWAP1 POP JUMP JUMPDEST PUSH32 0x4E487B7100000000000000000000000000000000000000000000000000000000 PUSH0 MSTORE PUSH1 0x41 PUSH1 0x4 MSTORE PUSH1 0x24 PUSH0 REVERT JUMPDEST PUSH2 0x17C DUP3 PUSH2 0x136 JUMP JUMPDEST DUP2 ADD DUP2 DUP2 LT PUSH8 0xFFFFFFFFFFFFFFFF DUP3 GT OR ISZERO PUSH2 0x19B JUMPI PUSH2 0x19A PUSH2 0x146 JUMP JUMPDEST JUMPDEST DUP1 PUSH1 0x40 MSTORE POP POP POP JUMP JUMPDEST PUSH0 PUSH2 0x1AD PUSH2 0xEA JUMP JUMPDEST SWAP1 POP PUSH2 0x1B9 DUP3 DUP3 PUSH2 0x173 JUMP JUMPDEST SWAP2 SWAP1 POP JUMP JUMPDEST PUSH0 PUSH8 0xFFFFFFFFFFFFFFFF DUP3 GT ISZERO PUSH2 0x1D8 JUMPI PUSH2 0x1D7 PUSH2 0x146 JUMP JUMPDEST JUMPDEST PUSH2 0x1E1 DUP3 PUSH2 0x136 JUMP JUMPDEST SWAP1 POP PUSH1 0x20 DUP2 ADD SWAP1 POP SWAP2 SWAP1 POP JUMP JUMPDEST DUP3 DUP2 DUP4 CALLDATACOPY PUSH0 DUP4 DUP4 ADD MSTORE POP POP POP JUMP JUMPDEST PUSH0 PUSH2 0x20E PUSH2 0x209 DUP5 PUSH2 0x1BE JUMP JUMPDEST PUSH2 0x1A4 JUMP JUMPDEST SWAP1 POP DUP3 DUP2 MSTORE PUSH1 0x20 DUP2 ADD DUP5 DUP5 DUP5 ADD GT ISZERO PUSH2 0x22A JUMPI PUSH2 0x229 PUSH2 0x132 JUMP JUMPDEST JUMPDEST PUSH2 0x235 DUP5 DUP3 DUP6 PUSH2 0x1EE JUMP JUMPDEST POP SWAP4 SWAP3 POP POP POP JUMP JUMPDEST PUSH0 DUP3 PUSH1 0x1F DUP4 ADD SLT PUSH2 0x251 JUMPI PUSH2 0x250 PUSH2 0x12E JUMP JUMPDEST JUMPDEST DUP2 CALLDATALOAD PUSH2 0x261 DUP5 DUP3 PUSH1 0x20 DUP7 ADD PUSH2 0x1FC JUMP JUMPDEST SWAP2 POP POP SWAP3 SWAP2 POP POP JUMP JUMPDEST PUSH0 DUP1 PUSH1 0x40 DUP4 DUP6 SUB SLT ISZERO PUSH2 0x280 JUMPI PUSH2 0x27F PUSH2 0xF3 JUMP JUMPDEST JUMPDEST PUSH0 PUSH2 0x28D DUP6 DUP3 DUP7 ADD PUSH2 0x11A JUMP JUMPDEST SWAP3 POP POP PUSH1 0x20 DUP4 ADD CALLDATALOAD PUSH8 0xFFFFFFFFFFFFFFFF DUP2 GT ISZERO PUSH2 0x2AE JUMPI PUSH2 0x2AD PUSH2 0xF7 JUMP JUMPDEST JUMPDEST PUSH2 0x2BA DUP6 DUP3 DUP7 ADD PUSH2 0x23D JUMP JUMPDEST SWAP2 POP POP SWAP3 POP SWAP3 SWAP1 POP JUMP JUMPDEST PUSH0 DUP2 MLOAD SWAP1 POP SWAP2 SWAP1 POP JUMP JUMPDEST PUSH0 DUP3 DUP3 MSTORE PUSH1 0x20 DUP3 ADD SWAP1 POP SWAP3 SWAP2 POP POP JUMP JUMPDEST PUSH0 JUMPDEST DUP4 DUP2 LT ISZERO PUSH2 0x2FB JUMPI DUP1 DUP3 ADD MLOAD DUP2 DUP5 ADD MSTORE PUSH1 0x20 DUP2 ADD SWAP1 POP PUSH2 0x2E0 JUMP JUMPDEST PUSH0 DUP5 DUP5 ADD MSTORE POP POP POP POP JUMP JUMPDEST PUSH0 PUSH2 0x310 DUP3 PUSH2 0x2C4 JUMP JUMPDEST PUSH2 0x31A DUP2 DUP6 PUSH2 0x2CE JUMP JUMPDEST SWAP4 POP PUSH2 0x32A DUP2 DUP6 PUSH1 0x20 DUP7 ADD PUSH2 0x2DE JUMP JUMPDEST PUSH2 0x333 DUP2 PUSH2 0x136 JUMP JUMPDEST DUP5 ADD SWAP2 POP POP SWAP3 SWAP2 POP POP JUMP JUMPDEST PUSH0 PUSH1 0x20 DUP3 ADD SWAP1 POP DUP2 DUP2 SUB PUSH0 DUP4 ADD MSTORE PUSH2 0x356 DUP2 DUP5 PUSH2 0x306 JUMP JUMPDEST SWAP1 POP SWAP3 SWAP2 POP POP JUMP JUMPDEST PUSH0 PUSH8 0xFFFFFFFFFFFFFFFF DUP3 GT ISZERO PUSH2 0x378 JUMPI PUSH2 0x377 PUSH2 0x146 JUMP JUMPDEST JUMPDEST PUSH2 0x381 DUP3 PUSH2 0x136 JUMP JUMPDEST SWAP1 POP PUSH1 0x20 DUP2 ADD SWAP1 POP SWAP2 SWAP1 POP JUMP JUMPDEST PUSH0 PUSH2 0x3A0 PUSH2 0x39B DUP5 PUSH2 0x35E JUMP JUMPDEST PUSH2 0x1A4 JUMP JUMPDEST SWAP1 POP DUP3 DUP2 MSTORE PUSH1 0x20 DUP2 ADD DUP5 DUP5 DUP5 ADD GT ISZERO PUSH2 0x3BC JUMPI PUSH2 0x3BB PUSH2 0x132 JUMP JUMPDEST JUMPDEST PUSH2 0x3C7 DUP5 DUP3 DUP6 PUSH2 0x1EE JUMP JUMPDEST POP SWAP4 SWAP3 POP POP POP JUMP JUMPDEST PUSH0 DUP3 PUSH1 0x1F DUP4 ADD SLT PUSH2 0x3E3 JUMPI PUSH2 0x3E2 PUSH2 0x12E JUMP JUMPDEST JUMPDEST DUP2 CALLDATALOAD PUSH2 0x3F3 DUP5 DUP3 PUSH1 0x20 DUP7 ADD PUSH2 0x38E JUMP JUMPDEST SWAP2 POP POP SWAP3 SWAP2 POP POP JUMP JUMPDEST PUSH0 PUSH1 0x20 DUP3 DUP5 SUB SLT ISZERO PUSH2 0x411 JUMPI PUSH2 0x410 PUSH2 0xF3 JUMP JUMPDEST JUMPDEST PUSH0 DUP3 ADD CALLDATALOAD PUSH8 0xFFFFFFFFFFFFFFFF DUP2 GT ISZERO PUSH2 0x42E JUMPI PUSH2 0x42D PUSH2 0xF7 JUMP JUMPDEST JUMPDEST PUSH2 0x43A DUP5 DUP3 DUP6 ADD PUSH2 0x3CF JUMP JUMPDEST SWAP2 POP POP SWAP3 SWAP2 POP POP JUMP JUMPDEST PUSH2 0x44C DUP2 PUSH2 0xFB JUMP JUMPDEST DUP3 MSTORE POP POP JUMP JUMPDEST PUSH0 DUP2 MLOAD SWAP1 POP SWAP2 SWAP1 POP JUMP JUMPDEST PUSH0 DUP3 DUP3 MSTORE PUSH1 0x20 DUP3 ADD SWAP1 POP SWAP3 SWAP2 POP POP JUMP JUMPDEST PUSH0 PUSH2 0x476 DUP3 PUSH2 0x452 JUMP JUMPDEST PUSH2 0x480 DUP2 DUP6 PUSH2 0x45C JUMP JUMPDEST SWAP4 POP PUSH2 0x490 DUP2 DUP6 PUSH1 0x20 DUP7 ADD PUSH2 0x2DE JUMP JUMPDEST PUSH2 0x499 DUP2 PUSH2 0x136 JUMP JUMPDEST DUP5 ADD SWAP2 POP POP SWAP3 SWAP2 POP POP JUMP JUMPDEST PUSH0 PUSH1 0x40 DUP3 ADD SWAP1 POP PUSH2 0x4B7 PUSH0 DUP4 ADD DUP6 PUSH2 0x443 JUMP JUMPDEST DUP2 DUP2 SUB PUSH1 0x20 DUP4 ADD MSTORE PUSH2 0x4C9 DUP2 DUP5 PUSH2 0x46C JUMP JUMPDEST SWAP1 POP SWAP4 SWAP3 POP POP POP JUMP JUMPDEST PUSH0 DUP2 MLOAD SWAP1 POP PUSH2 0x4E0 DUP2 PUSH2 0x104 JUMP JUMPDEST SWAP3 SWAP2 POP POP JUMP JUMPDEST PUSH0 PUSH2 0x4F8 PUSH2 0x4F3 DUP5 PUSH2 0x1BE JUMP JUMPDEST PUSH2 0x1A4 JUMP JUMPDEST SWAP1 POP DUP3 DUP2 MSTORE PUSH1 0x20 DUP2 ADD DUP5 DUP5 DUP5 ADD GT ISZERO PUSH2 0x514 JUMPI PUSH2 0x513 PUSH2 0x132 JUMP JUMPDEST JUMPDEST PUSH2 0x51F DUP5 DUP3 DUP6 PUSH2 0x2DE JUMP JUMPDEST POP SWAP4 SWAP3 POP POP POP JUMP JUMPDEST PUSH0 DUP3 PUSH1 0x1F DUP4 ADD SLT PUSH2 0x53B JUMPI PUSH2 0x53A PUSH2 0x12E JUMP JUMPDEST JUMPDEST DUP2 MLOAD PUSH2 0x54B DUP5 DUP3 PUSH1 0x20 DUP7 ADD PUSH2 0x4E6 JUMP JUMPDEST SWAP2 POP POP SWAP3 SWAP2 POP POP JUMP JUMPDEST PUSH0 DUP1 PUSH1 0x40 DUP4 DUP6 SUB SLT ISZERO PUSH2 0x56A JUMPI PUSH2 0x569 PUSH2 0xF3 JUMP JUMPDEST JUMPDEST PUSH0 PUSH2 0x577 DUP6 DUP3 DUP7 ADD PUSH2 0x4D2 JUMP JUMPDEST SWAP3 POP POP PUSH1 0x20 DUP4 ADD MLOAD PUSH8 0xFFFFFFFFFFFFFFFF DUP2 GT ISZERO PUSH2 0x598 JUMPI PUSH2 0x597 PUSH2 0xF7 JUMP JUMPDEST JUMPDEST PUSH2 0x5A4 DUP6 DUP3 DUP7 ADD PUSH2 0x527 JUMP JUMPDEST SWAP2 POP POP SWAP3 POP SWAP3 SWAP1 POP JUMP INVALID LOG2 PUSH5 0x6970667358 0x22 SLT KECCAK256 0x2C SWAP2 PUSH32 0x9FFB9BAB7FE00BDADF9D4610E579EC49596F831E491062980E6BF3E57C64736F PUSH13 0x63430008180033000000000000 "
				},
				"gasEstimates": {
					"creation": {
						"codeDepositCost": "301600",
						"executionCost": "341",
						"totalCost": "301941"
					},
					"external": {
						"decode(bytes)": "infinite",
						"encode(uint256,string)": "infinite"
					}
				},
				"methodIdentifiers": {
					"decode(bytes)": "e5c5e9a3",
					"encode(uint256,string)": "73fdd86f"
				}
			},
			"storageLayout": {
				"storage": [],
				"types": null
			},
			"userdoc": {
				"kind": "user",
				"methods": {},
				"version": 1
			}
		}
	}
}