{
	"Encoding_Decoding/EncodeWithSignature.sol": {
		"TargetCon": {
			"abi": [
				{
					"inputs": [
						{
							"internalType": "uint256",
							"name": "_num",
							"type": "uint256"
						},
						{
							"internalType": "string",
							"name": "str",
							"type": "string"
						}
					],
					"name": "myFunc",
					"outputs": [
						{
							"internalType": "uint256",
							"name": "",
							"type": "uint256"
						},
						{
							"internalType": "string",
							"name": "",
							"type": "string"
						}
					],
					"stateMutability": "nonpayable",
					"type": "function"
				},
				{
					"inputs": [],
					"name": "num",
					"outputs": [
						{
							"internalType": "uint256",
							"name": "",
							"type": "uint256"
						}
					],
					"stateMutability": "view",
					"type": "function"
				}
			],
			"devdoc": {
				"kind": "dev",
				"methods": {},
				"version": 1
			},
			"evm": {
				"assembly": "    /* \"Encoding_Decoding/EncodeWithSignature.sol\":62:261  contract TargetCon{... */\n  mstore(0x40, 0x80)\n  callvalue\n  dup1\n  iszero\n  tag_1\n  jumpi\n  0x00\n  dup1\n  revert\ntag_1:\n  pop\n  dataSize(sub_0)\n  dup1\n  dataOffset(sub_0)\n  0x00\n  codecopy\n  0x00\n  return\nstop\n\nsub_0: assembly {\n        /* \"Encoding_Decoding/EncodeWithSignature.sol\":62:261  contract TargetCon{... */\n      mstore(0x40, 0x80)\n      callvalue\n      dup1\n      iszero\n      tag_1\n      jumpi\n      0x00\n      dup1\n      revert\n    tag_1:\n      pop\n      jumpi(tag_2, lt(calldatasize, 0x04))\n      shr(0xe0, calldataload(0x00))\n      dup1\n      0x42dba220\n      eq\n      tag_3\n      jumpi\n      dup1\n      0x4e70b1dc\n      eq\n      tag_4\n      jumpi\n    tag_2:\n      0x00\n      dup1\n      revert\n        /* \"Encoding_Decoding/EncodeWithSignature.sol\":112:257  function myFunc(uint256 _num , string memory str) public  returns(uint256 , string memory){... */\n    tag_3:\n      tag_5\n      0x04\n      dup1\n      calldatasize\n      sub\n      dup2\n      add\n      swap1\n      tag_6\n      swap2\n      swap1\n      tag_7\n      jump\t// in\n    tag_6:\n      tag_8\n      jump\t// in\n    tag_5:\n      mload(0x40)\n      tag_9\n      swap3\n      swap2\n      swap1\n      tag_10\n      jump\t// in\n    tag_9:\n      mload(0x40)\n      dup1\n      swap2\n      sub\n      swap1\n      return\n        /* \"Encoding_Decoding/EncodeWithSignature.sol\":87:105  uint256 public num */\n    tag_4:\n      tag_11\n      tag_12\n      jump\t// in\n    tag_11:\n      mload(0x40)\n      tag_13\n      swap2\n      swap1\n      tag_14\n      jump\t// in\n    tag_13:\n      mload(0x40)\n      dup1\n      swap2\n      sub\n      swap1\n      return\n        /* \"Encoding_Decoding/EncodeWithSignature.sol\":112:257  function myFunc(uint256 _num , string memory str) public  returns(uint256 , string memory){... */\n    tag_8:\n        /* \"Encoding_Decoding/EncodeWithSignature.sol\":178:185  uint256 */\n      0x00\n        /* \"Encoding_Decoding/EncodeWithSignature.sol\":188:201  string memory */\n      0x60\n        /* \"Encoding_Decoding/EncodeWithSignature.sol\":217:221  _num */\n      dup4\n        /* \"Encoding_Decoding/EncodeWithSignature.sol\":213:216  num */\n      0x00\n        /* \"Encoding_Decoding/EncodeWithSignature.sol\":213:221  num=_num */\n      dup2\n      swap1\n      sstore\n      pop\n        /* \"Encoding_Decoding/EncodeWithSignature.sol\":240:243  num */\n      sload(0x00)\n        /* \"Encoding_Decoding/EncodeWithSignature.sol\":245:248  str */\n      dup4\n        /* \"Encoding_Decoding/EncodeWithSignature.sol\":232:249  return (num, str) */\n      swap2\n      pop\n      swap2\n      pop\n        /* \"Encoding_Decoding/EncodeWithSignature.sol\":112:257  function myFunc(uint256 _num , string memory str) public  returns(uint256 , string memory){... */\n      swap3\n      pop\n      swap3\n      swap1\n      pop\n      jump\t// out\n        /* \"Encoding_Decoding/EncodeWithSignature.sol\":87:105  uint256 public num */\n    tag_12:\n      sload(0x00)\n      dup2\n      jump\t// out\n        /* \"#utility.yul\":7:82   */\n    tag_16:\n        /* \"#utility.yul\":40:46   */\n      0x00\n        /* \"#utility.yul\":73:75   */\n      0x40\n        /* \"#utility.yul\":67:76   */\n      mload\n        /* \"#utility.yul\":57:76   */\n      swap1\n      pop\n        /* \"#utility.yul\":7:82   */\n      swap1\n      jump\t// out\n        /* \"#utility.yul\":88:205   */\n    tag_17:\n        /* \"#utility.yul\":197:198   */\n      0x00\n        /* \"#utility.yul\":194:195   */\n      dup1\n        /* \"#utility.yul\":187:199   */\n      revert\n        /* \"#utility.yul\":211:328   */\n    tag_18:\n        /* \"#utility.yul\":320:321   */\n      0x00\n        /* \"#utility.yul\":317:318   */\n      dup1\n        /* \"#utility.yul\":310:322   */\n      revert\n        /* \"#utility.yul\":334:411   */\n    tag_19:\n        /* \"#utility.yul\":371:378   */\n      0x00\n        /* \"#utility.yul\":400:405   */\n      dup2\n        /* \"#utility.yul\":389:405   */\n      swap1\n      pop\n        /* \"#utility.yul\":334:411   */\n      swap2\n      swap1\n      pop\n      jump\t// out\n        /* \"#utility.yul\":417:539   */\n    tag_20:\n        /* \"#utility.yul\":490:514   */\n      tag_43\n        /* \"#utility.yul\":508:513   */\n      dup2\n        /* \"#utility.yul\":490:514   */\n      tag_19\n      jump\t// in\n    tag_43:\n        /* \"#utility.yul\":483:488   */\n      dup2\n        /* \"#utility.yul\":480:515   */\n      eq\n        /* \"#utility.yul\":470:533   */\n      tag_44\n      jumpi\n        /* \"#utility.yul\":529:530   */\n      0x00\n        /* \"#utility.yul\":526:527   */\n      dup1\n        /* \"#utility.yul\":519:531   */\n      revert\n        /* \"#utility.yul\":470:533   */\n    tag_44:\n        /* \"#utility.yul\":417:539   */\n      pop\n      jump\t// out\n        /* \"#utility.yul\":545:684   */\n    tag_21:\n        /* \"#utility.yul\":591:596   */\n      0x00\n        /* \"#utility.yul\":629:635   */\n      dup2\n        /* \"#utility.yul\":616:636   */\n      calldataload\n        /* \"#utility.yul\":607:636   */\n      swap1\n      pop\n        /* \"#utility.yul\":645:678   */\n      tag_46\n        /* \"#utility.yul\":672:677   */\n      dup2\n        /* \"#utility.yul\":645:678   */\n      tag_20\n      jump\t// in\n    tag_46:\n        /* \"#utility.yul\":545:684   */\n      swap3\n      swap2\n      pop\n      pop\n      jump\t// out\n        /* \"#utility.yul\":690:807   */\n    tag_22:\n        /* \"#utility.yul\":799:800   */\n      0x00\n        /* \"#utility.yul\":796:797   */\n      dup1\n        /* \"#utility.yul\":789:801   */\n      revert\n        /* \"#utility.yul\":813:930   */\n    tag_23:\n        /* \"#utility.yul\":922:923   */\n      0x00\n        /* \"#utility.yul\":919:920   */\n      dup1\n        /* \"#utility.yul\":912:924   */\n      revert\n        /* \"#utility.yul\":936:1038   */\n    tag_24:\n        /* \"#utility.yul\":977:983   */\n      0x00\n        /* \"#utility.yul\":1028:1030   */\n      0x1f\n        /* \"#utility.yul\":1024:1031   */\n      not\n        /* \"#utility.yul\":1019:1021   */\n      0x1f\n        /* \"#utility.yul\":1012:1017   */\n      dup4\n        /* \"#utility.yul\":1008:1022   */\n      add\n        /* \"#utility.yul\":1004:1032   */\n      and\n        /* \"#utility.yul\":994:1032   */\n      swap1\n      pop\n        /* \"#utility.yul\":936:1038   */\n      swap2\n      swap1\n      pop\n      jump\t// out\n        /* \"#utility.yul\":1044:1224   */\n    tag_25:\n        /* \"#utility.yul\":1092:1169   */\n      0x4e487b7100000000000000000000000000000000000000000000000000000000\n        /* \"#utility.yul\":1089:1090   */\n      0x00\n        /* \"#utility.yul\":1082:1170   */\n      mstore\n        /* \"#utility.yul\":1189:1193   */\n      0x41\n        /* \"#utility.yul\":1186:1187   */\n      0x04\n        /* \"#utility.yul\":1179:1194   */\n      mstore\n        /* \"#utility.yul\":1213:1217   */\n      0x24\n        /* \"#utility.yul\":1210:1211   */\n      0x00\n        /* \"#utility.yul\":1203:1218   */\n      revert\n        /* \"#utility.yul\":1230:1511   */\n    tag_26:\n        /* \"#utility.yul\":1313:1340   */\n      tag_52\n        /* \"#utility.yul\":1335:1339   */\n      dup3\n        /* \"#utility.yul\":1313:1340   */\n      tag_24\n      jump\t// in\n    tag_52:\n        /* \"#utility.yul\":1305:1311   */\n      dup2\n        /* \"#utility.yul\":1301:1341   */\n      add\n        /* \"#utility.yul\":1443:1449   */\n      dup2\n        /* \"#utility.yul\":1431:1441   */\n      dup2\n        /* \"#utility.yul\":1428:1450   */\n      lt\n        /* \"#utility.yul\":1407:1425   */\n      0xffffffffffffffff\n        /* \"#utility.yul\":1395:1405   */\n      dup3\n        /* \"#utility.yul\":1392:1426   */\n      gt\n        /* \"#utility.yul\":1389:1451   */\n      or\n        /* \"#utility.yul\":1386:1474   */\n      iszero\n      tag_53\n      jumpi\n        /* \"#utility.yul\":1454:1472   */\n      tag_54\n      tag_25\n      jump\t// in\n    tag_54:\n        /* \"#utility.yul\":1386:1474   */\n    tag_53:\n        /* \"#utility.yul\":1494:1504   */\n      dup1\n        /* \"#utility.yul\":1490:1492   */\n      0x40\n        /* \"#utility.yul\":1483:1505   */\n      mstore\n        /* \"#utility.yul\":1273:1511   */\n      pop\n        /* \"#utility.yul\":1230:1511   */\n      pop\n      pop\n      jump\t// out\n        /* \"#utility.yul\":1517:1646   */\n    tag_27:\n        /* \"#utility.yul\":1551:1557   */\n      0x00\n        /* \"#utility.yul\":1578:1598   */\n      tag_56\n      tag_16\n      jump\t// in\n    tag_56:\n        /* \"#utility.yul\":1568:1598   */\n      swap1\n      pop\n        /* \"#utility.yul\":1607:1640   */\n      tag_57\n        /* \"#utility.yul\":1635:1639   */\n      dup3\n        /* \"#utility.yul\":1627:1633   */\n      dup3\n        /* \"#utility.yul\":1607:1640   */\n      tag_26\n      jump\t// in\n    tag_57:\n        /* \"#utility.yul\":1517:1646   */\n      swap2\n      swap1\n      pop\n      jump\t// out\n        /* \"#utility.yul\":1652:1960   */\n    tag_28:\n        /* \"#utility.yul\":1714:1718   */\n      0x00\n        /* \"#utility.yul\":1804:1822   */\n      0xffffffffffffffff\n        /* \"#utility.yul\":1796:1802   */\n      dup3\n        /* \"#utility.yul\":1793:1823   */\n      gt\n        /* \"#utility.yul\":1790:1846   */\n      iszero\n      tag_59\n      jumpi\n        /* \"#utility.yul\":1826:1844   */\n      tag_60\n      tag_25\n      jump\t// in\n    tag_60:\n        /* \"#utility.yul\":1790:1846   */\n    tag_59:\n        /* \"#utility.yul\":1864:1893   */\n      tag_61\n        /* \"#utility.yul\":1886:1892   */\n      dup3\n        /* \"#utility.yul\":1864:1893   */\n      tag_24\n      jump\t// in\n    tag_61:\n        /* \"#utility.yul\":1856:1893   */\n      swap1\n      pop\n        /* \"#utility.yul\":1948:1952   */\n      0x20\n        /* \"#utility.yul\":1942:1946   */\n      dup2\n        /* \"#utility.yul\":1938:1953   */\n      add\n        /* \"#utility.yul\":1930:1953   */\n      swap1\n      pop\n        /* \"#utility.yul\":1652:1960   */\n      swap2\n      swap1\n      pop\n      jump\t// out\n        /* \"#utility.yul\":1966:2112   */\n    tag_29:\n        /* \"#utility.yul\":2063:2069   */\n      dup3\n        /* \"#utility.yul\":2058:2061   */\n      dup2\n        /* \"#utility.yul\":2053:2056   */\n      dup4\n        /* \"#utility.yul\":2040:2070   */\n      calldatacopy\n        /* \"#utility.yul\":2104:2105   */\n      0x00\n        /* \"#utility.yul\":2095:2101   */\n      dup4\n        /* \"#utility.yul\":2090:2093   */\n      dup4\n        /* \"#utility.yul\":2086:2102   */\n      add\n        /* \"#utility.yul\":2079:2106   */\n      mstore\n        /* \"#utility.yul\":1966:2112   */\n      pop\n      pop\n      pop\n      jump\t// out\n        /* \"#utility.yul\":2118:2543   */\n    tag_30:\n        /* \"#utility.yul\":2196:2201   */\n      0x00\n        /* \"#utility.yul\":2221:2287   */\n      tag_64\n        /* \"#utility.yul\":2237:2286   */\n      tag_65\n        /* \"#utility.yul\":2279:2285   */\n      dup5\n        /* \"#utility.yul\":2237:2286   */\n      tag_28\n      jump\t// in\n    tag_65:\n        /* \"#utility.yul\":2221:2287   */\n      tag_27\n      jump\t// in\n    tag_64:\n        /* \"#utility.yul\":2212:2287   */\n      swap1\n      pop\n        /* \"#utility.yul\":2310:2316   */\n      dup3\n        /* \"#utility.yul\":2303:2308   */\n      dup2\n        /* \"#utility.yul\":2296:2317   */\n      mstore\n        /* \"#utility.yul\":2348:2352   */\n      0x20\n        /* \"#utility.yul\":2341:2346   */\n      dup2\n        /* \"#utility.yul\":2337:2353   */\n      add\n        /* \"#utility.yul\":2386:2389   */\n      dup5\n        /* \"#utility.yul\":2377:2383   */\n      dup5\n        /* \"#utility.yul\":2372:2375   */\n      dup5\n        /* \"#utility.yul\":2368:2384   */\n      add\n        /* \"#utility.yul\":2365:2390   */\n      gt\n        /* \"#utility.yul\":2362:2474   */\n      iszero\n      tag_66\n      jumpi\n        /* \"#utility.yul\":2393:2472   */\n      tag_67\n      tag_23\n      jump\t// in\n    tag_67:\n        /* \"#utility.yul\":2362:2474   */\n    tag_66:\n        /* \"#utility.yul\":2483:2537   */\n      tag_68\n        /* \"#utility.yul\":2530:2536   */\n      dup5\n        /* \"#utility.yul\":2525:2528   */\n      dup3\n        /* \"#utility.yul\":2520:2523   */\n      dup6\n        /* \"#utility.yul\":2483:2537   */\n      tag_29\n      jump\t// in\n    tag_68:\n        /* \"#utility.yul\":2202:2543   */\n      pop\n        /* \"#utility.yul\":2118:2543   */\n      swap4\n      swap3\n      pop\n      pop\n      pop\n      jump\t// out\n        /* \"#utility.yul\":2563:2903   */\n    tag_31:\n        /* \"#utility.yul\":2619:2624   */\n      0x00\n        /* \"#utility.yul\":2668:2671   */\n      dup3\n        /* \"#utility.yul\":2661:2665   */\n      0x1f\n        /* \"#utility.yul\":2653:2659   */\n      dup4\n        /* \"#utility.yul\":2649:2666   */\n      add\n        /* \"#utility.yul\":2645:2672   */\n      slt\n        /* \"#utility.yul\":2635:2757   */\n      tag_70\n      jumpi\n        /* \"#utility.yul\":2676:2755   */\n      tag_71\n      tag_22\n      jump\t// in\n    tag_71:\n        /* \"#utility.yul\":2635:2757   */\n    tag_70:\n        /* \"#utility.yul\":2793:2799   */\n      dup2\n        /* \"#utility.yul\":2780:2800   */\n      calldataload\n        /* \"#utility.yul\":2818:2897   */\n      tag_72\n        /* \"#utility.yul\":2893:2896   */\n      dup5\n        /* \"#utility.yul\":2885:2891   */\n      dup3\n        /* \"#utility.yul\":2878:2882   */\n      0x20\n        /* \"#utility.yul\":2870:2876   */\n      dup7\n        /* \"#utility.yul\":2866:2883   */\n      add\n        /* \"#utility.yul\":2818:2897   */\n      tag_30\n      jump\t// in\n    tag_72:\n        /* \"#utility.yul\":2809:2897   */\n      swap2\n      pop\n        /* \"#utility.yul\":2625:2903   */\n      pop\n        /* \"#utility.yul\":2563:2903   */\n      swap3\n      swap2\n      pop\n      pop\n      jump\t// out\n        /* \"#utility.yul\":2909:3563   */\n    tag_7:\n        /* \"#utility.yul\":2987:2993   */\n      0x00\n        /* \"#utility.yul\":2995:3001   */\n      dup1\n        /* \"#utility.yul\":3044:3046   */\n      0x40\n        /* \"#utility.yul\":3032:3041   */\n      dup4\n        /* \"#utility.yul\":3023:3030   */\n      dup6\n        /* \"#utility.yul\":3019:3042   */\n      sub\n        /* \"#utility.yul\":3015:3047   */\n      slt\n        /* \"#utility.yul\":3012:3131   */\n      iszero\n      tag_74\n      jumpi\n        /* \"#utility.yul\":3050:3129   */\n      tag_75\n      tag_17\n      jump\t// in\n    tag_75:\n        /* \"#utility.yul\":3012:3131   */\n    tag_74:\n        /* \"#utility.yul\":3170:3171   */\n      0x00\n        /* \"#utility.yul\":3195:3248   */\n      tag_76\n        /* \"#utility.yul\":3240:3247   */\n      dup6\n        /* \"#utility.yul\":3231:3237   */\n      dup3\n        /* \"#utility.yul\":3220:3229   */\n      dup7\n        /* \"#utility.yul\":3216:3238   */\n      add\n        /* \"#utility.yul\":3195:3248   */\n      tag_21\n      jump\t// in\n    tag_76:\n        /* \"#utility.yul\":3185:3248   */\n      swap3\n      pop\n        /* \"#utility.yul\":3141:3258   */\n      pop\n        /* \"#utility.yul\":3325:3327   */\n      0x20\n        /* \"#utility.yul\":3314:3323   */\n      dup4\n        /* \"#utility.yul\":3310:3328   */\n      add\n        /* \"#utility.yul\":3297:3329   */\n      calldataload\n        /* \"#utility.yul\":3356:3374   */\n      0xffffffffffffffff\n        /* \"#utility.yul\":3348:3354   */\n      dup2\n        /* \"#utility.yul\":3345:3375   */\n      gt\n        /* \"#utility.yul\":3342:3459   */\n      iszero\n      tag_77\n      jumpi\n        /* \"#utility.yul\":3378:3457   */\n      tag_78\n      tag_18\n      jump\t// in\n    tag_78:\n        /* \"#utility.yul\":3342:3459   */\n    tag_77:\n        /* \"#utility.yul\":3483:3546   */\n      tag_79\n        /* \"#utility.yul\":3538:3545   */\n      dup6\n        /* \"#utility.yul\":3529:3535   */\n      dup3\n        /* \"#utility.yul\":3518:3527   */\n      dup7\n        /* \"#utility.yul\":3514:3536   */\n      add\n        /* \"#utility.yul\":3483:3546   */\n      tag_31\n      jump\t// in\n    tag_79:\n        /* \"#utility.yul\":3473:3546   */\n      swap2\n      pop\n        /* \"#utility.yul\":3268:3556   */\n      pop\n        /* \"#utility.yul\":2909:3563   */\n      swap3\n      pop\n      swap3\n      swap1\n      pop\n      jump\t// out\n        /* \"#utility.yul\":3569:3687   */\n    tag_32:\n        /* \"#utility.yul\":3656:3680   */\n      tag_81\n        /* \"#utility.yul\":3674:3679   */\n      dup2\n        /* \"#utility.yul\":3656:3680   */\n      tag_19\n      jump\t// in\n    tag_81:\n        /* \"#utility.yul\":3651:3654   */\n      dup3\n        /* \"#utility.yul\":3644:3681   */\n      mstore\n        /* \"#utility.yul\":3569:3687   */\n      pop\n      pop\n      jump\t// out\n        /* \"#utility.yul\":3693:3792   */\n    tag_33:\n        /* \"#utility.yul\":3745:3751   */\n      0x00\n        /* \"#utility.yul\":3779:3784   */\n      dup2\n        /* \"#utility.yul\":3773:3785   */\n      mload\n        /* \"#utility.yul\":3763:3785   */\n      swap1\n      pop\n        /* \"#utility.yul\":3693:3792   */\n      swap2\n      swap1\n      pop\n      jump\t// out\n        /* \"#utility.yul\":3798:3967   */\n    tag_34:\n        /* \"#utility.yul\":3882:3893   */\n      0x00\n        /* \"#utility.yul\":3916:3922   */\n      dup3\n        /* \"#utility.yul\":3911:3914   */\n      dup3\n        /* \"#utility.yul\":3904:3923   */\n      mstore\n        /* \"#utility.yul\":3956:3960   */\n      0x20\n        /* \"#utility.yul\":3951:3954   */\n      dup3\n        /* \"#utility.yul\":3947:3961   */\n      add\n        /* \"#utility.yul\":3932:3961   */\n      swap1\n      pop\n        /* \"#utility.yul\":3798:3967   */\n      swap3\n      swap2\n      pop\n      pop\n      jump\t// out\n        /* \"#utility.yul\":3973:4219   */\n    tag_35:\n        /* \"#utility.yul\":4054:4055   */\n      0x00\n        /* \"#utility.yul\":4064:4177   */\n    tag_85:\n        /* \"#utility.yul\":4078:4084   */\n      dup4\n        /* \"#utility.yul\":4075:4076   */\n      dup2\n        /* \"#utility.yul\":4072:4085   */\n      lt\n        /* \"#utility.yul\":4064:4177   */\n      iszero\n      tag_87\n      jumpi\n        /* \"#utility.yul\":4163:4164   */\n      dup1\n        /* \"#utility.yul\":4158:4161   */\n      dup3\n        /* \"#utility.yul\":4154:4165   */\n      add\n        /* \"#utility.yul\":4148:4166   */\n      mload\n        /* \"#utility.yul\":4144:4145   */\n      dup2\n        /* \"#utility.yul\":4139:4142   */\n      dup5\n        /* \"#utility.yul\":4135:4146   */\n      add\n        /* \"#utility.yul\":4128:4167   */\n      mstore\n        /* \"#utility.yul\":4100:4102   */\n      0x20\n        /* \"#utility.yul\":4097:4098   */\n      dup2\n        /* \"#utility.yul\":4093:4103   */\n      add\n        /* \"#utility.yul\":4088:4103   */\n      swap1\n      pop\n        /* \"#utility.yul\":4064:4177   */\n      jump(tag_85)\n    tag_87:\n        /* \"#utility.yul\":4211:4212   */\n      0x00\n        /* \"#utility.yul\":4202:4208   */\n      dup5\n        /* \"#utility.yul\":4197:4200   */\n      dup5\n        /* \"#utility.yul\":4193:4209   */\n      add\n        /* \"#utility.yul\":4186:4213   */\n      mstore\n        /* \"#utility.yul\":4035:4219   */\n      pop\n        /* \"#utility.yul\":3973:4219   */\n      pop\n      pop\n      pop\n      jump\t// out\n        /* \"#utility.yul\":4225:4602   */\n    tag_36:\n        /* \"#utility.yul\":4313:4316   */\n      0x00\n        /* \"#utility.yul\":4341:4380   */\n      tag_89\n        /* \"#utility.yul\":4374:4379   */\n      dup3\n        /* \"#utility.yul\":4341:4380   */\n      tag_33\n      jump\t// in\n    tag_89:\n        /* \"#utility.yul\":4396:4467   */\n      tag_90\n        /* \"#utility.yul\":4460:4466   */\n      dup2\n        /* \"#utility.yul\":4455:4458   */\n      dup6\n        /* \"#utility.yul\":4396:4467   */\n      tag_34\n      jump\t// in\n    tag_90:\n        /* \"#utility.yul\":4389:4467   */\n      swap4\n      pop\n        /* \"#utility.yul\":4476:4541   */\n      tag_91\n        /* \"#utility.yul\":4534:4540   */\n      dup2\n        /* \"#utility.yul\":4529:4532   */\n      dup6\n        /* \"#utility.yul\":4522:4526   */\n      0x20\n        /* \"#utility.yul\":4515:4520   */\n      dup7\n        /* \"#utility.yul\":4511:4527   */\n      add\n        /* \"#utility.yul\":4476:4541   */\n      tag_35\n      jump\t// in\n    tag_91:\n        /* \"#utility.yul\":4566:4595   */\n      tag_92\n        /* \"#utility.yul\":4588:4594   */\n      dup2\n        /* \"#utility.yul\":4566:4595   */\n      tag_24\n      jump\t// in\n    tag_92:\n        /* \"#utility.yul\":4561:4564   */\n      dup5\n        /* \"#utility.yul\":4557:4596   */\n      add\n        /* \"#utility.yul\":4550:4596   */\n      swap2\n      pop\n        /* \"#utility.yul\":4317:4602   */\n      pop\n        /* \"#utility.yul\":4225:4602   */\n      swap3\n      swap2\n      pop\n      pop\n      jump\t// out\n        /* \"#utility.yul\":4608:5031   */\n    tag_10:\n        /* \"#utility.yul\":4749:4753   */\n      0x00\n        /* \"#utility.yul\":4787:4789   */\n      0x40\n        /* \"#utility.yul\":4776:4785   */\n      dup3\n        /* \"#utility.yul\":4772:4790   */\n      add\n        /* \"#utility.yul\":4764:4790   */\n      swap1\n      pop\n        /* \"#utility.yul\":4800:4871   */\n      tag_94\n        /* \"#utility.yul\":4868:4869   */\n      0x00\n        /* \"#utility.yul\":4857:4866   */\n      dup4\n        /* \"#utility.yul\":4853:4870   */\n      add\n        /* \"#utility.yul\":4844:4850   */\n      dup6\n        /* \"#utility.yul\":4800:4871   */\n      tag_32\n      jump\t// in\n    tag_94:\n        /* \"#utility.yul\":4918:4927   */\n      dup2\n        /* \"#utility.yul\":4912:4916   */\n      dup2\n        /* \"#utility.yul\":4908:4928   */\n      sub\n        /* \"#utility.yul\":4903:4905   */\n      0x20\n        /* \"#utility.yul\":4892:4901   */\n      dup4\n        /* \"#utility.yul\":4888:4906   */\n      add\n        /* \"#utility.yul\":4881:4929   */\n      mstore\n        /* \"#utility.yul\":4946:5024   */\n      tag_95\n        /* \"#utility.yul\":5019:5023   */\n      dup2\n        /* \"#utility.yul\":5010:5016   */\n      dup5\n        /* \"#utility.yul\":4946:5024   */\n      tag_36\n      jump\t// in\n    tag_95:\n        /* \"#utility.yul\":4938:5024   */\n      swap1\n      pop\n        /* \"#utility.yul\":4608:5031   */\n      swap4\n      swap3\n      pop\n      pop\n      pop\n      jump\t// out\n        /* \"#utility.yul\":5037:5259   */\n    tag_14:\n        /* \"#utility.yul\":5130:5134   */\n      0x00\n        /* \"#utility.yul\":5168:5170   */\n      0x20\n        /* \"#utility.yul\":5157:5166   */\n      dup3\n        /* \"#utility.yul\":5153:5171   */\n      add\n        /* \"#utility.yul\":5145:5171   */\n      swap1\n      pop\n        /* \"#utility.yul\":5181:5252   */\n      tag_97\n        /* \"#utility.yul\":5249:5250   */\n      0x00\n        /* \"#utility.yul\":5238:5247   */\n      dup4\n        /* \"#utility.yul\":5234:5251   */\n      add\n        /* \"#utility.yul\":5225:5231   */\n      dup5\n        /* \"#utility.yul\":5181:5252   */\n      tag_32\n      jump\t// in\n    tag_97:\n        /* \"#utility.yul\":5037:5259   */\n      swap3\n      swap2\n      pop\n      pop\n      jump\t// out\n\n    auxdata: 0xa264697066735822122073fa206ef027b8ddd7a29d36d16db71b48a000ce4878fd870c40ff5143f9a4f364736f6c63430008180033\n}\n",
				"bytecode": {
					"linkReferences": {},
					"object": "608060405234801561000f575f80fd5b506103838061001d5f395ff3fe608060405234801561000f575f80fd5b5060043610610034575f3560e01c806342dba220146100385780634e70b1dc14610069575b5f80fd5b610052600480360381019061004d9190610223565b610087565b604051610060929190610306565b60405180910390f35b61007161009e565b60405161007e9190610334565b60405180910390f35b5f6060835f819055505f5483915091509250929050565b5f5481565b5f604051905090565b5f80fd5b5f80fd5b5f819050919050565b6100c6816100b4565b81146100d0575f80fd5b50565b5f813590506100e1816100bd565b92915050565b5f80fd5b5f80fd5b5f601f19601f8301169050919050565b7f4e487b71000000000000000000000000000000000000000000000000000000005f52604160045260245ffd5b610135826100ef565b810181811067ffffffffffffffff82111715610154576101536100ff565b5b80604052505050565b5f6101666100a3565b9050610172828261012c565b919050565b5f67ffffffffffffffff821115610191576101906100ff565b5b61019a826100ef565b9050602081019050919050565b828183375f83830152505050565b5f6101c76101c284610177565b61015d565b9050828152602081018484840111156101e3576101e26100eb565b5b6101ee8482856101a7565b509392505050565b5f82601f83011261020a576102096100e7565b5b813561021a8482602086016101b5565b91505092915050565b5f8060408385031215610239576102386100ac565b5b5f610246858286016100d3565b925050602083013567ffffffffffffffff811115610267576102666100b0565b5b610273858286016101f6565b9150509250929050565b610286816100b4565b82525050565b5f81519050919050565b5f82825260208201905092915050565b5f5b838110156102c35780820151818401526020810190506102a8565b5f8484015250505050565b5f6102d88261028c565b6102e28185610296565b93506102f28185602086016102a6565b6102fb816100ef565b840191505092915050565b5f6040820190506103195f83018561027d565b818103602083015261032b81846102ce565b90509392505050565b5f6020820190506103475f83018461027d565b9291505056fea264697066735822122073fa206ef027b8ddd7a29d36d16db71b48a000ce4878fd870c40ff5143f9a4f364736f6c63430008180033",
					"opcodes": "PUSH1 0x80 PUSH1 0x40 MSTORE CALLVALUE DUP1 ISZERO PUSH2 0xF JUMPI PUSH0 DUP1 REVERT JUMPDEST POP PUSH2 0x383 DUP1 PUSH2 0x1D PUSH0 CODECOPY PUSH0 RETURN INVALID PUSH1 0x80 PUSH1 0x40 MSTORE CALLVALUE DUP1 ISZERO PUSH2 0xF JUMPI PUSH0 DUP1 REVERT JUMPDEST POP PUSH1 0x4 CALLDATASIZE LT PUSH2 0x34 JUMPI PUSH0 CALLDATALOAD PUSH1 0xE0 SHR DUP1 PUSH4 0x42DBA220 EQ PUSH2 0x38 JUMPI DUP1 PUSH4 0x4E70B1DC EQ PUSH2 0x69 JUMPI JUMPDEST PUSH0 DUP1 REVERT JUMPDEST PUSH2 0x52 PUSH1 0x4 DUP1 CALLDATASIZE SUB DUP2 ADD SWAP1 PUSH2 0x4D SWAP2 SWAP1 PUSH2 0x223 JUMP JUMPDEST PUSH2 0x87 JUMP JUMPDEST PUSH1 0x40 MLOAD PUSH2 0x60 SWAP3 SWAP2 SWAP1 PUSH2 0x306 JUMP JUMPDEST PUSH1 0x40 MLOAD DUP1 SWAP2 SUB SWAP1 RETURN JUMPDEST PUSH2 0x71 PUSH2 0x9E JUMP JUMPDEST PUSH1 0x40 MLOAD PUSH2 0x7E SWAP2 SWAP1 PUSH2 0x334 JUMP JUMPDEST PUSH1 0x40 MLOAD DUP1 SWAP2 SUB SWAP1 RETURN JUMPDEST PUSH0 PUSH1 0x60 DUP4 PUSH0 DUP2 SWAP1 SSTORE POP PUSH0 SLOAD DUP4 SWAP2 POP SWAP2 POP SWAP3 POP SWAP3 SWAP1 POP JUMP JUMPDEST PUSH0 SLOAD DUP2 JUMP JUMPDEST PUSH0 PUSH1 0x40 MLOAD SWAP1 POP SWAP1 JUMP JUMPDEST PUSH0 DUP1 REVERT JUMPDEST PUSH0 DUP1 REVERT JUMPDEST PUSH0 DUP2 SWAP1 POP SWAP2 SWAP1 POP JUMP JUMPDEST PUSH2 0xC6 DUP2 PUSH2 0xB4 JUMP JUMPDEST DUP2 EQ PUSH2 0xD0 JUMPI PUSH0 DUP1 REVERT JUMPDEST POP JUMP JUMPDEST PUSH0 DUP2 CALLDATALOAD SWAP1 POP PUSH2 0xE1 DUP2 PUSH2 0xBD JUMP JUMPDEST SWAP3 SWAP2 POP POP JUMP JUMPDEST PUSH0 DUP1 REVERT JUMPDEST PUSH0 DUP1 REVERT JUMPDEST PUSH0 PUSH1 0x1F NOT PUSH1 0x1F DUP4 ADD AND SWAP1 POP SWAP2 SWAP1 POP JUMP JUMPDEST PUSH32 0x4E487B7100000000000000000000000000000000000000000000000000000000 PUSH0 MSTORE PUSH1 0x41 PUSH1 0x4 MSTORE PUSH1 0x24 PUSH0 REVERT JUMPDEST PUSH2 0x135 DUP3 PUSH2 0xEF JUMP JUMPDEST DUP2 ADD DUP2 DUP2 LT PUSH8 0xFFFFFFFFFFFFFFFF DUP3 GT OR ISZERO PUSH2 0x154 JUMPI PUSH2 0x153 PUSH2 0xFF JUMP JUMPDEST JUMPDEST DUP1 PUSH1 0x40 MSTORE POP POP POP JUMP JUMPDEST PUSH0 PUSH2 0x166 PUSH2 0xA3 JUMP JUMPDEST SWAP1 POP PUSH2 0x172 DUP3 DUP3 PUSH2 0x12C JUMP JUMPDEST SWAP2 SWAP1 POP JUMP JUMPDEST PUSH0 PUSH8 0xFFFFFFFFFFFFFFFF DUP3 GT ISZERO PUSH2 0x191 JUMPI PUSH2 0x190 PUSH2 0xFF JUMP JUMPDEST JUMPDEST PUSH2 0x19A DUP3 PUSH2 0xEF JUMP JUMPDEST SWAP1 POP PUSH1 0x20 DUP2 ADD SWAP1 POP SWAP2 SWAP1 POP JUMP JUMPDEST DUP3 DUP2 DUP4 CALLDATACOPY PUSH0 DUP4 DUP4 ADD MSTORE POP POP POP JUMP JUMPDEST PUSH0 PUSH2 0x1C7 PUSH2 0x1C2 DUP5 PUSH2 0x177 JUMP JUMPDEST PUSH2 0x15D JUMP JUMPDEST SWAP1 POP DUP3 DUP2 MSTORE PUSH1 0x20 DUP2 ADD DUP5 DUP5 DUP5 ADD GT ISZERO PUSH2 0x1E3 JUMPI PUSH2 0x1E2 PUSH2 0xEB JUMP JUMPDEST JUMPDEST PUSH2 0x1EE DUP5 DUP3 DUP6 PUSH2 0x1A7 JUMP JUMPDEST POP SWAP4 SWAP3 POP POP POP JUMP JUMPDEST PUSH0 DUP3 PUSH1 0x1F DUP4 ADD SLT PUSH2 0x20A JUMPI PUSH2 0x209 PUSH2 0xE7 JUMP JUMPDEST JUMPDEST DUP2 CALLDATALOAD PUSH2 0x21A DUP5 DUP3 PUSH1 0x20 DUP7 ADD PUSH2 0x1B5 JUMP JUMPDEST SWAP2 POP POP SWAP3 SWAP2 POP POP JUMP JUMPDEST PUSH0 DUP1 PUSH1 0x40 DUP4 DUP6 SUB SLT ISZERO PUSH2 0x239 JUMPI PUSH2 0x238 PUSH2 0xAC JUMP JUMPDEST JUMPDEST PUSH0 PUSH2 0x246 DUP6 DUP3 DUP7 ADD PUSH2 0xD3 JUMP JUMPDEST SWAP3 POP POP PUSH1 0x20 DUP4 ADD CALLDATALOAD PUSH8 0xFFFFFFFFFFFFFFFF DUP2 GT ISZERO PUSH2 0x267 JUMPI PUSH2 0x266 PUSH2 0xB0 JUMP JUMPDEST JUMPDEST PUSH2 0x273 DUP6 DUP3 DUP7 ADD PUSH2 0x1F6 JUMP JUMPDEST SWAP2 POP POP SWAP3 POP SWAP3 SWAP1 POP JUMP JUMPDEST PUSH2 0x286 DUP2 PUSH2 0xB4 JUMP JUMPDEST DUP3 MSTORE POP POP JUMP JUMPDEST PUSH0 DUP2 MLOAD SWAP1 POP SWAP2 SWAP1 POP JUMP JUMPDEST PUSH0 DUP3 DUP3 MSTORE PUSH1 0x20 DUP3 ADD SWAP1 POP SWAP3 SWAP2 POP POP JUMP JUMPDEST PUSH0 JUMPDEST DUP4 DUP2 LT ISZERO PUSH2 0x2C3 JUMPI DUP1 DUP3 ADD MLOAD DUP2 DUP5 ADD MSTORE PUSH1 0x20 DUP2 ADD SWAP1 POP PUSH2 0x2A8 JUMP JUMPDEST PUSH0 DUP5 DUP5 ADD MSTORE POP POP POP POP JUMP JUMPDEST PUSH0 PUSH2 0x2D8 DUP3 PUSH2 0x28C JUMP JUMPDEST PUSH2 0x2E2 DUP2 DUP6 PUSH2 0x296 JUMP JUMPDEST SWAP4 POP PUSH2 0x2F2 DUP2 DUP6 PUSH1 0x20 DUP7 ADD PUSH2 0x2A6 JUMP JUMPDEST PUSH2 0x2FB DUP2 PUSH2 0xEF JUMP JUMPDEST DUP5 ADD SWAP2 POP POP SWAP3 SWAP2 POP POP JUMP JUMPDEST PUSH0 PUSH1 0x40 DUP3 ADD SWAP1 POP PUSH2 0x319 PUSH0 DUP4 ADD DUP6 PUSH2 0x27D JUMP JUMPDEST DUP2 DUP2 SUB PUSH1 0x20 DUP4 ADD MSTORE PUSH2 0x32B DUP2 DUP5 PUSH2 0x2CE JUMP JUMPDEST SWAP1 POP SWAP4 SWAP3 POP POP POP JUMP JUMPDEST PUSH0 PUSH1 0x20 DUP3 ADD SWAP1 POP PUSH2 0x347 PUSH0 DUP4 ADD DUP5 PUSH2 0x27D JUMP JUMPDEST SWAP3 SWAP2 POP POP JUMP INVALID LOG2 PUSH5 0x6970667358 0x22 SLT KECCAK256 PUSH20 0xFA206EF027B8DDD7A29D36D16DB71B48A000CE48 PUSH25 0xFD870C40FF5143F9A4F364736F6C6343000818003300000000 "
				},
				"gasEstimates": {
					"creation": {
						"codeDepositCost": "179800",
						"executionCost": "224",
						"totalCost": "180024"
					},
					"external": {
						"myFunc(uint256,string)": "infinite",
						"num()": "2424"
					}
				},
				"methodIdentifiers": {
					"myFunc(uint256,string)": "42dba220",
					"num()": "4e70b1dc"
				}
			},
			"storageLayout": {
				"storage": [
					{
						"astId": 3,
						"contract": "Encoding_Decoding/EncodeWithSignature.sol:TargetCon",
						"label": "num",
						"offset": 0,
						"slot": "0",
						"type": "t_uint256"
					}
				],
				"types": {
					"t_uint256": {
						"encoding": "inplace",
						"label": "uint256",
						"numberOfBytes": "32"
					}
				}
			},
			"userdoc": {
				"kind": "user",
				"methods": {},
				"version": 1
			}
		}
	}
}