{
	"Encoding_Decoding/EncodeCall.sol": {
		"EncodeWithSelector": {
			"abi": [
				{
					"inputs": [],
					"name": "addd",
					"outputs": [
						{
							"internalType": "contract Add",
							"name": "",
							"type": "address"
						}
					],
					"stateMutability": "view",
					"type": "function"
				},
				{
					"inputs": [
						{
							"internalType": "uint256",
							"name": "num1",
							"type": "uint256"
						},
						{
							"internalType": "uint256",
							"name": "num2",
							"type": "uint256"
						}
					],
					"name": "callAdd",
					"outputs": [
						{
							"internalType": "bool",
							"name": "",
							"type": "bool"
						},
						{
							"internalType": "bytes",
							"name": "",
							"type": "bytes"
						}
					],
					"stateMutability": "nonpayable",
					"type": "function"
				},
				{
					"inputs": [
						{
							"internalType": "address",
							"name": "con",
							"type": "address"
						}
					],
					"name": "setAddContract",
					"outputs": [],
					"stateMutability": "nonpayable",
					"type": "function"
				}
			],
			"devdoc": {
				"kind": "dev",
				"methods": {},
				"version": 1
			},
			"evm": {
				"assembly": "    /* \"Encoding_Decoding/EncodeCall.sol\":61:697  contract EncodeWithSelector {... */\n  mstore(0x40, 0x80)\n  callvalue\n  dup1\n  iszero\n  tag_1\n  jumpi\n  0x00\n  dup1\n  revert\ntag_1:\n  pop\n  dataSize(sub_0)\n  dup1\n  dataOffset(sub_0)\n  0x00\n  codecopy\n  0x00\n  return\nstop\n\nsub_0: assembly {\n        /* \"Encoding_Decoding/EncodeCall.sol\":61:697  contract EncodeWithSelector {... */\n      mstore(0x40, 0x80)\n      callvalue\n      dup1\n      iszero\n      tag_1\n      jumpi\n      0x00\n      dup1\n      revert\n    tag_1:\n      pop\n      jumpi(tag_2, lt(calldatasize, 0x04))\n      shr(0xe0, calldataload(0x00))\n      dup1\n      0x2c99f3f9\n      eq\n      tag_3\n      jumpi\n      dup1\n      0x9f8be819\n      eq\n      tag_4\n      jumpi\n      dup1\n      0xb61d6533\n      eq\n      tag_5\n      jumpi\n    tag_2:\n      0x00\n      dup1\n      revert\n        /* \"Encoding_Decoding/EncodeCall.sol\":159:237  function setAddContract(address con) public {... */\n    tag_3:\n      tag_6\n      0x04\n      dup1\n      calldatasize\n      sub\n      dup2\n      add\n      swap1\n      tag_7\n      swap2\n      swap1\n      tag_8\n      jump\t// in\n    tag_7:\n      tag_9\n      jump\t// in\n    tag_6:\n      stop\n        /* \"Encoding_Decoding/EncodeCall.sol\":302:694  function callAdd(uint256 num1, uint256 num2) public returns (bool, bytes memory) {... */\n    tag_4:\n      tag_10\n      0x04\n      dup1\n      calldatasize\n      sub\n      dup2\n      add\n      swap1\n      tag_11\n      swap2\n      swap1\n      tag_12\n      jump\t// in\n    tag_11:\n      tag_13\n      jump\t// in\n    tag_10:\n      mload(0x40)\n      tag_14\n      swap3\n      swap2\n      swap1\n      tag_15\n      jump\t// in\n    tag_14:\n      mload(0x40)\n      dup1\n      swap2\n      sub\n      swap1\n      return\n        /* \"Encoding_Decoding/EncodeCall.sol\":98:113  Add public addd */\n    tag_5:\n      tag_16\n      tag_17\n      jump\t// in\n    tag_16:\n      mload(0x40)\n      tag_18\n      swap2\n      swap1\n      tag_19\n      jump\t// in\n    tag_18:\n      mload(0x40)\n      dup1\n      swap2\n      sub\n      swap1\n      return\n        /* \"Encoding_Decoding/EncodeCall.sol\":159:237  function setAddContract(address con) public {... */\n    tag_9:\n        /* \"Encoding_Decoding/EncodeCall.sol\":225:228  con */\n      dup1\n        /* \"Encoding_Decoding/EncodeCall.sol\":214:218  addd */\n      0x00\n      dup1\n        /* \"Encoding_Decoding/EncodeCall.sol\":214:229  addd = Add(con) */\n      0x0100\n      exp\n      dup2\n      sload\n      dup2\n      0xffffffffffffffffffffffffffffffffffffffff\n      mul\n      not\n      and\n      swap1\n      dup4\n      0xffffffffffffffffffffffffffffffffffffffff\n      and\n      mul\n      or\n      swap1\n      sstore\n      pop\n        /* \"Encoding_Decoding/EncodeCall.sol\":159:237  function setAddContract(address con) public {... */\n      pop\n      jump\t// out\n        /* \"Encoding_Decoding/EncodeCall.sol\":302:694  function callAdd(uint256 num1, uint256 num2) public returns (bool, bytes memory) {... */\n    tag_13:\n        /* \"Encoding_Decoding/EncodeCall.sol\":363:367  bool */\n      0x00\n        /* \"Encoding_Decoding/EncodeCall.sol\":369:381  bytes memory */\n      0x60\n        /* \"Encoding_Decoding/EncodeCall.sol\":394:414  bytes memory calldta */\n      0x00\n        /* \"Encoding_Decoding/EncodeCall.sol\":432:436  addd */\n      dup1\n      0x00\n      swap1\n      sload\n      swap1\n      0x0100\n      exp\n      swap1\n      div\n      0xffffffffffffffffffffffffffffffffffffffff\n      and\n        /* \"Encoding_Decoding/EncodeCall.sol\":432:440  addd.add */\n      0xffffffffffffffffffffffffffffffffffffffff\n      and\n      0x771602f7\n        /* \"Encoding_Decoding/EncodeCall.sol\":443:447  num1 */\n      dup7\n        /* \"Encoding_Decoding/EncodeCall.sol\":449:453  num2 */\n      dup7\n        /* \"Encoding_Decoding/EncodeCall.sol\":417:455  abi.encodeCall(addd.add, (num1, num2)) */\n      add(0x24, mload(0x40))\n      tag_22\n      swap3\n      swap2\n      swap1\n      tag_23\n      jump\t// in\n    tag_22:\n      mload(0x40)\n      0x20\n      dup2\n      dup4\n      sub\n      sub\n      dup2\n      mstore\n      swap1\n      0x40\n      mstore\n      swap2\n      pop\n      0xe0\n      shl\n      0x20\n      dup3\n      add\n      dup1\n      mload\n      0xffffffffffffffffffffffffffffffffffffffffffffffffffffffff\n      dup4\n      dup2\n      dup4\n      and\n      or\n      dup4\n      mstore\n      pop\n      pop\n      pop\n      pop\n        /* \"Encoding_Decoding/EncodeCall.sol\":394:455  bytes memory calldta = abi.encodeCall(addd.add, (num1, num2)) */\n      swap1\n      pop\n        /* \"Encoding_Decoding/EncodeCall.sol\":511:523  bool success */\n      0x00\n        /* \"Encoding_Decoding/EncodeCall.sol\":525:548  bytes memory returnData */\n      dup1\n        /* \"Encoding_Decoding/EncodeCall.sol\":560:564  addd */\n      0x00\n      dup1\n      sload\n      swap1\n      0x0100\n      exp\n      swap1\n      div\n      0xffffffffffffffffffffffffffffffffffffffff\n      and\n        /* \"Encoding_Decoding/EncodeCall.sol\":552:570  address(addd).call */\n      0xffffffffffffffffffffffffffffffffffffffff\n      and\n        /* \"Encoding_Decoding/EncodeCall.sol\":571:578  calldta */\n      dup4\n        /* \"Encoding_Decoding/EncodeCall.sol\":552:579  address(addd).call(calldta) */\n      mload(0x40)\n      tag_24\n      swap2\n      swap1\n      tag_25\n      jump\t// in\n    tag_24:\n      0x00\n      mload(0x40)\n      dup1\n      dup4\n      sub\n      dup2\n      0x00\n      dup7\n      gas\n      call\n      swap2\n      pop\n      pop\n      returndatasize\n      dup1\n      0x00\n      dup2\n      eq\n      tag_28\n      jumpi\n      mload(0x40)\n      swap2\n      pop\n      and(add(returndatasize, 0x3f), not(0x1f))\n      dup3\n      add\n      0x40\n      mstore\n      returndatasize\n      dup3\n      mstore\n      returndatasize\n      0x00\n      0x20\n      dup5\n      add\n      returndatacopy\n      jump(tag_27)\n    tag_28:\n      0x60\n      swap2\n      pop\n    tag_27:\n      pop\n        /* \"Encoding_Decoding/EncodeCall.sol\":510:579  (bool success, bytes memory returnData) = address(addd).call(calldta) */\n      swap2\n      pop\n      swap2\n      pop\n        /* \"Encoding_Decoding/EncodeCall.sol\":608:615  success */\n      dup2\n        /* \"Encoding_Decoding/EncodeCall.sol\":600:647  require(success, \"Call to Add contract failed\") */\n      tag_29\n      jumpi\n      mload(0x40)\n      0x08c379a000000000000000000000000000000000000000000000000000000000\n      dup2\n      mstore\n      0x04\n      add\n      tag_30\n      swap1\n      tag_31\n      jump\t// in\n    tag_30:\n      mload(0x40)\n      dup1\n      swap2\n      sub\n      swap1\n      revert\n    tag_29:\n        /* \"Encoding_Decoding/EncodeCall.sol\":666:673  success */\n      dup2\n        /* \"Encoding_Decoding/EncodeCall.sol\":675:685  returnData */\n      dup2\n        /* \"Encoding_Decoding/EncodeCall.sol\":658:686  return (success, returnData) */\n      swap5\n      pop\n      swap5\n      pop\n      pop\n      pop\n      pop\n        /* \"Encoding_Decoding/EncodeCall.sol\":302:694  function callAdd(uint256 num1, uint256 num2) public returns (bool, bytes memory) {... */\n      swap3\n      pop\n      swap3\n      swap1\n      pop\n      jump\t// out\n        /* \"Encoding_Decoding/EncodeCall.sol\":98:113  Add public addd */\n    tag_17:\n      0x00\n      dup1\n      sload\n      swap1\n      0x0100\n      exp\n      swap1\n      div\n      0xffffffffffffffffffffffffffffffffffffffff\n      and\n      dup2\n      jump\t// out\n        /* \"#utility.yul\":88:205   */\n    tag_33:\n        /* \"#utility.yul\":197:198   */\n      0x00\n        /* \"#utility.yul\":194:195   */\n      dup1\n        /* \"#utility.yul\":187:199   */\n      revert\n        /* \"#utility.yul\":334:460   */\n    tag_35:\n        /* \"#utility.yul\":371:378   */\n      0x00\n        /* \"#utility.yul\":411:453   */\n      0xffffffffffffffffffffffffffffffffffffffff\n        /* \"#utility.yul\":404:409   */\n      dup3\n        /* \"#utility.yul\":400:454   */\n      and\n        /* \"#utility.yul\":389:454   */\n      swap1\n      pop\n        /* \"#utility.yul\":334:460   */\n      swap2\n      swap1\n      pop\n      jump\t// out\n        /* \"#utility.yul\":466:562   */\n    tag_36:\n        /* \"#utility.yul\":503:510   */\n      0x00\n        /* \"#utility.yul\":532:556   */\n      tag_66\n        /* \"#utility.yul\":550:555   */\n      dup3\n        /* \"#utility.yul\":532:556   */\n      tag_35\n      jump\t// in\n    tag_66:\n        /* \"#utility.yul\":521:556   */\n      swap1\n      pop\n        /* \"#utility.yul\":466:562   */\n      swap2\n      swap1\n      pop\n      jump\t// out\n        /* \"#utility.yul\":568:690   */\n    tag_37:\n        /* \"#utility.yul\":641:665   */\n      tag_68\n        /* \"#utility.yul\":659:664   */\n      dup2\n        /* \"#utility.yul\":641:665   */\n      tag_36\n      jump\t// in\n    tag_68:\n        /* \"#utility.yul\":634:639   */\n      dup2\n        /* \"#utility.yul\":631:666   */\n      eq\n        /* \"#utility.yul\":621:684   */\n      tag_69\n      jumpi\n        /* \"#utility.yul\":680:681   */\n      0x00\n        /* \"#utility.yul\":677:678   */\n      dup1\n        /* \"#utility.yul\":670:682   */\n      revert\n        /* \"#utility.yul\":621:684   */\n    tag_69:\n        /* \"#utility.yul\":568:690   */\n      pop\n      jump\t// out\n        /* \"#utility.yul\":696:835   */\n    tag_38:\n        /* \"#utility.yul\":742:747   */\n      0x00\n        /* \"#utility.yul\":780:786   */\n      dup2\n        /* \"#utility.yul\":767:787   */\n      calldataload\n        /* \"#utility.yul\":758:787   */\n      swap1\n      pop\n        /* \"#utility.yul\":796:829   */\n      tag_71\n        /* \"#utility.yul\":823:828   */\n      dup2\n        /* \"#utility.yul\":796:829   */\n      tag_37\n      jump\t// in\n    tag_71:\n        /* \"#utility.yul\":696:835   */\n      swap3\n      swap2\n      pop\n      pop\n      jump\t// out\n        /* \"#utility.yul\":841:1170   */\n    tag_8:\n        /* \"#utility.yul\":900:906   */\n      0x00\n        /* \"#utility.yul\":949:951   */\n      0x20\n        /* \"#utility.yul\":937:946   */\n      dup3\n        /* \"#utility.yul\":928:935   */\n      dup5\n        /* \"#utility.yul\":924:947   */\n      sub\n        /* \"#utility.yul\":920:952   */\n      slt\n        /* \"#utility.yul\":917:1036   */\n      iszero\n      tag_73\n      jumpi\n        /* \"#utility.yul\":955:1034   */\n      tag_74\n      tag_33\n      jump\t// in\n    tag_74:\n        /* \"#utility.yul\":917:1036   */\n    tag_73:\n        /* \"#utility.yul\":1075:1076   */\n      0x00\n        /* \"#utility.yul\":1100:1153   */\n      tag_75\n        /* \"#utility.yul\":1145:1152   */\n      dup5\n        /* \"#utility.yul\":1136:1142   */\n      dup3\n        /* \"#utility.yul\":1125:1134   */\n      dup6\n        /* \"#utility.yul\":1121:1143   */\n      add\n        /* \"#utility.yul\":1100:1153   */\n      tag_38\n      jump\t// in\n    tag_75:\n        /* \"#utility.yul\":1090:1153   */\n      swap2\n      pop\n        /* \"#utility.yul\":1046:1163   */\n      pop\n        /* \"#utility.yul\":841:1170   */\n      swap3\n      swap2\n      pop\n      pop\n      jump\t// out\n        /* \"#utility.yul\":1176:1253   */\n    tag_39:\n        /* \"#utility.yul\":1213:1220   */\n      0x00\n        /* \"#utility.yul\":1242:1247   */\n      dup2\n        /* \"#utility.yul\":1231:1247   */\n      swap1\n      pop\n        /* \"#utility.yul\":1176:1253   */\n      swap2\n      swap1\n      pop\n      jump\t// out\n        /* \"#utility.yul\":1259:1381   */\n    tag_40:\n        /* \"#utility.yul\":1332:1356   */\n      tag_78\n        /* \"#utility.yul\":1350:1355   */\n      dup2\n        /* \"#utility.yul\":1332:1356   */\n      tag_39\n      jump\t// in\n    tag_78:\n        /* \"#utility.yul\":1325:1330   */\n      dup2\n        /* \"#utility.yul\":1322:1357   */\n      eq\n        /* \"#utility.yul\":1312:1375   */\n      tag_79\n      jumpi\n        /* \"#utility.yul\":1371:1372   */\n      0x00\n        /* \"#utility.yul\":1368:1369   */\n      dup1\n        /* \"#utility.yul\":1361:1373   */\n      revert\n        /* \"#utility.yul\":1312:1375   */\n    tag_79:\n        /* \"#utility.yul\":1259:1381   */\n      pop\n      jump\t// out\n        /* \"#utility.yul\":1387:1526   */\n    tag_41:\n        /* \"#utility.yul\":1433:1438   */\n      0x00\n        /* \"#utility.yul\":1471:1477   */\n      dup2\n        /* \"#utility.yul\":1458:1478   */\n      calldataload\n        /* \"#utility.yul\":1449:1478   */\n      swap1\n      pop\n        /* \"#utility.yul\":1487:1520   */\n      tag_81\n        /* \"#utility.yul\":1514:1519   */\n      dup2\n        /* \"#utility.yul\":1487:1520   */\n      tag_40\n      jump\t// in\n    tag_81:\n        /* \"#utility.yul\":1387:1526   */\n      swap3\n      swap2\n      pop\n      pop\n      jump\t// out\n        /* \"#utility.yul\":1532:2006   */\n    tag_12:\n        /* \"#utility.yul\":1600:1606   */\n      0x00\n        /* \"#utility.yul\":1608:1614   */\n      dup1\n        /* \"#utility.yul\":1657:1659   */\n      0x40\n        /* \"#utility.yul\":1645:1654   */\n      dup4\n        /* \"#utility.yul\":1636:1643   */\n      dup6\n        /* \"#utility.yul\":1632:1655   */\n      sub\n        /* \"#utility.yul\":1628:1660   */\n      slt\n        /* \"#utility.yul\":1625:1744   */\n      iszero\n      tag_83\n      jumpi\n        /* \"#utility.yul\":1663:1742   */\n      tag_84\n      tag_33\n      jump\t// in\n    tag_84:\n        /* \"#utility.yul\":1625:1744   */\n    tag_83:\n        /* \"#utility.yul\":1783:1784   */\n      0x00\n        /* \"#utility.yul\":1808:1861   */\n      tag_85\n        /* \"#utility.yul\":1853:1860   */\n      dup6\n        /* \"#utility.yul\":1844:1850   */\n      dup3\n        /* \"#utility.yul\":1833:1842   */\n      dup7\n        /* \"#utility.yul\":1829:1851   */\n      add\n        /* \"#utility.yul\":1808:1861   */\n      tag_41\n      jump\t// in\n    tag_85:\n        /* \"#utility.yul\":1798:1861   */\n      swap3\n      pop\n        /* \"#utility.yul\":1754:1871   */\n      pop\n        /* \"#utility.yul\":1910:1912   */\n      0x20\n        /* \"#utility.yul\":1936:1989   */\n      tag_86\n        /* \"#utility.yul\":1981:1988   */\n      dup6\n        /* \"#utility.yul\":1972:1978   */\n      dup3\n        /* \"#utility.yul\":1961:1970   */\n      dup7\n        /* \"#utility.yul\":1957:1979   */\n      add\n        /* \"#utility.yul\":1936:1989   */\n      tag_41\n      jump\t// in\n    tag_86:\n        /* \"#utility.yul\":1926:1989   */\n      swap2\n      pop\n        /* \"#utility.yul\":1881:1999   */\n      pop\n        /* \"#utility.yul\":1532:2006   */\n      swap3\n      pop\n      swap3\n      swap1\n      pop\n      jump\t// out\n        /* \"#utility.yul\":2012:2102   */\n    tag_42:\n        /* \"#utility.yul\":2046:2053   */\n      0x00\n        /* \"#utility.yul\":2089:2094   */\n      dup2\n        /* \"#utility.yul\":2082:2095   */\n      iszero\n        /* \"#utility.yul\":2075:2096   */\n      iszero\n        /* \"#utility.yul\":2064:2096   */\n      swap1\n      pop\n        /* \"#utility.yul\":2012:2102   */\n      swap2\n      swap1\n      pop\n      jump\t// out\n        /* \"#utility.yul\":2108:2217   */\n    tag_43:\n        /* \"#utility.yul\":2189:2210   */\n      tag_89\n        /* \"#utility.yul\":2204:2209   */\n      dup2\n        /* \"#utility.yul\":2189:2210   */\n      tag_42\n      jump\t// in\n    tag_89:\n        /* \"#utility.yul\":2184:2187   */\n      dup3\n        /* \"#utility.yul\":2177:2211   */\n      mstore\n        /* \"#utility.yul\":2108:2217   */\n      pop\n      pop\n      jump\t// out\n        /* \"#utility.yul\":2223:2321   */\n    tag_44:\n        /* \"#utility.yul\":2274:2280   */\n      0x00\n        /* \"#utility.yul\":2308:2313   */\n      dup2\n        /* \"#utility.yul\":2302:2314   */\n      mload\n        /* \"#utility.yul\":2292:2314   */\n      swap1\n      pop\n        /* \"#utility.yul\":2223:2321   */\n      swap2\n      swap1\n      pop\n      jump\t// out\n        /* \"#utility.yul\":2327:2495   */\n    tag_45:\n        /* \"#utility.yul\":2410:2421   */\n      0x00\n        /* \"#utility.yul\":2444:2450   */\n      dup3\n        /* \"#utility.yul\":2439:2442   */\n      dup3\n        /* \"#utility.yul\":2432:2451   */\n      mstore\n        /* \"#utility.yul\":2484:2488   */\n      0x20\n        /* \"#utility.yul\":2479:2482   */\n      dup3\n        /* \"#utility.yul\":2475:2489   */\n      add\n        /* \"#utility.yul\":2460:2489   */\n      swap1\n      pop\n        /* \"#utility.yul\":2327:2495   */\n      swap3\n      swap2\n      pop\n      pop\n      jump\t// out\n        /* \"#utility.yul\":2501:2747   */\n    tag_46:\n        /* \"#utility.yul\":2582:2583   */\n      0x00\n        /* \"#utility.yul\":2592:2705   */\n    tag_93:\n        /* \"#utility.yul\":2606:2612   */\n      dup4\n        /* \"#utility.yul\":2603:2604   */\n      dup2\n        /* \"#utility.yul\":2600:2613   */\n      lt\n        /* \"#utility.yul\":2592:2705   */\n      iszero\n      tag_95\n      jumpi\n        /* \"#utility.yul\":2691:2692   */\n      dup1\n        /* \"#utility.yul\":2686:2689   */\n      dup3\n        /* \"#utility.yul\":2682:2693   */\n      add\n        /* \"#utility.yul\":2676:2694   */\n      mload\n        /* \"#utility.yul\":2672:2673   */\n      dup2\n        /* \"#utility.yul\":2667:2670   */\n      dup5\n        /* \"#utility.yul\":2663:2674   */\n      add\n        /* \"#utility.yul\":2656:2695   */\n      mstore\n        /* \"#utility.yul\":2628:2630   */\n      0x20\n        /* \"#utility.yul\":2625:2626   */\n      dup2\n        /* \"#utility.yul\":2621:2631   */\n      add\n        /* \"#utility.yul\":2616:2631   */\n      swap1\n      pop\n        /* \"#utility.yul\":2592:2705   */\n      jump(tag_93)\n    tag_95:\n        /* \"#utility.yul\":2739:2740   */\n      0x00\n        /* \"#utility.yul\":2730:2736   */\n      dup5\n        /* \"#utility.yul\":2725:2728   */\n      dup5\n        /* \"#utility.yul\":2721:2737   */\n      add\n        /* \"#utility.yul\":2714:2741   */\n      mstore\n        /* \"#utility.yul\":2563:2747   */\n      pop\n        /* \"#utility.yul\":2501:2747   */\n      pop\n      pop\n      pop\n      jump\t// out\n        /* \"#utility.yul\":2753:2855   */\n    tag_47:\n        /* \"#utility.yul\":2794:2800   */\n      0x00\n        /* \"#utility.yul\":2845:2847   */\n      0x1f\n        /* \"#utility.yul\":2841:2848   */\n      not\n        /* \"#utility.yul\":2836:2838   */\n      0x1f\n        /* \"#utility.yul\":2829:2834   */\n      dup4\n        /* \"#utility.yul\":2825:2839   */\n      add\n        /* \"#utility.yul\":2821:2849   */\n      and\n        /* \"#utility.yul\":2811:2849   */\n      swap1\n      pop\n        /* \"#utility.yul\":2753:2855   */\n      swap2\n      swap1\n      pop\n      jump\t// out\n        /* \"#utility.yul\":2861:3234   */\n    tag_48:\n        /* \"#utility.yul\":2947:2950   */\n      0x00\n        /* \"#utility.yul\":2975:3013   */\n      tag_98\n        /* \"#utility.yul\":3007:3012   */\n      dup3\n        /* \"#utility.yul\":2975:3013   */\n      tag_44\n      jump\t// in\n    tag_98:\n        /* \"#utility.yul\":3029:3099   */\n      tag_99\n        /* \"#utility.yul\":3092:3098   */\n      dup2\n        /* \"#utility.yul\":3087:3090   */\n      dup6\n        /* \"#utility.yul\":3029:3099   */\n      tag_45\n      jump\t// in\n    tag_99:\n        /* \"#utility.yul\":3022:3099   */\n      swap4\n      pop\n        /* \"#utility.yul\":3108:3173   */\n      tag_100\n        /* \"#utility.yul\":3166:3172   */\n      dup2\n        /* \"#utility.yul\":3161:3164   */\n      dup6\n        /* \"#utility.yul\":3154:3158   */\n      0x20\n        /* \"#utility.yul\":3147:3152   */\n      dup7\n        /* \"#utility.yul\":3143:3159   */\n      add\n        /* \"#utility.yul\":3108:3173   */\n      tag_46\n      jump\t// in\n    tag_100:\n        /* \"#utility.yul\":3198:3227   */\n      tag_101\n        /* \"#utility.yul\":3220:3226   */\n      dup2\n        /* \"#utility.yul\":3198:3227   */\n      tag_47\n      jump\t// in\n    tag_101:\n        /* \"#utility.yul\":3193:3196   */\n      dup5\n        /* \"#utility.yul\":3189:3228   */\n      add\n        /* \"#utility.yul\":3182:3228   */\n      swap2\n      pop\n        /* \"#utility.yul\":2951:3234   */\n      pop\n        /* \"#utility.yul\":2861:3234   */\n      swap3\n      swap2\n      pop\n      pop\n      jump\t// out\n        /* \"#utility.yul\":3240:3647   */\n    tag_15:\n        /* \"#utility.yul\":3373:3377   */\n      0x00\n        /* \"#utility.yul\":3411:3413   */\n      0x40\n        /* \"#utility.yul\":3400:3409   */\n      dup3\n        /* \"#utility.yul\":3396:3414   */\n      add\n        /* \"#utility.yul\":3388:3414   */\n      swap1\n      pop\n        /* \"#utility.yul\":3424:3489   */\n      tag_103\n        /* \"#utility.yul\":3486:3487   */\n      0x00\n        /* \"#utility.yul\":3475:3484   */\n      dup4\n        /* \"#utility.yul\":3471:3488   */\n      add\n        /* \"#utility.yul\":3462:3468   */\n      dup6\n        /* \"#utility.yul\":3424:3489   */\n      tag_43\n      jump\t// in\n    tag_103:\n        /* \"#utility.yul\":3536:3545   */\n      dup2\n        /* \"#utility.yul\":3530:3534   */\n      dup2\n        /* \"#utility.yul\":3526:3546   */\n      sub\n        /* \"#utility.yul\":3521:3523   */\n      0x20\n        /* \"#utility.yul\":3510:3519   */\n      dup4\n        /* \"#utility.yul\":3506:3524   */\n      add\n        /* \"#utility.yul\":3499:3547   */\n      mstore\n        /* \"#utility.yul\":3564:3640   */\n      tag_104\n        /* \"#utility.yul\":3635:3639   */\n      dup2\n        /* \"#utility.yul\":3626:3632   */\n      dup5\n        /* \"#utility.yul\":3564:3640   */\n      tag_48\n      jump\t// in\n    tag_104:\n        /* \"#utility.yul\":3556:3640   */\n      swap1\n      pop\n        /* \"#utility.yul\":3240:3647   */\n      swap4\n      swap3\n      pop\n      pop\n      pop\n      jump\t// out\n        /* \"#utility.yul\":3653:3713   */\n    tag_49:\n        /* \"#utility.yul\":3681:3684   */\n      0x00\n        /* \"#utility.yul\":3702:3707   */\n      dup2\n        /* \"#utility.yul\":3695:3707   */\n      swap1\n      pop\n        /* \"#utility.yul\":3653:3713   */\n      swap2\n      swap1\n      pop\n      jump\t// out\n        /* \"#utility.yul\":3719:3861   */\n    tag_50:\n        /* \"#utility.yul\":3769:3778   */\n      0x00\n        /* \"#utility.yul\":3802:3855   */\n      tag_107\n        /* \"#utility.yul\":3820:3854   */\n      tag_108\n        /* \"#utility.yul\":3829:3853   */\n      tag_109\n        /* \"#utility.yul\":3847:3852   */\n      dup5\n        /* \"#utility.yul\":3829:3853   */\n      tag_35\n      jump\t// in\n    tag_109:\n        /* \"#utility.yul\":3820:3854   */\n      tag_49\n      jump\t// in\n    tag_108:\n        /* \"#utility.yul\":3802:3855   */\n      tag_35\n      jump\t// in\n    tag_107:\n        /* \"#utility.yul\":3789:3855   */\n      swap1\n      pop\n        /* \"#utility.yul\":3719:3861   */\n      swap2\n      swap1\n      pop\n      jump\t// out\n        /* \"#utility.yul\":3867:3993   */\n    tag_51:\n        /* \"#utility.yul\":3917:3926   */\n      0x00\n        /* \"#utility.yul\":3950:3987   */\n      tag_111\n        /* \"#utility.yul\":3981:3986   */\n      dup3\n        /* \"#utility.yul\":3950:3987   */\n      tag_50\n      jump\t// in\n    tag_111:\n        /* \"#utility.yul\":3937:3987   */\n      swap1\n      pop\n        /* \"#utility.yul\":3867:3993   */\n      swap2\n      swap1\n      pop\n      jump\t// out\n        /* \"#utility.yul\":3999:4135   */\n    tag_52:\n        /* \"#utility.yul\":4059:4068   */\n      0x00\n        /* \"#utility.yul\":4092:4129   */\n      tag_113\n        /* \"#utility.yul\":4123:4128   */\n      dup3\n        /* \"#utility.yul\":4092:4129   */\n      tag_51\n      jump\t// in\n    tag_113:\n        /* \"#utility.yul\":4079:4129   */\n      swap1\n      pop\n        /* \"#utility.yul\":3999:4135   */\n      swap2\n      swap1\n      pop\n      jump\t// out\n        /* \"#utility.yul\":4141:4292   */\n    tag_53:\n        /* \"#utility.yul\":4238:4285   */\n      tag_115\n        /* \"#utility.yul\":4279:4284   */\n      dup2\n        /* \"#utility.yul\":4238:4285   */\n      tag_52\n      jump\t// in\n    tag_115:\n        /* \"#utility.yul\":4233:4236   */\n      dup3\n        /* \"#utility.yul\":4226:4286   */\n      mstore\n        /* \"#utility.yul\":4141:4292   */\n      pop\n      pop\n      jump\t// out\n        /* \"#utility.yul\":4298:4540   */\n    tag_19:\n        /* \"#utility.yul\":4401:4405   */\n      0x00\n        /* \"#utility.yul\":4439:4441   */\n      0x20\n        /* \"#utility.yul\":4428:4437   */\n      dup3\n        /* \"#utility.yul\":4424:4442   */\n      add\n        /* \"#utility.yul\":4416:4442   */\n      swap1\n      pop\n        /* \"#utility.yul\":4452:4533   */\n      tag_117\n        /* \"#utility.yul\":4530:4531   */\n      0x00\n        /* \"#utility.yul\":4519:4528   */\n      dup4\n        /* \"#utility.yul\":4515:4532   */\n      add\n        /* \"#utility.yul\":4506:4512   */\n      dup5\n        /* \"#utility.yul\":4452:4533   */\n      tag_53\n      jump\t// in\n    tag_117:\n        /* \"#utility.yul\":4298:4540   */\n      swap3\n      swap2\n      pop\n      pop\n      jump\t// out\n        /* \"#utility.yul\":4546:4664   */\n    tag_54:\n        /* \"#utility.yul\":4633:4657   */\n      tag_119\n        /* \"#utility.yul\":4651:4656   */\n      dup2\n        /* \"#utility.yul\":4633:4657   */\n      tag_39\n      jump\t// in\n    tag_119:\n        /* \"#utility.yul\":4628:4631   */\n      dup3\n        /* \"#utility.yul\":4621:4658   */\n      mstore\n        /* \"#utility.yul\":4546:4664   */\n      pop\n      pop\n      jump\t// out\n        /* \"#utility.yul\":4670:5002   */\n    tag_23:\n        /* \"#utility.yul\":4791:4795   */\n      0x00\n        /* \"#utility.yul\":4829:4831   */\n      0x40\n        /* \"#utility.yul\":4818:4827   */\n      dup3\n        /* \"#utility.yul\":4814:4832   */\n      add\n        /* \"#utility.yul\":4806:4832   */\n      swap1\n      pop\n        /* \"#utility.yul\":4842:4913   */\n      tag_121\n        /* \"#utility.yul\":4910:4911   */\n      0x00\n        /* \"#utility.yul\":4899:4908   */\n      dup4\n        /* \"#utility.yul\":4895:4912   */\n      add\n        /* \"#utility.yul\":4886:4892   */\n      dup6\n        /* \"#utility.yul\":4842:4913   */\n      tag_54\n      jump\t// in\n    tag_121:\n        /* \"#utility.yul\":4923:4995   */\n      tag_122\n        /* \"#utility.yul\":4991:4993   */\n      0x20\n        /* \"#utility.yul\":4980:4989   */\n      dup4\n        /* \"#utility.yul\":4976:4994   */\n      add\n        /* \"#utility.yul\":4967:4973   */\n      dup5\n        /* \"#utility.yul\":4923:4995   */\n      tag_54\n      jump\t// in\n    tag_122:\n        /* \"#utility.yul\":4670:5002   */\n      swap4\n      swap3\n      pop\n      pop\n      pop\n      jump\t// out\n        /* \"#utility.yul\":5008:5155   */\n    tag_55:\n        /* \"#utility.yul\":5109:5120   */\n      0x00\n        /* \"#utility.yul\":5146:5149   */\n      dup2\n        /* \"#utility.yul\":5131:5149   */\n      swap1\n      pop\n        /* \"#utility.yul\":5008:5155   */\n      swap3\n      swap2\n      pop\n      pop\n      jump\t// out\n        /* \"#utility.yul\":5161:5547   */\n    tag_56:\n        /* \"#utility.yul\":5265:5268   */\n      0x00\n        /* \"#utility.yul\":5293:5331   */\n      tag_125\n        /* \"#utility.yul\":5325:5330   */\n      dup3\n        /* \"#utility.yul\":5293:5331   */\n      tag_44\n      jump\t// in\n    tag_125:\n        /* \"#utility.yul\":5347:5435   */\n      tag_126\n        /* \"#utility.yul\":5428:5434   */\n      dup2\n        /* \"#utility.yul\":5423:5426   */\n      dup6\n        /* \"#utility.yul\":5347:5435   */\n      tag_55\n      jump\t// in\n    tag_126:\n        /* \"#utility.yul\":5340:5435   */\n      swap4\n      pop\n        /* \"#utility.yul\":5444:5509   */\n      tag_127\n        /* \"#utility.yul\":5502:5508   */\n      dup2\n        /* \"#utility.yul\":5497:5500   */\n      dup6\n        /* \"#utility.yul\":5490:5494   */\n      0x20\n        /* \"#utility.yul\":5483:5488   */\n      dup7\n        /* \"#utility.yul\":5479:5495   */\n      add\n        /* \"#utility.yul\":5444:5509   */\n      tag_46\n      jump\t// in\n    tag_127:\n        /* \"#utility.yul\":5534:5540   */\n      dup1\n        /* \"#utility.yul\":5529:5532   */\n      dup5\n        /* \"#utility.yul\":5525:5541   */\n      add\n        /* \"#utility.yul\":5518:5541   */\n      swap2\n      pop\n        /* \"#utility.yul\":5269:5547   */\n      pop\n        /* \"#utility.yul\":5161:5547   */\n      swap3\n      swap2\n      pop\n      pop\n      jump\t// out\n        /* \"#utility.yul\":5553:5824   */\n    tag_25:\n        /* \"#utility.yul\":5683:5686   */\n      0x00\n        /* \"#utility.yul\":5705:5798   */\n      tag_129\n        /* \"#utility.yul\":5794:5797   */\n      dup3\n        /* \"#utility.yul\":5785:5791   */\n      dup5\n        /* \"#utility.yul\":5705:5798   */\n      tag_56\n      jump\t// in\n    tag_129:\n        /* \"#utility.yul\":5698:5798   */\n      swap2\n      pop\n        /* \"#utility.yul\":5815:5818   */\n      dup2\n        /* \"#utility.yul\":5808:5818   */\n      swap1\n      pop\n        /* \"#utility.yul\":5553:5824   */\n      swap3\n      swap2\n      pop\n      pop\n      jump\t// out\n        /* \"#utility.yul\":5830:5999   */\n    tag_57:\n        /* \"#utility.yul\":5914:5925   */\n      0x00\n        /* \"#utility.yul\":5948:5954   */\n      dup3\n        /* \"#utility.yul\":5943:5946   */\n      dup3\n        /* \"#utility.yul\":5936:5955   */\n      mstore\n        /* \"#utility.yul\":5988:5992   */\n      0x20\n        /* \"#utility.yul\":5983:5986   */\n      dup3\n        /* \"#utility.yul\":5979:5993   */\n      add\n        /* \"#utility.yul\":5964:5993   */\n      swap1\n      pop\n        /* \"#utility.yul\":5830:5999   */\n      swap3\n      swap2\n      pop\n      pop\n      jump\t// out\n        /* \"#utility.yul\":6005:6182   */\n    tag_58:\n        /* \"#utility.yul\":6145:6174   */\n      0x43616c6c20746f2041646420636f6e7472616374206661696c65640000000000\n        /* \"#utility.yul\":6141:6142   */\n      0x00\n        /* \"#utility.yul\":6133:6139   */\n      dup3\n        /* \"#utility.yul\":6129:6143   */\n      add\n        /* \"#utility.yul\":6122:6175   */\n      mstore\n        /* \"#utility.yul\":6005:6182   */\n      pop\n      jump\t// out\n        /* \"#utility.yul\":6188:6554   */\n    tag_59:\n        /* \"#utility.yul\":6330:6333   */\n      0x00\n        /* \"#utility.yul\":6351:6418   */\n      tag_133\n        /* \"#utility.yul\":6415:6417   */\n      0x1b\n        /* \"#utility.yul\":6410:6413   */\n      dup4\n        /* \"#utility.yul\":6351:6418   */\n      tag_57\n      jump\t// in\n    tag_133:\n        /* \"#utility.yul\":6344:6418   */\n      swap2\n      pop\n        /* \"#utility.yul\":6427:6520   */\n      tag_134\n        /* \"#utility.yul\":6516:6519   */\n      dup3\n        /* \"#utility.yul\":6427:6520   */\n      tag_58\n      jump\t// in\n    tag_134:\n        /* \"#utility.yul\":6545:6547   */\n      0x20\n        /* \"#utility.yul\":6540:6543   */\n      dup3\n        /* \"#utility.yul\":6536:6548   */\n      add\n        /* \"#utility.yul\":6529:6548   */\n      swap1\n      pop\n        /* \"#utility.yul\":6188:6554   */\n      swap2\n      swap1\n      pop\n      jump\t// out\n        /* \"#utility.yul\":6560:6979   */\n    tag_31:\n        /* \"#utility.yul\":6726:6730   */\n      0x00\n        /* \"#utility.yul\":6764:6766   */\n      0x20\n        /* \"#utility.yul\":6753:6762   */\n      dup3\n        /* \"#utility.yul\":6749:6767   */\n      add\n        /* \"#utility.yul\":6741:6767   */\n      swap1\n      pop\n        /* \"#utility.yul\":6813:6822   */\n      dup2\n        /* \"#utility.yul\":6807:6811   */\n      dup2\n        /* \"#utility.yul\":6803:6823   */\n      sub\n        /* \"#utility.yul\":6799:6800   */\n      0x00\n        /* \"#utility.yul\":6788:6797   */\n      dup4\n        /* \"#utility.yul\":6784:6801   */\n      add\n        /* \"#utility.yul\":6777:6824   */\n      mstore\n        /* \"#utility.yul\":6841:6972   */\n      tag_136\n        /* \"#utility.yul\":6967:6971   */\n      dup2\n        /* \"#utility.yul\":6841:6972   */\n      tag_59\n      jump\t// in\n    tag_136:\n        /* \"#utility.yul\":6833:6972   */\n      swap1\n      pop\n        /* \"#utility.yul\":6560:6979   */\n      swap2\n      swap1\n      pop\n      jump\t// out\n\n    auxdata: 0xa2646970667358221220e9999f822ad3923facf169d34080b1cf6ff0461c9182dd91a35652981af9540364736f6c63430008180033\n}\n",
				"bytecode": {
					"linkReferences": {},
					"object": "608060405234801561000f575f80fd5b506105f78061001d5f395ff3fe608060405234801561000f575f80fd5b506004361061003f575f3560e01c80632c99f3f9146100435780639f8be8191461005f578063b61d653314610090575b5f80fd5b61005d600480360381019061005891906102e1565b6100ae565b005b6100796004803603810190610074919061033f565b6100f0565b604051610087929190610421565b60405180910390f35b610098610260565b6040516100a591906104aa565b60405180910390f35b805f806101000a81548173ffffffffffffffffffffffffffffffffffffffff021916908373ffffffffffffffffffffffffffffffffffffffff16021790555050565b5f60605f805f9054906101000a900473ffffffffffffffffffffffffffffffffffffffff1673ffffffffffffffffffffffffffffffffffffffff1663771602f786866040516024016101439291906104d2565b604051602081830303815290604052915060e01b6020820180517bffffffffffffffffffffffffffffffffffffffffffffffffffffffff838183161783525050505090505f805f8054906101000a900473ffffffffffffffffffffffffffffffffffffffff1673ffffffffffffffffffffffffffffffffffffffff16836040516101cd9190610533565b5f604051808303815f865af19150503d805f8114610206576040519150601f19603f3d011682016040523d82523d5f602084013e61020b565b606091505b509150915081610250576040517f08c379a0000000000000000000000000000000000000000000000000000000008152600401610247906105a3565b60405180910390fd5b8181945094505050509250929050565b5f8054906101000a900473ffffffffffffffffffffffffffffffffffffffff1681565b5f80fd5b5f73ffffffffffffffffffffffffffffffffffffffff82169050919050565b5f6102b082610287565b9050919050565b6102c0816102a6565b81146102ca575f80fd5b50565b5f813590506102db816102b7565b92915050565b5f602082840312156102f6576102f5610283565b5b5f610303848285016102cd565b91505092915050565b5f819050919050565b61031e8161030c565b8114610328575f80fd5b50565b5f8135905061033981610315565b92915050565b5f806040838503121561035557610354610283565b5b5f6103628582860161032b565b92505060206103738582860161032b565b9150509250929050565b5f8115159050919050565b6103918161037d565b82525050565b5f81519050919050565b5f82825260208201905092915050565b5f5b838110156103ce5780820151818401526020810190506103b3565b5f8484015250505050565b5f601f19601f8301169050919050565b5f6103f382610397565b6103fd81856103a1565b935061040d8185602086016103b1565b610416816103d9565b840191505092915050565b5f6040820190506104345f830185610388565b818103602083015261044681846103e9565b90509392505050565b5f819050919050565b5f61047261046d61046884610287565b61044f565b610287565b9050919050565b5f61048382610458565b9050919050565b5f61049482610479565b9050919050565b6104a48161048a565b82525050565b5f6020820190506104bd5f83018461049b565b92915050565b6104cc8161030c565b82525050565b5f6040820190506104e55f8301856104c3565b6104f260208301846104c3565b9392505050565b5f81905092915050565b5f61050d82610397565b61051781856104f9565b93506105278185602086016103b1565b80840191505092915050565b5f61053e8284610503565b915081905092915050565b5f82825260208201905092915050565b7f43616c6c20746f2041646420636f6e7472616374206661696c656400000000005f82015250565b5f61058d601b83610549565b915061059882610559565b602082019050919050565b5f6020820190508181035f8301526105ba81610581565b905091905056fea2646970667358221220e9999f822ad3923facf169d34080b1cf6ff0461c9182dd91a35652981af9540364736f6c63430008180033",
					"opcodes": "PUSH1 0x80 PUSH1 0x40 MSTORE CALLVALUE DUP1 ISZERO PUSH2 0xF JUMPI PUSH0 DUP1 REVERT JUMPDEST POP PUSH2 0x5F7 DUP1 PUSH2 0x1D PUSH0 CODECOPY PUSH0 RETURN INVALID PUSH1 0x80 PUSH1 0x40 MSTORE CALLVALUE DUP1 ISZERO PUSH2 0xF JUMPI PUSH0 DUP1 REVERT JUMPDEST POP PUSH1 0x4 CALLDATASIZE LT PUSH2 0x3F JUMPI PUSH0 CALLDATALOAD PUSH1 0xE0 SHR DUP1 PUSH4 0x2C99F3F9 EQ PUSH2 0x43 JUMPI DUP1 PUSH4 0x9F8BE819 EQ PUSH2 0x5F JUMPI DUP1 PUSH4 0xB61D6533 EQ PUSH2 0x90 JUMPI JUMPDEST PUSH0 DUP1 REVERT JUMPDEST PUSH2 0x5D PUSH1 0x4 DUP1 CALLDATASIZE SUB DUP2 ADD SWAP1 PUSH2 0x58 SWAP2 SWAP1 PUSH2 0x2E1 JUMP JUMPDEST PUSH2 0xAE JUMP JUMPDEST STOP JUMPDEST PUSH2 0x79 PUSH1 0x4 DUP1 CALLDATASIZE SUB DUP2 ADD SWAP1 PUSH2 0x74 SWAP2 SWAP1 PUSH2 0x33F JUMP JUMPDEST PUSH2 0xF0 JUMP JUMPDEST PUSH1 0x40 MLOAD PUSH2 0x87 SWAP3 SWAP2 SWAP1 PUSH2 0x421 JUMP JUMPDEST PUSH1 0x40 MLOAD DUP1 SWAP2 SUB SWAP1 RETURN JUMPDEST PUSH2 0x98 PUSH2 0x260 JUMP JUMPDEST PUSH1 0x40 MLOAD PUSH2 0xA5 SWAP2 SWAP1 PUSH2 0x4AA JUMP JUMPDEST PUSH1 0x40 MLOAD DUP1 SWAP2 SUB SWAP1 RETURN JUMPDEST DUP1 PUSH0 DUP1 PUSH2 0x100 EXP DUP2 SLOAD DUP2 PUSH20 0xFFFFFFFFFFFFFFFFFFFFFFFFFFFFFFFFFFFFFFFF MUL NOT AND SWAP1 DUP4 PUSH20 0xFFFFFFFFFFFFFFFFFFFFFFFFFFFFFFFFFFFFFFFF AND MUL OR SWAP1 SSTORE POP POP JUMP JUMPDEST PUSH0 PUSH1 0x60 PUSH0 DUP1 PUSH0 SWAP1 SLOAD SWAP1 PUSH2 0x100 EXP SWAP1 DIV PUSH20 0xFFFFFFFFFFFFFFFFFFFFFFFFFFFFFFFFFFFFFFFF AND PUSH20 0xFFFFFFFFFFFFFFFFFFFFFFFFFFFFFFFFFFFFFFFF AND PUSH4 0x771602F7 DUP7 DUP7 PUSH1 0x40 MLOAD PUSH1 0x24 ADD PUSH2 0x143 SWAP3 SWAP2 SWAP1 PUSH2 0x4D2 JUMP JUMPDEST PUSH1 0x40 MLOAD PUSH1 0x20 DUP2 DUP4 SUB SUB DUP2 MSTORE SWAP1 PUSH1 0x40 MSTORE SWAP2 POP PUSH1 0xE0 SHL PUSH1 0x20 DUP3 ADD DUP1 MLOAD PUSH28 0xFFFFFFFFFFFFFFFFFFFFFFFFFFFFFFFFFFFFFFFFFFFFFFFFFFFFFFFF DUP4 DUP2 DUP4 AND OR DUP4 MSTORE POP POP POP POP SWAP1 POP PUSH0 DUP1 PUSH0 DUP1 SLOAD SWAP1 PUSH2 0x100 EXP SWAP1 DIV PUSH20 0xFFFFFFFFFFFFFFFFFFFFFFFFFFFFFFFFFFFFFFFF AND PUSH20 0xFFFFFFFFFFFFFFFFFFFFFFFFFFFFFFFFFFFFFFFF AND DUP4 PUSH1 0x40 MLOAD PUSH2 0x1CD SWAP2 SWAP1 PUSH2 0x533 JUMP JUMPDEST PUSH0 PUSH1 0x40 MLOAD DUP1 DUP4 SUB DUP2 PUSH0 DUP7 GAS CALL SWAP2 POP POP RETURNDATASIZE DUP1 PUSH0 DUP2 EQ PUSH2 0x206 JUMPI PUSH1 0x40 MLOAD SWAP2 POP PUSH1 0x1F NOT PUSH1 0x3F RETURNDATASIZE ADD AND DUP3 ADD PUSH1 0x40 MSTORE RETURNDATASIZE DUP3 MSTORE RETURNDATASIZE PUSH0 PUSH1 0x20 DUP5 ADD RETURNDATACOPY PUSH2 0x20B JUMP JUMPDEST PUSH1 0x60 SWAP2 POP JUMPDEST POP SWAP2 POP SWAP2 POP DUP2 PUSH2 0x250 JUMPI PUSH1 0x40 MLOAD PUSH32 0x8C379A000000000000000000000000000000000000000000000000000000000 DUP2 MSTORE PUSH1 0x4 ADD PUSH2 0x247 SWAP1 PUSH2 0x5A3 JUMP JUMPDEST PUSH1 0x40 MLOAD DUP1 SWAP2 SUB SWAP1 REVERT JUMPDEST DUP2 DUP2 SWAP5 POP SWAP5 POP POP POP POP SWAP3 POP SWAP3 SWAP1 POP JUMP JUMPDEST PUSH0 DUP1 SLOAD SWAP1 PUSH2 0x100 EXP SWAP1 DIV PUSH20 0xFFFFFFFFFFFFFFFFFFFFFFFFFFFFFFFFFFFFFFFF AND DUP2 JUMP JUMPDEST PUSH0 DUP1 REVERT JUMPDEST PUSH0 PUSH20 0xFFFFFFFFFFFFFFFFFFFFFFFFFFFFFFFFFFFFFFFF DUP3 AND SWAP1 POP SWAP2 SWAP1 POP JUMP JUMPDEST PUSH0 PUSH2 0x2B0 DUP3 PUSH2 0x287 JUMP JUMPDEST SWAP1 POP SWAP2 SWAP1 POP JUMP JUMPDEST PUSH2 0x2C0 DUP2 PUSH2 0x2A6 JUMP JUMPDEST DUP2 EQ PUSH2 0x2CA JUMPI PUSH0 DUP1 REVERT JUMPDEST POP JUMP JUMPDEST PUSH0 DUP2 CALLDATALOAD SWAP1 POP PUSH2 0x2DB DUP2 PUSH2 0x2B7 JUMP JUMPDEST SWAP3 SWAP2 POP POP JUMP JUMPDEST PUSH0 PUSH1 0x20 DUP3 DUP5 SUB SLT ISZERO PUSH2 0x2F6 JUMPI PUSH2 0x2F5 PUSH2 0x283 JUMP JUMPDEST JUMPDEST PUSH0 PUSH2 0x303 DUP5 DUP3 DUP6 ADD PUSH2 0x2CD JUMP JUMPDEST SWAP2 POP POP SWAP3 SWAP2 POP POP JUMP JUMPDEST PUSH0 DUP2 SWAP1 POP SWAP2 SWAP1 POP JUMP JUMPDEST PUSH2 0x31E DUP2 PUSH2 0x30C JUMP JUMPDEST DUP2 EQ PUSH2 0x328 JUMPI PUSH0 DUP1 REVERT JUMPDEST POP JUMP JUMPDEST PUSH0 DUP2 CALLDATALOAD SWAP1 POP PUSH2 0x339 DUP2 PUSH2 0x315 JUMP JUMPDEST SWAP3 SWAP2 POP POP JUMP JUMPDEST PUSH0 DUP1 PUSH1 0x40 DUP4 DUP6 SUB SLT ISZERO PUSH2 0x355 JUMPI PUSH2 0x354 PUSH2 0x283 JUMP JUMPDEST JUMPDEST PUSH0 PUSH2 0x362 DUP6 DUP3 DUP7 ADD PUSH2 0x32B JUMP JUMPDEST SWAP3 POP POP PUSH1 0x20 PUSH2 0x373 DUP6 DUP3 DUP7 ADD PUSH2 0x32B JUMP JUMPDEST SWAP2 POP POP SWAP3 POP SWAP3 SWAP1 POP JUMP JUMPDEST PUSH0 DUP2 ISZERO ISZERO SWAP1 POP SWAP2 SWAP1 POP JUMP JUMPDEST PUSH2 0x391 DUP2 PUSH2 0x37D JUMP JUMPDEST DUP3 MSTORE POP POP JUMP JUMPDEST PUSH0 DUP2 MLOAD SWAP1 POP SWAP2 SWAP1 POP JUMP JUMPDEST PUSH0 DUP3 DUP3 MSTORE PUSH1 0x20 DUP3 ADD SWAP1 POP SWAP3 SWAP2 POP POP JUMP JUMPDEST PUSH0 JUMPDEST DUP4 DUP2 LT ISZERO PUSH2 0x3CE JUMPI DUP1 DUP3 ADD MLOAD DUP2 DUP5 ADD MSTORE PUSH1 0x20 DUP2 ADD SWAP1 POP PUSH2 0x3B3 JUMP JUMPDEST PUSH0 DUP5 DUP5 ADD MSTORE POP POP POP POP JUMP JUMPDEST PUSH0 PUSH1 0x1F NOT PUSH1 0x1F DUP4 ADD AND SWAP1 POP SWAP2 SWAP1 POP JUMP JUMPDEST PUSH0 PUSH2 0x3F3 DUP3 PUSH2 0x397 JUMP JUMPDEST PUSH2 0x3FD DUP2 DUP6 PUSH2 0x3A1 JUMP JUMPDEST SWAP4 POP PUSH2 0x40D DUP2 DUP6 PUSH1 0x20 DUP7 ADD PUSH2 0x3B1 JUMP JUMPDEST PUSH2 0x416 DUP2 PUSH2 0x3D9 JUMP JUMPDEST DUP5 ADD SWAP2 POP POP SWAP3 SWAP2 POP POP JUMP JUMPDEST PUSH0 PUSH1 0x40 DUP3 ADD SWAP1 POP PUSH2 0x434 PUSH0 DUP4 ADD DUP6 PUSH2 0x388 JUMP JUMPDEST DUP2 DUP2 SUB PUSH1 0x20 DUP4 ADD MSTORE PUSH2 0x446 DUP2 DUP5 PUSH2 0x3E9 JUMP JUMPDEST SWAP1 POP SWAP4 SWAP3 POP POP POP JUMP JUMPDEST PUSH0 DUP2 SWAP1 POP SWAP2 SWAP1 POP JUMP JUMPDEST PUSH0 PUSH2 0x472 PUSH2 0x46D PUSH2 0x468 DUP5 PUSH2 0x287 JUMP JUMPDEST PUSH2 0x44F JUMP JUMPDEST PUSH2 0x287 JUMP JUMPDEST SWAP1 POP SWAP2 SWAP1 POP JUMP JUMPDEST PUSH0 PUSH2 0x483 DUP3 PUSH2 0x458 JUMP JUMPDEST SWAP1 POP SWAP2 SWAP1 POP JUMP JUMPDEST PUSH0 PUSH2 0x494 DUP3 PUSH2 0x479 JUMP JUMPDEST SWAP1 POP SWAP2 SWAP1 POP JUMP JUMPDEST PUSH2 0x4A4 DUP2 PUSH2 0x48A JUMP JUMPDEST DUP3 MSTORE POP POP JUMP JUMPDEST PUSH0 PUSH1 0x20 DUP3 ADD SWAP1 POP PUSH2 0x4BD PUSH0 DUP4 ADD DUP5 PUSH2 0x49B JUMP JUMPDEST SWAP3 SWAP2 POP POP JUMP JUMPDEST PUSH2 0x4CC DUP2 PUSH2 0x30C JUMP JUMPDEST DUP3 MSTORE POP POP JUMP JUMPDEST PUSH0 PUSH1 0x40 DUP3 ADD SWAP1 POP PUSH2 0x4E5 PUSH0 DUP4 ADD DUP6 PUSH2 0x4C3 JUMP JUMPDEST PUSH2 0x4F2 PUSH1 0x20 DUP4 ADD DUP5 PUSH2 0x4C3 JUMP JUMPDEST SWAP4 SWAP3 POP POP POP JUMP JUMPDEST PUSH0 DUP2 SWAP1 POP SWAP3 SWAP2 POP POP JUMP JUMPDEST PUSH0 PUSH2 0x50D DUP3 PUSH2 0x397 JUMP JUMPDEST PUSH2 0x517 DUP2 DUP6 PUSH2 0x4F9 JUMP JUMPDEST SWAP4 POP PUSH2 0x527 DUP2 DUP6 PUSH1 0x20 DUP7 ADD PUSH2 0x3B1 JUMP JUMPDEST DUP1 DUP5 ADD SWAP2 POP POP SWAP3 SWAP2 POP POP JUMP JUMPDEST PUSH0 PUSH2 0x53E DUP3 DUP5 PUSH2 0x503 JUMP JUMPDEST SWAP2 POP DUP2 SWAP1 POP SWAP3 SWAP2 POP POP JUMP JUMPDEST PUSH0 DUP3 DUP3 MSTORE PUSH1 0x20 DUP3 ADD SWAP1 POP SWAP3 SWAP2 POP POP JUMP JUMPDEST PUSH32 0x43616C6C20746F2041646420636F6E7472616374206661696C65640000000000 PUSH0 DUP3 ADD MSTORE POP JUMP JUMPDEST PUSH0 PUSH2 0x58D PUSH1 0x1B DUP4 PUSH2 0x549 JUMP JUMPDEST SWAP2 POP PUSH2 0x598 DUP3 PUSH2 0x559 JUMP JUMPDEST PUSH1 0x20 DUP3 ADD SWAP1 POP SWAP2 SWAP1 POP JUMP JUMPDEST PUSH0 PUSH1 0x20 DUP3 ADD SWAP1 POP DUP2 DUP2 SUB PUSH0 DUP4 ADD MSTORE PUSH2 0x5BA DUP2 PUSH2 0x581 JUMP JUMPDEST SWAP1 POP SWAP2 SWAP1 POP JUMP INVALID LOG2 PUSH5 0x6970667358 0x22 SLT KECCAK256 0xE9 SWAP10 SWAP16 DUP3 0x2A 0xD3 SWAP3 EXTCODEHASH 0xAC CALL PUSH10 0xD34080B1CF6FF0461C91 DUP3 0xDD SWAP2 LOG3 JUMP MSTORE SWAP9 BYTE 0xF9 SLOAD SUB PUSH5 0x736F6C6343 STOP ADDMOD XOR STOP CALLER "
				},
				"gasEstimates": {
					"creation": {
						"codeDepositCost": "305400",
						"executionCost": "341",
						"totalCost": "305741"
					},
					"external": {
						"addd()": "infinite",
						"callAdd(uint256,uint256)": "infinite",
						"setAddContract(address)": "24693"
					}
				},
				"methodIdentifiers": {
					"addd()": "b61d6533",
					"callAdd(uint256,uint256)": "9f8be819",
					"setAddContract(address)": "2c99f3f9"
				}
			},
			"storageLayout": {
				"storage": [
					{
						"astId": 4,
						"contract": "Encoding_Decoding/EncodeCall.sol:EncodeWithSelector",
						"label": "addd",
						"offset": 0,
						"slot": "0",
						"type": "t_contract(Add)82"
					}
				],
				"types": {
					"t_contract(Add)82": {
						"encoding": "inplace",
						"label": "contract Add",
						"numberOfBytes": "20"
					}
				}
			},
			"userdoc": {
				"kind": "user",
				"methods": {},
				"version": 1
			}
		}
	}
}