{
  "_format": "hh-sol-artifact-1",
  "contractName": "SignatureVerifier",
  "sourceName": "contracts/EthSigner.sol",
  "abi": [
    {
      "inputs": [
        {
          "internalType": "address",
          "name": "_signer",
          "type": "address"
        },
        {
          "internalType": "bytes32",
          "name": "signedHash",
          "type": "bytes32"
        },
        {
          "internalType": "bytes32",
          "name": "r",
          "type": "bytes32"
        },
        {
          "internalType": "bytes32",
          "name": "s",
          "type": "bytes32"
        },
        {
          "internalType": "uint8",
          "name": "v",
          "type": "uint8"
        }
      ],
      "name": "verify",
      "outputs": [
        {
          "internalType": "bool",
          "name": "",
          "type": "bool"
        }
      ],
      "stateMutability": "pure",
      "type": "function"
    }
  ],
  "bytecode": "0x608060405234801561001057600080fd5b5061030b806100206000396000f3fe608060405234801561001057600080fd5b506004361061002b5760003560e01c8063081678f814610030575b600080fd5b61004a600480360381019061004591906101c1565b610060565b6040516100579190610257565b60405180910390f35b600080600186848787604051600081526020016040526040516100869493929190610290565b6020604051602081039080840390855afa1580156100a8573d6000803e3d6000fd5b5050506020604051035190508673ffffffffffffffffffffffffffffffffffffffff168173ffffffffffffffffffffffffffffffffffffffff161491505095945050505050565b600080fd5b600073ffffffffffffffffffffffffffffffffffffffff82169050919050565b600061011f826100f4565b9050919050565b61012f81610114565b811461013a57600080fd5b50565b60008135905061014c81610126565b92915050565b6000819050919050565b61016581610152565b811461017057600080fd5b50565b6000813590506101828161015c565b92915050565b600060ff82169050919050565b61019e81610188565b81146101a957600080fd5b50565b6000813590506101bb81610195565b92915050565b600080600080600060a086880312156101dd576101dc6100ef565b5b60006101eb8882890161013d565b95505060206101fc88828901610173565b945050604061020d88828901610173565b935050606061021e88828901610173565b925050608061022f888289016101ac565b9150509295509295909350565b60008115159050919050565b6102518161023c565b82525050565b600060208201905061026c6000830184610248565b92915050565b61027b81610152565b82525050565b61028a81610188565b82525050565b60006080820190506102a56000830187610272565b6102b26020830186610281565b6102bf6040830185610272565b6102cc6060830184610272565b9594505050505056fea2646970667358221220d0f10275bada490b806ca35f5da33381f3ceb19e807d958a06676d3d20e0083d64736f6c63430008180033",
  "linkReferences": {},
  "deployedLinkReferences": {}
}